:100000000C94BF080C9406090C9406090C9406097C
:100010000C9406090C9406090C9406090C94060924
:100020000C9406090C9406090C94F4310C94C83213
:100030000C9477290C9406090C9406090C94060973
:100040000C9406090C9406090C9406090C940609F4
:100050000C9406090C94CE290C9406090C940609FC
:100060000C9406090C9406090C9406090C940609D4
:100070000C9406090C9406090C9406090C940609C4
:100080000C9406090C9406090C9406090C940609B4
:100090000C9406090C9406090C9406090C940609A4
:1000A0000C9406090C9406090C940609290000001A
:1000B0003A003B003C003D003E003F004000350060
:1000C0001E001F0020002100220023002400250024
:1000D0002B0014001A000800150017001C0018005F
:1000E0000C00390004001600070009000A000B008C
:1000F0000D000E00E100E1001D001B0006001900CC
:10010000050011001000E000E300E200E4000151EE
:1001100000002C00E700E600000048004700450012
:100120004400430046004200410027004B004A00C3
:100130002A002A002E0049002D00260000004E0053
:100140004D00280030002F004C001300120000006A
:1001500000005200000031003400000033000F00A6
:1001600000004F005100E500E50038005000370066
:100170003600010000000100010001000100010043
:100180000100010001000100010001000100010067
:10019000010001000100C25C010001000100C35C1C
:1001A0000100010001000100BF5C0100010001002D
:1001B000010001000100C55CC75C010001000100F5
:1001C000E000BE5CC05C01000100C65C01000100F3
:1001D0000100010001000000010001000100000019
:1001E0000100010001000100010001000100010007
:1001F00001000100010001000100010001000100F7
:1002000001000000010001000100010001000100E7
:1002100001000100000000000100000001000100D9
:1002200000000100C95C00000100010001000100A4
:1002300001000100CA5CC85C01000000010001006F
:1002400001000100010001000100010001000100A6
:100250000100010001000100010001000100010096
:100260000100010001000100010001000100010086
:100270000100010001000100010001000100010076
:100280000100010001000100010001000100010066
:100290000100010001000100010001000000010057
:1002A0000100010000000100010001000100010047
:1002B0000100010001000100010001000100010036
:1002C0000100010001000100000001000100010027
:1002D0000100010001000100010000000000010018
:1002E0000000010001000000010001000000010009
:1002F00001000100010001000100010001000100F6
:1003000000000100010001000100010001000100E6
:1003100001000100010001000100010001000100D5
:1003200001000100010001000100010001000100C5
:1003300001000100010001000100010001000100B5
:1003400001000100010001000100010001000100A5
:100350000100010001000100010001000100010095
:100360000100000001000100010000000100010087
:100370000100010001000100010001000100010075
:100380000100010001000100010001000100000066
:100390000100010001000100010001000100010055
:1003A0000000000001000000010001000000010049
:1003B0000100000001000100010001000100010036
:1003C0000100010001000000010001000100010026
:1003D0000100010001000100010001000100010015
:1003E0000100010001000100010001000100010005
:1003F00001000100010001000100010001000100F5
:1004000001000100010001000100010001000100E4
:1004100001000100010001000100010001000100D4
:1004200001000100010001000000010001000100C5
:1004300000000100010001000100010001000100B5
:1004400001000100010001000100010001000100A4
:100450000100010000000100010001000100010095
:100460000100010001000000000001000000010087
:100470000100000001000100000001000100010076
:100480000100010001000100010001000000010065
:100490000100010001000100010001000100010054
:1004A0000100010001000100010001000100010044
:1004B0000100010001000100010001000100010034
:1004C0000100010001000100010001000100010024
:1004D0000100010001000100010001000100010014
:1004E0000100010001000100010001000100000005
:1004F00001000100010000000100010001000100F5
:1005000001000100010001000100010001000100E3
:1005100001000100010001000100000001000100D4
:1005200001000100010001000100010000000000C5
:1005300001000000010001000000010001000000B6
:1005400001000100010001000100010001000100A3
:100550000100000001000100010001000100010094
:100560000100010001000100010001000100010083
:100570000100010001000100010001000100010073
:100580000100010001000100010001000100010063
:100590000100010001000100010001000100010053
:1005A0000100010001000100010001000100010043
:1005B0000100010000000100010001000000010035
:1005C0000100010001000100010001000100010023
:1005D0000100010001000100010001000100010013
:1005E0000000010001000100010001000100010004
:1005F00001000000000001000000010001000000F7
:1006000001000100000001000100010001000100E3
:1006100001000100010001000000010001000100D3
:1006200001000100010001000100010001000100C2
:1006300001000100010001000100010001000100B2
:1006400001000100010001000100010001000100A2
:100650000100010001000100010001000100010092
:100660000100010001000100010001000100010082
:100670000100010001000100010000000100010073
:100680000100000001000100010001000100010063
:100690000100010001000100010001000100010052
:1006A0000100010001000000010001000100010043
:1006B0000100010001000100000000000100000035
:1006C0000100010000000100010000000100010024
:1006D0000100010001000100010001000100000013
:1006E0000100010001000100010001000100010002
:1006F00001000100010001000100010001000100F2
:1007000001000100010001000100010001000100E1
:1007100001000100010001000100010001000100D1
:1007200001000100010001000100010001000100C1
:1007300001000100010001000100010001000100B1
:1007400000000100010001000000010001000100A3
:100750000100010001000100010001000100010091
:100760000100010001000100010001000000010082
:100770000100010001000100010001000100000072
:100780000000010000000100010000000100010064
:100790000000010001000100010001000100010052
:1007A0000100010000000100010001000100010042
:1007B0000100010001000100010001000100010031
:1007C0000100010001000100010001000100010021
:1007D0000100010001000100010001000100010011
:1007E0000100010001000100010001000100010001
:1007F00001000100010001000100010001000100F1
:1008000001000100010000000100010001000000E2
:1008100001000100010001000100010001000100D0
:1008200001000100010001000100010001000100C0
:1008300001000000010001000100010001000100B1
:1008400001000100000000000100000001000100A3
:100850000000010001000000010001000100010092
:100860000100010001000100010000000100010081
:100870000100010001000100010001000100010070
:100880000100010001000100010001000100010060
:100890000100010001000100010001000100010050
:1008A0000100010001000100010001000100010040
:1008B0000100010001000100010001000100010030
:1008C0000100010001000100010001000000010021
:1008D0000100010000000100010001000100010011
:1008E0000100010001000100010001000100010000
:1008F00001000100010001000000010001000100F1
:1009000001000100010001000100000000000100E1
:1009100000000100010000000100010000000100D2
:1009200001000100010001000100010001000100BF
:1009300000000100010001000100010001000100B0
:10094000010001000100010001000100010001009F
:10095000010001000100010001000100010001008F
:10096000010001000100010001000100010001007F
:10097000010001000100010001000100010001006F
:10098000010001000100010001000100010001005F
:100990000100000001000100010000000100010051
:1009A000010001000100010001000100010001003F
:1009B0000100010001000100010001000100000030
:1009C000010001000100010001000100010001001F
:1009D0000000000001000000010001000000010013
:1009E0000100000001000100010001000100010000
:1009F00001000100010000000100010001000100F0
:100A000001000100010001000100010001000100DE
:100A100001000100010001000100010001000100CE
:100A200001000100010001000100010001000100BE
:100A300001000100010001000100010001000100AE
:100A4000010001000100010001000100010001009E
:100A5000010001000100010000000100010001008F
:100A6000000001000100010001000100010001007F
:100A7000010001000100010001000100010001006E
:100A8000010001000000010001000100010001005F
:100A90000100010001000000000001000000010051
:100AA0000100000001000100000001000100010040
:100AB000010001000100010001000100000001002F
:100AC000010001000100010001000100010001001E
:100AD000010001000100010001000100010001000E
:100AE00001000100010001000100010001000100FE
:100AF00001000100010001000100010001000100EE
:100B000001000100010001000100010001000100DD
:100B100001000100010001000100010001000000CE
:100B200001000100010000000100010001000100BE
:100B300001000100010001000100010001000100AD
:100B4000010001000100010001000000010001009E
:100B5000010001000100010001000100000000008F
:100B60000100000001000100000001000100000080
:100B7000010001000100010001000100010001006D
:100B8000010000000100010001000100010001005E
:100B9000010001000100010001000100010001004D
:100BA000010001000100010001000100010001003D
:100BB000010001000100010001000100010001002D
:100BC000010001000100010001000100010001001D
:100BD000010001000100010001000100010001000D
:100BE00001000100000001000100010000000100FF
:100BF00001000100010001000100010001000100ED
:100C000001000100010001000100010001000100DC
:100C100000000100010001000100010001000100CD
:100C200001000000000001000000010001000000C0
:100C300001000100000001000100010001000100AD
:100C4000010001000100010000000100010001009D
:100C5000010001000100010001000100010001008C
:100C6000010001000100010001000100010001007C
:100C7000010001000100010001000100010001006C
:100C8000010001000100010001000100010001005C
:100C9000010001000100010001000100010001004C
:100CA000010001000100010001000000010001003D
:100CB000010000000100010001000100010001002D
:100CC000010001000100010001000100010001001C
:100CD000010001000100000001000100010001000D
:100CE00001000100010001000000000001000000FF
:100CF00001000100000001000100000001000100EE
:100D000001000100010001000100010000000000DD
:100D1000000000002A2B2800000000000000000056
:100D20000000000000000029000000002C1E3420FC
:100D3000212224342627252E362D3738271E1F2022
:100D40002122232425263333362E37381F04050667
:100D50000708090A0B0C0D0E0F10111213141516AB
:100D60001718191A1B1C1D2F3130232D35040506A9
:100D70000708090A0B0C0D0E0F101112131415168B
:100D80001718191A1B1C1D2F3130354C000000009C
:100D90000000000000000000000000000000000053
:100DA0007E0F00D4FFFFFFC70000007832190A0051
:100DB000047F3F1F643214643214783C1E1E140AF0
:100DC000052223252628292A2C2D2F30323335368B
:100DD000383A3B3D3E4042434547494A4C4E5051CC
:100DE000535557595A5C5E6062646668696B6D6FF3
:100DF00071737577797B7D7F81838587898A8C8EF6
:100E000090929496989A9C9E9FA1A3A5A7A8AAACFD
:100E1000AEAFB1B3B4B6B8B9BBBCBEBFC1C2C3C537
:100E2000C6C7C9CACBCCCDCED0D1D2D2D3D4D5D6D9
:100E3000D7D7D8D9D9DADADBDBDBDCDCDCDCDCDD0C
:100E4000DDDDDDDCDCDCDCDCDBDBDBDADAD9D9D8F0
:100E5000D7D7D6D5D4D3D2D2D1D0CECDCCCBCAC988
:100E6000C7C6C5C3C2C1BFBEBCBBB9B8B6B4B3B1B7
:100E7000AFAEACAAA8A7A5A3A19F9E9C9A98969452
:100E800092908E8C8A89878583817F7D7B79777527
:100E900073716F6D6B6968666462605E5C5A595706
:100EA000555351504E4C4A4947454342403E3D3BC5
:100EB0003A3836353332302F2D2C2A29282625234F
:100EC00022FFAA7F5540000101010101010101013A
:100ED00002020202020202020203030303030303EB
:100EE00003040404040404040505050505060606B8
:100EF0000606070707070708080808090909090A75
:100F00000A0A0B0B0B0C0C0C0D0D0D0E0E0E0F0F19
:100F10000F101011111112121313141415151616A7
:100F20001717181819191A1A1B1B1C1D1D1E1E1F16
:100F30002020212222232424252626272829292A65
:100F40002B2C2D2D2E2F303132323334353637388D
:100F5000393A3B3C3D3E3F40414243444546474889
:100F6000494A4C4D4E4F50515354555658595A5B5F
:100F70005D5E5F616264656668696B6C6D6F7072FF
:100F8000737577787A7B7D7E8082838587888A8C6B
:100F90008E8F91939596989A9C9EA0A2A3A5A7A99F
:100FA000ABADAFB1B3B5B7BABCBEC0C2C4C6C9CB96
:100FB000CDCFD1D4D6D8DBDDDFE2E4E7E9EBEEF04C
:100FC000F3F5F8FAFDFF0403300000000803730096
:100FD000380030000000160371006D006B006200E5
:100FE000750069006C006400650072000000040375
:100FF000090409025B00030100A0FA0904000001D2
:1010000003010100092111010001224000070581AF
:101010000308000A0904010002030000000921116D
:1010200001000122220007058203200001070503B9
:10103000032000010904020001030000000921113E
:1010400001000122BC000705840320000A120110E0
:101050000100000008EDFE606001000102030106CE
:1010600060FF0961A1010962150026FF0095207546
:101070000881020963150026FF009520750891027A
:10108000C005010902A10185020901A10005091994
:101090000129051500250195057501810295017548
:1010A0000381010501093009311581257F950275FC
:1010B00008810609381581257F9501750881060587
:1010C0000C0A38021581257F950175088106C0C07C
:1010D00005010980A101850319012AB70015012620
:1010E000B700950175108100C0050C0901A10185AB
:1010F0000419012AA002150126A00295017510818C
:1011000000C005010906A1018505050719E029E7C9
:10111000150025019508750181020507190029EFC1
:101120001500250195F075018102050819012905B1
:10113000950575019102950175039101C00501099D
:1011400006A101050719E029E71500250195087595
:101150000181029501750881010507190029FF1514
:101160000026FF009506750881000508190129056C
:10117000950575019102950175039101C000112437
:101180001FBECFEFDAE0DEBFCDBF04B603FE27C03F
:101190008091CB039091CC03A091CD03B091CE036D
:1011A0008730904BA740B04BD1F41092CB031092F4
:1011B000CC031092CD031092CE0314BE84B7877F68
:1011C00084BF0FB6F894A8958091600088618093E1
:1011D0006000109260000FBEE0E0F8E3099511E0B6
:1011E000A0E0B1E0ECE7FCE602C005900D92AC3D5A
:1011F000B107D9F723E0ACEDB1E001C01D92AB3CE3
:10120000B207E1F70E94AA2E0C94ED350C94000071
:1012100090E080E008950895089581E0089580FFAA
:101220000BC03E9A469A81FF0AC03F9A479A82FFB6
:1012300009C0259A2D9A08953E984698F4CF3F9874
:101240004798F5CF25982D98089581E008950C943E
:101250000D0908950C9429091F93CF93DF9300D0B3
:1012600000D00F92CDB7DEB749835A836B8330919C
:10127000700289819A8131111DC06623B9F0222341
:10128000A9F00E946A26182F682F89819A810E94EE
:10129000162669817A81812F0F900F900F900F9001
:1012A0000F90DF91CF911F910C94D5190E94422687
:1012B000182FEFCF0E946A2669817A81EDCFFC0159
:1012C000262F408151816281738184810C942C0985
:1012D000CF93DF93EC0160E00E945F09BE01DF91D4
:1012E000CF910C942A09FF920F931F93CF93DF9312
:1012F000E82FF0E0E45FF24FF490C82FC695C69552
:10130000C695D0E0FE01E456F24F0491877010E0DC
:10131000082E02C0159507950A94E2F7017011276F
:10132000C457D24FFE01C491D0E002C0D595C795F5
:101330008A95E2F7C170DD270115110519F081EEDC
:101340000E94091E209719F086EE0E94091E8F2D1B
:101350000E94F11ECD2B19F086EE0E949B1E012BE0
:1013600041F081EEDF91CF911F910F91FF900C948E
:101370009B1EDF91CF911F910F91FF900895EF92E7
:10138000FF920F931F93CF93DF93EC01162F0AE088
:101390008881882309F454C0813009F04EC08981C6
:1013A000813099F47E0122E0E20EF11C8A810E94D4
:1013B000F11EE7012196812F815050F3EFE9FFE004
:1013C0003197F1F700C00000F7CF823041F47E0181
:1013D00082E0E80EF11C8A810E94091EEACF833068
:1013E00041F47E01E2E0EE0EF11C8A810E949B1E18
:1013F000E0CF843011F02196DDCF2A81229690E053
:1014000080E0AE014F5F5F4F2053330B2A30310530
:1014100048F0019778F2EFE9FFE03197F1F700C06B
:101420000000F7CF089FB001099F700D1124C9017A
:10143000860F971F2981EA01E4CF0E947309BACF72
:10144000DF91CF911F910F91FF90EF90089560E091
:101450000C94BF098F929F92AF92BF92CF92DF926E
:10146000EF92FF920F931F936B017C0181E090E05C
:10147000A0E0B0E04C015D0104C0880C991CAA1CDE
:10148000BB1C4A95D2F7B501A4014C015D0104C013
:10149000880C991CAA1CBB1C2A95D2F748295929EB
:1014A0006A297B2904C0880F991FAA1FBB1F0A95B0
:1014B000D2F78A019B010C211D212E213F21041707
:1014C00015072607370789F48C299D29AE29BF29DE
:1014D000BC01CD011F910F91FF90EF90DF90CF9055
:1014E000BF90AF909F908F90089580959095A09514
:1014F000B0958C219D21AE21BF21EACF0F93382FCB
:10150000262F6091EA027091EB028091EC0290919B
:10151000ED02042F432F0E942A0A0F910C945425A8
:101520000E94182A0E94B427811102C00E945A28E2
:101530000E94E2160C94000D0C94020D81E00895B7
:101540000C949E0ACF93C82F0E940F098C2FCF9125
:101550000C94A00A08950E9480210E94AA0A2FEFED
:1015600084E39CE0215080409040E1F700C00000FF
:101570000C94F2290F931F93CF93DF93EC0161E05A
:101580000E945F098C01BE010E9475178823B9F182
:10159000BE01C8010E942709882389F1BE01C80144
:1015A0000E944E16882359F1BE01C8010E940B1BF0
:1015B000882329F1BE01C8010E944C1B8823F9F041
:1015C000BE01C8010E946F1C8823C9F0BE01C8017A
:1015D0000E940B15882399F08A81882339F0011520
:1015E0008CE5180751F00E3D1C4579F0CE01DF91D6
:1015F000CF911F910F910C9425090E94AB0A80E0B6
:10160000DF91CF911F910F9108950E945A28F7CF33
:101610000895FC01EE0FFF1FE455F24F8591949160
:101620000895CF93DF930E94D5190E94260CEC01F8
:10163000811520E5920708F042C0811530E4930738
:1016400008F0BDC0883E910528F5803E910508F060
:101650009DC0883A910588F4853A910508F08FC0BD
:101660008130910509F492C0009709F48FC0049766
:1016700008F08CC0D0E0C0E089C08F3B910508F431
:1016800089C0805C9109C03CD105A0F30E94090B80
:10169000EC017CC08115904250F4C11581E0D8075F
:1016A00008F074C0C03FD10528F3D0656FC0C115E4
:1016B00090E3D90708F079C0CE019F70E7CF81157C
:1016C00025E5920758F5811534E5930708F0A6C083
:1016D000811542E5940750F4C11581E5D80708F457
:1016E00071C0DC2FCC27C16FD06A50C0982F96955F
:1016F00096959E0123703327C115D34508F07FC00E
:10170000C1E0D0E002C0CC0FDD1F2A95E2F720E255
:10171000929FC0011124C82BD92B6FC0C11589E538
:10172000D807A8F4C11598E5D90708F07CC0C11501
:1017300026E5D20708F09ECF8C2F0E94BD0CC82F43
:10174000D0E0DC2FCC27CC27DF71D0621FC0C115C1
:101750003AE5D30708F46CC0CE019056811590424B
:1017600008F088CF8D2F8F710E94BD0C90E0982FCC
:10177000882788279F719C012C2BE901E6CFC55A49
:10178000D0E0C75ADE4FC881D0E0D064CE01DF91EF
:10179000CF910895C85AD0E0CC0FDD1FC55DDE4F54
:1017A0000990D881C02DD464F1CFCE019927D3FF01
:1017B00003C0EC01D86CEACFEC01D06CE7CFDF704E
:1017C000D06AE4CFCE01E4E096958795EA95E1F7FB
:1017D00083702C2F26952695237090E2299F9001E7
:1017E0001124382B8C2F8370C1E0D0E002C0CC0FC5
:1017F000DD1F8A95E2F7C22BD32BDC68C7CFC1E08F
:10180000D0E002C0CC0FDD1F2A95E2F730E2939FB3
:10181000C0011124C82BD92BDA68B8CFD82FCC2718
:10182000C46FD06AB3CFDC2FCC27C06FD06AAECFE5
:101830008C2F8F700E94BD0C34E0D695C7953A95D9
:10184000E1F7CF709C2FEC01D069A0CF82389105D1
:10185000B1F1B0F48133910509F475C048F48932CF
:10186000910509F469C08A32910509F473C008959D
:101870008533910509F459C08933910501F1089523
:10188000833E9105A9F138F4803E9105F9F0823E3E
:10189000910549F10895863E9105A9F1873E91058C
:1018A000C9F1843E910519F52091BD0321FF1FC0A8
:1018B0008091BC0384FD14C087EE90E008952091D0
:1018C000BC032370A1F080EE90E008952091BC034A
:1018D00020FD47C03091BD0330FF09C024FF44C044
:1018E00090E080E004C02091BC0322FDF7CF089572
:1018F0002091BC0322FD3BC03091BD0330FDE3CFFE
:1019000024FFF5CFEDCF2091BC0323FFF0CF24FDC2
:10191000E7CFD2CF2091BC0323FD2CC03091BD0373
:1019200031FFEECF84EE90E008952091BC0325FFB7
:10193000DECF89E290E008952091BC0325FFD7CF48
:1019400085E390E008952091BC0326FFD0CF8AE282
:1019500090E008952091BC0326FFC9CF81E390E079
:10196000089589E390E0089583EE90E0089582EE73
:1019700090E0089586EE90E008959091BC0392FF68
:1019800006C0282F28712830F9F4877F846093FFE0
:1019900006C0282F28712831F1F4877E84612091B8
:1019A000BD0320FF06C0382F38713830D9F4877F47
:1019B000816021FF06C0282F28712831D1F4877E4D
:1019C000816194FD877E0895282F24712430F9F6D3
:1019D0008B7F8860DCCF282F2471243101F78B7E28
:1019E0008861DDCF382F3171313019F78E7F8860F3
:1019F000E0CF282F2171213121F78E7E8861E1CF40
:101A00000C940B090C940C09E82FF0E0EE0FFF1F6B
:101A1000E05AFC4F808191810895089580EA8A956B
:101A2000F1F70895ACE5B1E061E070E08D91E82F49
:101A3000E295EF70F0E041A18F709B0101C0220F91
:101A40008A95EAF7922F9095942391A382A1822BF5
:101A500082A381E0A536B80749F7A5E6B1E061E0C9
:101A600070E08D91E82FE295EF70F0E041A18F706A
:101A70009B0101C0220F8A95EAF7922F909594233B
:101A800091A382A1822B82A381E0A037B80749F7F6
:101A9000EAE4F3E0A0E6B3E080E693E0119211926D
:101AA0001D921D928E179F07C9F78BE00E94FB0DB8
:101AB0000C94900A2F923F924F925F926F927F9276
:101AC0008F929F92AF92BF92CF92DF92EF92FF924E
:101AD0000F931F93CF93DF939CE5C92E91E0D92EEE
:101AE000F12CE12C10E0AA24A394B12C30E6632E53
:101AF00033E0732ED6018D916D01C82FC295CF7042
:101B0000D0E099A18F70450101C0880C8A95EAF751
:101B1000892F882989A38AA1082D009580238AA36B
:101B20000E940E0DA5010E2C02C0440F551F0A94F1
:101B3000E2F7BA0160957095EAE4F3E085E6282EB5
:101B400081E0382E512C21913191D1014D901D0110
:101B5000842D82958F7090E0DC0190968C9190E0BE
:101B6000B42DBF7002C095958795BA95E2F780FDB8
:101B70003EC0C901842B952B2817390741F09F01DE
:101B800022503109D9018D939C93552453946E169C
:101B90007F06C9F689A1082309A38AA1882A8AA2F7
:101BA0001529BFEFEB1AFB0AE9E0EE16F10409F084
:101BB000A1CF212F4BE060E673E08AE493E00E941E
:101BC000FC0D0E949C0A812FDF91CF911F910F91F4
:101BD000FF90EF90DF90CF90BF90AF909F908F904D
:101BE0007F906F905F904F903F902F900895C90124
:101BF00086239723C1CF0895FF920F931F93CF930E
:101C0000DF93F82E092F162FD72FC42F222349F048
:101C100081E08093DE010E94A7299093DD018093EB
:101C2000DC018091DE018823A1F08091DC0190919C
:101C3000DD010E94BF29069760F0EF2DF02FA12F44
:101C4000BD2F90E080E0D0E08C179D0744F010920B
:101C5000DE01DF91CF911F910F91FF9008952191A7
:101C600031912D933D930196EFCFAF92BF92CF92DA
:101C7000DF92FF920F931F93CF93DF93362F472F5F
:101C8000E82FF0E0EA53F14F71110DC06491762F07
:101C9000862FDF91CF911F910F91FF90DF90CF9012
:101CA000BF90AF900895C72FD0E02491F22E022F5D
:101CB00010E056E0659FC0011124EFEFF0E0BF0196
:101CC0000E94A434832F90E0880F991F35E5369F3A
:101CD000D001379FB00D11248A1B9B0B982F990FB1
:101CE000980F6F01CC1ADD0AC09ED001C19EB00DC5
:101CF000D09EB00D11248B2F949FA0011124452F4D
:101D000055276F01C41AD50AC09EA001C19E500D6F
:101D1000D09E500D11245F01A91AB108AC9E60013C
:101D2000AD9ED00CBC9ED00C1124CD2CDD24EC1922
:101D3000FD09E09FE001E19FD00DF09FD00D11243F
:101D4000ED2F62307105A1F048F46115710569F05D
:101D50006130710589F0EB2F852F07C06430710564
:101D600071F088F066307105B1F76E2F722F91CF48
:101D7000E22F2B2F8D2FF9CFE22F252FF6CFEB2F30
:101D8000822F2D2FF2CF2B2F8F2DE52FEECF089501
:101D9000CF93DF93762FE901682F842F0E94350EB1
:101DA000798368838A83DF91CF9108958091760348
:101DB000982F9E7F29F48170826080937603089526
:101DC0008635E8F381708465F8CF88E090E00C9464
:101DD0008635CF92DF92EF92FF926B017C010E94D9
:101DE000D60EB701A60188E090E0FF90EF90DF905B
:101DF000CF900C94A4356091760370917703809115
:101E00007803909179030C94E90EE6E7F3E083E020
:101E1000808311828FEF828383831482608171813A
:101E2000828193810C94E90E8091760380FF02C039
:101E30008695089580E0089580917A03833018F4A0
:101E40008F5F80937A03609176037091770380911E
:101E50007803909179030C94E90E80917A0388239A
:101E600019F0815080937A03609176037091770323
:101E700080917803909179030C94E90E80917A0314
:101E8000089580937A03662351F0609176037091F0
:101E9000770380917803909179030C94E90E08956B
:101EA00060E00C94410F809177030895809178034E
:101EB000089580917903089570E00C94F216609172
:101EC00007018091760380FF0AC08091060123E01C
:101ED000829FC001112485589C4F0C945C0F809107
:101EE00008019091090123E0829FF0011124E55837
:101EF000FC4F891750F71182108212828F5F339640
:101F0000F8CF9091760390FF14C090910801209132
:101F1000090133E0939FF0011124E558FC4F92171B
:101F200010F00C945F0F8183608342839F5F339630
:101F3000F6CF0895CF93DF9300D00F92CDB7DEB7E1
:101F40009091760390FF0AC09E012F5F3F4F0E9441
:101F5000C80E4B8169818A810E94810F0F900F907A
:101F60000F90DF91CF910895CF93DF93EC01EC8137
:101F7000F0E0EF53F24F4491E6E7F3E062818181B4
:101F80000E949A0F8C818F5F8C83DF91CF9108958F
:101F9000CF93DF93EC01E6E7F3E0438162818C812C
:101FA0000E949A0F8C818F5F8C83DF91CF9108956F
:101FB0000F931F93CF93DF9300D00F92CDB7DEB76F
:101FC0008C018091DF0181110AC09E012F5F3F4F7C
:101FD0004FEF6FEF0E94C80E8A818093DF01F801F6
:101FE0006481613069F08091DF0140E0662361F037
:101FF00040E0623011F44091DF0180E060E004C015
:102000006091DF0140E080E00E94810FF80184814F
:1020100090E0019663E070E00E94B83484830F90F2
:102020000F900F90DF91CF911F910F910895AF9274
:10203000BF92CF92DF92EF92FF920F931F93CF93B5
:10204000DF9300D00F92CDB7DEB7182FF62E042FF6
:10205000E22E9091760390FF29C0E92FE695AE2FEE
:10206000B0E0A059BE4F8C9180934D029E7F92307C
:1020700059F59E012F5F3F4F812F0E94C80E4B8163
:1020800069818A810E94810F10937703F09278030F
:1020900000937903EE2051F06091760370917703FD
:1020A00080917803909179030E94E90E0F900F9030
:1020B0000F90DF91CF911F910F91FF90EF90DF90E4
:1020C000CF90BF90AF900895823019F400917903BA
:1020D000DBCF863019F410917703D6CF8930D9F34E
:1020E000893191F6E9518E2F8170D82EE695F0E076
:1020F000EF53F14FA590B490C12CBB2460910A011D
:10210000C61618F00E945F0FBFCF2C2D30E0A29EA4
:10211000C001A39E900DB29E900D112470E00E940C
:10212000A434812FD11013C0860F40910801420FB3
:10213000532F511D9A01220F331F240F351F25588D
:102140003C4F402F6F2D0E94C80EC394D7CF861BE3
:10215000ECCFE6E7F3E09181282F4381628188E0AC
:10216000890F0C94171081E00C94A910E6E7F3E0B6
:102170009181282F4381628188EF890F0C94171079
:1021800081E00C94B610E6E7F3E0628128E0620F8C
:1021900008F46FEF282F438181810C94171081E0A0
:1021A0000C94C310E6E7F3E0628128E0621B08F4B8
:1021B00060E0282F438181810C94171081E00C94FA
:1021C000D210E6E7F3E0438128E0420F08F44FEF36
:1021D000282F628181810C94171081E00C94E1100A
:1021E000E6E7F3E0438128E0421B08F440E0282FB3
:1021F000628181810C94171081E00C94F01020E032
:102200000C941710EF92FF921F93CF93DF93EC0182
:1022100010E0EE24EA94F12C60910A01161770F098
:102220000E945F0F9A818C8190FF27C08F5F8C8303
:10223000DF91CF911F91FF90EF90089520910801B9
:10224000422F410F5527551FCA019A01220F331FF4
:10225000280F391F25583C4F70E0C7010E94B83441
:10226000962F8C814091790360917803199F800D9E
:1022700011240E94C80E1F5FCFCF8150D8CFAF92DC
:10228000BF92CF92DF92EF92FF920F931F93CF9363
:10229000DF93FC0182810FEF80FF01E010E044E159
:1022A000A42E80910A011817C8F00E945F0F809138
:1022B000E101013009F055C0811102C080910A018D
:1022C00081508093E101DF91CF911F910F91FF9099
:1022D000EF90DF90CF90BF90AF900895C09108012C
:1022E000C12ED12CCC0DDD2DD11DCE01880F991F13
:1022F000C80FD91FC558DC4F198218821A8234E0E2
:10230000E32EF12CB12C8091E1018B0D85311CF174
:102310006A2D0E949634892F082E000C990BC8163E
:10232000D90691F4809179038E9DA0018F9D500D67
:10233000112455954795559547959E0160917803D1
:10234000809177030E94C80EB00EF1E0EF1AF108F9
:10235000D1F61F5FA6CF87FFDFCF90910A01890FCB
:10236000DBCF90E0019660910A0170E00E94B834E2
:10237000A8CF0F931F93CF93DF9380910801909183
:10238000090123E0829FF0011124E558FC4F8917D1
:1023900040F1C0E0D3E060910A01C61740F10E940D
:1023A0005F0F209104018091E001820F8093E00192
:1023B00090910501920F90930501191654F4082E7F
:1023C000000C990B40910A014150550B8417950759
:1023D0001CF0219520930401DF91CF911F910F9163
:1023E00008951182108212828F5F3396D0CF0C2F06
:1023F00010E070E0C8010E94B83420910801820FFB
:10240000482F50E02091E001022E000C330B021700
:102410001307BCF020910501022E000C330B20178E
:1024200031077CF08D9F9001112425583C4F40913D
:10243000790360917803809177030E94C80ECF5F83
:10244000AACFFA01EE0FFF1FE40FF51FE558FC4F6E
:10245000118210821282F3CF0F931F93CF93DF93D9
:102460008C01FC0184819581019681709927958367
:102470008483C0E0D5E580910A01C81730F0DF9170
:10248000CF911F910F910C945F0F20910801422F63
:102490004C0F5527551FCA019A01220F331F280FD1
:1024A000391F25583C4F8C2F8695F8014481558162
:1024B000840F952F911D817040917903609178036D
:1024C0008D9F802D11240E94C80ECF5FD4CF0F9313
:1024D0001F93CF93DF93EC0110E000E090910A018D
:1024E0009017110609F06CF40E945F0F8C8190E048
:1024F0000196817099278C83DF91CF911F910F9165
:10250000089520910801A801420F511D9A01220F40
:10251000331F240F351F25583C4F4C8160917803A1
:102520008091770396959017110651F04CF0442353
:1025300049F0409179030E94C80E0F5F1F4FCECF24
:102540004423B9F340E0F7CF8F929F92AF92BF92AE
:10255000CF92DF92EF92FF920F931F93CF93DF936F
:10256000FC01B280948081E0848300E015E05BE4AC
:10257000A52E88248394EE24EA94F12C7BE4C72EC4
:10258000D12C80910A01081770F0DF91CF911F9133
:102590000F91FF90EF90DF90CF90BF90AF909F9002
:1025A0008F900C945F0FC02FD0E01C9FF0011D9FF7
:1025B000F00D1124EE51FE4F91101CC013821282B7
:1025C00020910801CE01820F911D9C01220F331F23
:1025D000280F391F25583C4F1C9FF0011D9FF00DFF
:1025E0001124EE51FE4F4281618180810E94C80E0C
:1025F0000F5FC7CF2381222379F1215023833481B8
:102600008A2D821B311101C0822F1C9FF0011D9F5A
:10261000F00D1124EE51FE4F90917903899FC00176
:102620001124B6010E94A4346283211104C0332313
:1026300011F01482A38222E02B1510F21C9FF001EE
:102640001D9FF00D1124EE51FE4F80917703808382
:10265000809178038183B4CF0E94613582309140AC
:102660000CF0AECF82E08B1530F50E946135B701DA
:102670000E94B8341C9FF0011D9FF00D1124EE51F3
:10268000FE4F808322E02B15C8F40E946135209113
:1026900078032695622F70E00E94B834280F1C9FA3
:1026A000F0011D9FF00D1124EE51FE4F2183128287
:1026B000A382848285CF80917703DCCF2091780339
:1026C000EECFE6E7F3E080818E7F808360817181C9
:1026D000828193810E94E90E10924E022FEF80E7D3
:1026E00092E0215080409040E1F700C000000C943F
:1026F0005F0FE6E7F3E080818E7F808310924E02C9
:102700002FEF80E792E0215080409040E1F700C039
:1027100000000C945F0F60917603669570E04BE0CB
:1027200050E08BE091E00E947135892B19F481E033
:1027300080934E020E94A7299093470280934602FD
:1027400008959091760390FF35C09170811128C053
:10275000926090937603662351F0609176037091B6
:10276000770380917803909179030E94E90E60913C
:102770007603669570E04BE050E08BE091E00E94BC
:102780007135892BA1F010924E0281E080934902AD
:102790004091790360917803809177030C94FF1046
:1027A0008B3210F09465D5CF880F982BD2CF0E9432
:1027B0008B13EBCF0895682F90917603969581E067
:1027C000890F8B3208F081E00C94A11381E00C9406
:1027D000DB13682F9091760396958FEF890F09F49C
:1027E0008AE20C94A11381E00C94E91361E00C944B
:1027F000A113E6E7F3E080818160808386950C94E5
:10280000F6138091760380FD0C9461130C94F913F8
:1028100060E00C94A11380914C0281112EC00E94A3
:10282000B427811104C00E945A280E94050F0E94FB
:10283000E50E60937603709377038093780390930B
:1028400079036E7F61F40E94050F0E94E50E60938C
:1028500076037093770380937803909379030E94B3
:10286000D60E10924E028091760380FF03C08695AB
:102870000E94081481E080934C020895E6E7F3E09B
:1028800080818160808386950C9408140F931F9338
:10289000CF93DF9380914E02882309F49DC08091ED
:1028A0004D02E0917603E695E81BE0934802823002
:1028B000C9F5F0E0E354F24FE491CE2FD0E004EB01
:1028C0001FE080914902882389F0109249020E94FA
:1028D000A7299E0120953095820F931F9093470260
:1028E0008093460210924B0210924A028091460257
:1028F000909147020E94BF298C179D0708F46CC075
:10290000E0914602F0914702CE0FDF1FD0934702BD
:10291000C093460286E492E0F801DF91CF911F91C7
:102920000F910994863049F4F0E0E654F24FE491B7
:10293000CE2FD0E008EC1FE0C4CF893051F4E695EB
:10294000F0E0E954F24FE491CE2FD0E002E011E143
:10295000B8CF8F3051F4E695F0E0EC54F24FE491AB
:10296000CE2FD0E00FE311E1ACCF853149F4F0E098
:10297000EF54F24FE491CE2FD0E009EB11E1A1CF5B
:10298000C8EED3E00CE212E1883109F49ACF833229
:1029900039F4EFEAFDE0C591D49108ED1FE091CF45
:1029A000C4EFD1E007E612E1843209F48ACFC0ED2A
:1029B000D7E007EC1EE0853209F083CF8E2F63E06D
:1029C0000E948A34E92FF0E0E455F24FE491CE2FD3
:1029D000D0E004EA12E175CFDF91CF911F910F9102
:1029E0000895FA01811101C0FB010994CF93DF938F
:1029F000C82FD62F0E94140F8C1740F00E94140F7E
:102A00008D1720F4DF91CF910C94E6138C2FDF917A
:102A1000CF910C94F6130F931F93CF938C01FB016E
:102A2000C281CC2309F465C00E94FF268272F8019E
:102A3000E25CFC45E431F10538F4E151FA4C0C94C8
:102A4000EE340E940114C0E08C2FCF911F910F91A2
:102A5000089543EF53E166EE73E10E94F114F3CF62
:102A600046EE53E163EF73E1F8CF40EC50E163EBE6
:102A700070E1F3CF43EB50E160EC70E1EECF4EED4F
:102A800050E16FEC70E1E9CF4FEC50E16EED70E199
:102A9000E4CF4CEF50E16DEE70E1DFCF4DEE50E151
:102AA0006CEF70E1DACF4DE25FE06CE17FE0D5CF13
:102AB0004CE15FE06DE27FE0D0CF81E00E94F61351
:102AC000C2CF65E082E00E94F614BDCF68E086E0E8
:102AD000FACF6EE089E0F7CF64E18FE0F4CF67E1F1
:102AE00085E1F1CF88E1EACF62E289E1ECCF83E2D0
:102AF000E5CFC1E0A9CF8091B7030C94E627809180
:102B0000B70386958695869508950E94B42781110E
:102B100002C00E945A280E94E2278093B7038032A5
:102B200020F0877088618093B7039091B703892F55
:102B3000817090FF04C0892F8695869586950C94A8
:102B400083168091B703982F969596959695933016
:102B500040F49F5F990F990F990F8770892B80938D
:102B6000B7038091B70381608093B7030E94E62783
:102B70008091B7038695869586950C9483168091EF
:102B8000B703982F987F79F088508093B703887F98
:102B900091E009F490E08091B70390FB80F9809375
:102BA000B7030E94E6278091B703869586958695A0
:102BB0000C9483168091B70380FD13C081608093CD
:102BC000B703813019F489E08093B7038091B7038C
:102BD0000E94E6278091B7038695869586950C948A
:102BE000831608958091B70380FF08C08E7F80937D
:102BF000B7030E94E62780E00C9483160895809125
:102C0000B70380FD0C94F2150C94DA159091B7037C
:102C1000892F8695869586958F5F8F719770843002
:102C2000D8F4880F880F880F892B8093B703809181
:102C3000B703887F91E009F490E08091B70390FB9F
:102C400080F98093B7030E94E6278091B7038695A9
:102C5000869586950C9483169093B703E8CF8430BD
:102C600008F083E09091B7039770282F220F220F6E
:102C7000220F922B9093B703987F21E009F420E074
:102C80009091B70320FB90F99093B7030C948316AF
:102C90000E942F168091B7030C94E6279C01FB013C
:102CA0008281882349F12D3BFCE53F07C9F040F4C0
:102CB0002B3BECE53E0769F02C3B3C4579F0089551
:102CC0002F3B9CE5390791F070F0203C3C4589F0A2
:102CD000089583E00E94481680E0089580E0FACFCE
:102CE0000E94BF15F9CF0E94A115F6CF0E94FF15D3
:102CF000F3CF0E940616F0CF81E00895269A2E9811
:102D000008952E980895CF92DF92EF92FF92CF937D
:102D1000C82F843040F5811127C0809180008F7DBD
:102D2000809380000E9481162C2F30E0AFEFBFEF20
:102D30000E94FB3423E030E040E050E00E94CC34BD
:102D4000C9012C3764E13607A8F469E070E00E94FD
:102D5000A43470938B0060938A00CF91FF90EF9022
:102D6000DF90CF900895C3E08091800080628093CF
:102D70008000DACF2A50374D4F4F5F4F942F832F6B
:102D8000722F662725EF38E241E050E00E94CC34F4
:102D900069017A01CA01B9010E947A349B01AC0130
:102DA000C701B6010E947A34672F782F892F99279F
:102DB0006115710521E08207910559F66FEF7FEFEC
:102DC000C8CF08950E947E1682E28093800089E138
:102DD000809381008FEF9FEF909387008093860010
:102DE0000C9485156A9A4EB14B7F5EB15460EFB773
:102DF000F8949B01220F331F260F371F280F391F0E
:102E00002817390741F4EFBF8FE594E00197F1F7F8
:102E100000C000000895DC016D91CD0178E05EB93D
:102E2000000000C067FF4EB9660F000000C000C080
:102E300000C04EB900C07A9591F7E2CF82E290E0EF
:102E40000E947E35803289F483E290E00E947E35D4
:102E5000893059F484E290E00E947E3591E0873019
:102E600009F090E0892F8170089580E0FCCFCF9326
:102E7000C82F6FEF811160E282E290E00E949235EC
:102E80006FEFC11169E083E290E00E9492356FEF2D
:102E9000C11167E084E290E0CF910C94923580E01C
:102EA0000E9437170C94AE27089585E290E00E94A7
:102EB0007E35682F70E090E080E0089585E290E034
:102EC0000C9492350E9454170E941E1781110CC059
:102ED00060E070E0CB010E945E170E944D190E94D5
:102EE000371A81E00C9437170895CF93FB01C28104
:102EF000CC2309F19C0122513F452031310520F5B9
:102F000082510E94471AC0E08C2FCF91089581E032
:102F10000E947A2543E062E081E00E947E0AF3CFBE
:102F200081E00E949B2543E062E081E00E947E0AEE
:102F3000EBCF82E0F6CF8031FFE59F0789F3813147
:102F40009F45B9F3C1E0E0CF8031EFE59E07F9F28C
:102F500081319F45C9F682E0DBCF2FEFFC01208352
:102F60000895CF93DF93EC018881893029F08A306E
:102F700079F0DF91CF9108950E947F152FEF829F06
:102F8000C001112463E070E00E94A4346983F1CF92
:102F90001982EFCFFC012081293061F48181F3E0B7
:102FA0008F9FC00111246FEF70E00E94A434862F20
:102FB0000C942F160895CF93DF93EC01888181380C
:102FC000A9F028F4803871F0DF91CF91089582380C
:102FD00081F08338C9F70E94530F89830E94560FEE
:102FE0008A83F2CF0E94590F8983EECF0E94140F7B
:102FF000FBCF0E943E0FF8CFCF93DF93EC01888187
:103000008138E1F028F4803869F0DF91CF9108959C
:10301000823811F18338C9F70E94590F482F6A810D
:10302000898108C0D9810E94560FC82F0E94530F72
:103030004D2F6C2FDF91CF910C94FF1089810E944E
:1030400008148981811104C0DF91CF910C94791308
:10305000DF91CF910C943E148981DF91CF910C9434
:10306000500FDF92EF92FF920F931F93CF93DF9356
:10307000EC01D62EDC01ED918D01E150E33108F039
:10308000C9C0F0E0ED5FF94C0C94EE34198289E090
:103090008A836D2DCE01DF91CF911F910F91FF900B
:1030A000EF90DF900C949E2D8981823069F08330FF
:1030B00071F08130D9F40E94B3290E94F4346A83FC
:1030C0007B838C839D83E5CF0E945517F6CF7E01CD
:1030D00010E0812F0E94040DF701928383831F5F0C
:1030E000F2E0EF0EF11C1B30A1F7D3CF6D2DCE0116
:1030F0000E94AD17CECF89818230C1F76A817B8172
:103100008C819D810E94F4340E945E17C2CF4B8156
:103110006A8189810E941F199827892798279D8392
:103120008C83B7CF2C813D813227232732274B81D7
:103130006A8189810E943819ACCF0E944D19A9CFAC
:10314000CD010E94CA17C8010E94FC17A2CFCD0171
:103150000E94B117C8010E94DB179BCF0E947B150C
:103160000E94FB0E96CF0E94E219898392CF0E94A3
:10317000E4199827892798279A8389838ACF6B81B6
:1031800070E089819A81AE014C5F5F4F9827892753
:1031900098270E94E7197DCF6B8170E089819A8121
:1031A000AE014C5F5F4F9827892798270E940D1A20
:1031B00070CF0E94371A6DCF0E940D19D6CF6B8148
:1031C00070E089819A81AE014C5F5F4F9827892713
:1031D00098270E9485195DCF6B8170E089819A8163
:1031E000AE014C5F5F4F9827892798270E94AB1943
:1031F00050CF0E944F174DCF0E949E2D2FEF81EE92
:1032000094E0215080409040E1F700C000000E940F
:10321000F2293FCF8FEF88833CCF84E0089550E0C0
:10322000440F551F92E1699F400D511D112496ECEA
:10323000899F400D511D1124CA01869608950F9350
:103240001F93CF93DF930E940F198C010E947E354C
:10325000C82FD0E0DC2FCC27C80101960E947E3514
:103260009E01282BC901DF91CF911F910F910895E5
:103270000F931F93CF93DF93122F032F0E940F19E9
:10328000EC01602F0E949235612FCE010196DF91F3
:10329000CF911F910F910C949235AF92BF92CF9224
:1032A000DF92EF92FF921F93CF93DF938CEAC82EA9
:1032B00080E0D82ED0E07601C0E014C0F501259161
:1032C0003491412F6C2F8D2F0E94381982E0A80E67
:1032D000B11C1F5F193091F782E1E80EF11CCF5F3E
:1032E000CB3019F0570110E0E9CFDF5F86ECC80E54
:1032F000D11CD43001F7DF91CF911F91FF90EF9057
:10330000DF90CF90BF90AF900895EF92FF920F9310
:103310001F93CF93DF93EC018A017C01E60EF71E29
:10332000CE018696CE15DF0539F4DF91CF911F913E
:103330000F91FF90EF900895C83123E0D20740F439
:103340000E947E35F80180830F5F1F4F2196E8CFE2
:10335000F8011082F9CFCF92DF92EF92FF920F9394
:103360001F93CF93DF937C016A018C01060F171F17
:10337000EC01CE018696C017D10749F4DF91CF91B9
:103380001F910F91FF90EF90DF90CF900895C8317B
:1033900023E0D20740F4FE01EE19FF09EC0DFD1DFC
:1033A00060810E9492352196E4CF462F843038F414
:1033B0007B3028F4693018F4672F0C941F1990E0C3
:1033C00080E0089580E1089582EC90E00895EF9206
:1033D000FF920F931F93CF93DF93EC018A017C013F
:1033E000E60EF71ECE01825C9C4FCE15DF0539F448
:1033F000DF91CF911F910F91FF90EF900895C23C04
:10340000D10540F40E947E35F80180830F5F1F4F85
:103410002196E8CFF8011082F9CFCF92DF92EF9298
:10342000FF920F931F93CF93DF937C016A018C016E
:10343000060F171FEC01CE01825C9C4FC017D1070D
:1034400049F4DF91CF911F910F91FF90EF90DF90A2
:10345000CF900895C23CD10540F4FE01EE19FF095A
:10346000EC0DFD1D60810E9492352196E4CFCF9333
:10347000DF93CEE3D3E060E0CE010E949235219647
:10348000C11584E0D807B9F7DF91CF910895DF9295
:10349000EF92FF920F931F93CF93DF9300D000D052
:1034A000CDB7DEB7F82E8FE08F1540F08FEF93E0A9
:1034B0000E947E350EE313E08823C1F00F900F9039
:1034C0000F900F90DF91CF911F910F91FF90EF9090
:1034D000DF900895011584E0180781F3C8010E9468
:1034E0007E35811101C0FA940F5F1F4FF110F2CFAA
:1034F00019821A821B821C82DD24D39478018FEFFB
:10350000E81AF80AC8010E947E3589831A82882346
:10351000A9F29FEF980F933078F48A83D9820E5FD7
:103520001F4FC7010E947E358B83882339F2CE015D
:1035300001960E94270AE2CF8701F9CF0F931F93CC
:10354000CF93DF93C62FD42F022FFC0182818823D3
:10355000C9F0609351020E94A72990935002809372
:103560004F0280E28C0F883008F050C0C77081E0B5
:1035700001C0880FCA95EAF7DF91CF911F910F9193
:103580000C94041F10915102161335C080914F0204
:10359000909150020E94BF29883C910560F5C0E2DD
:1035A000CD0F1D17B9F080E2810F883040F41770FD
:1035B00081E001C0880F1A95EAF70E940B1FC830FE
:1035C00048F481E09D2F977001C0880F9A95EAF723
:1035D0000E94041F802F0E94F11EC830B8F4D770DB
:1035E00081E001C0880FDA95EAF7DF91CF911F9152
:1035F0000F910C940B1F80E28C0F883038F4C77049
:1036000081E001C0880FCA95EAF7EFCFDF91CF9133
:103610001F910F9108959C01CB01233F4CE5340786
:1036200031F190F4283DFCE53F07E9F0293D4CE5F8
:10363000340769F1273D3C4579F426E241EE61EE1D
:103640000E949E1A80E00895253FFCE53F07B9F0EF
:1036500090F0263F3C45B9F0FC0182818823D1F0EF
:1036600010925102089527E245EE65EEE9CF26E279
:1036700041EE60EEE5CF27E245EE64EEE1CF26E2D3
:1036800041EE62EEDDCF27E245EE66EED9CF28E2CD
:1036900041E0EBCF81E00895CF93DF93EC01FB0194
:1036A0008281882309F419C1C230FCE5DF07C0F12B
:1036B000C6319CE5D90730F09E012A5F3C45293090
:1036C000310570F50E94C7279093BD038093BC031A
:1036D000C031ECE5DE0709F4CFC008F05BC0C830AC
:1036E0008CE5D80709F4B6C088F5C430ECE5DE07F0
:1036F00009F4A8C0C0F4C2308CE5D80709F49CC016
:103700008091BC038260C330DC4509F498C080918D
:10371000BC039091BD030E94D5270E94802180E0C8
:10372000DF91CF9108958091BC038061C630ECE5B4
:10373000DE0709F484C08091BC038860C730DC4593
:1037400008F47DC08091BC03806279C0CC308CE5E8
:10375000D80709F489C070F48091BC038C60CA302A
:10376000ECE5DE0709F46BC008F478C08091BC0377
:103770008E7F65C0CE308CE5D80709F479C0809182
:10378000BC038B7FCF30DC4508F459C08091BC036B
:103790008F7E55C0CB3FECE5DE0709F457C030F50E
:1037A000C3318CE5D80709F46FC078F4C131ECE57A
:1037B000DE0709F465C0C231DC4509F0A8CF0E94DC
:1037C00080218091BC038F773AC0C5318CE5D80742
:1037D00009F462C008F476C08091BD038160CA3FDD
:1037E000DC4509F094CF8093BD0391CFCF3FFCE53A
:1037F000DF0709F44DC088F48091BD038D7FCD3F74
:103800009CE5D90781F38091BD038E7FCE3FDC45D7
:1038100050F38091BD038360E6CFC130FDE5DF0743
:1038200009F459C008F444C080E0C230DD4509F015
:103830006ECF0E945C286BCF8091BC038160809327
:10384000BC0365CF8091BC038460F9CF8091BD0338
:103850008260C9CF8091BC038064F1CF0E94802137
:103860008091BC038068EBCF8091BC038D7FE7CF54
:103870008091BC03877FE3CF8091BC038F7DDFCF36
:103880008091BC038F7BDBCF8091BC03837FD7CF3C
:103890008091BD038C7FA7CF8091BC0382FB9927C9
:1038A00090F921E0922790FB82F990FB83F9C7CF32
:1038B0008091BD03982F909591708E7F892B90FBFE
:1038C00081F991CF0E9480219091BC03892F97FBB1
:1038D00087F98058B4CF81E0ACCF81E021CFCF937E
:1038E000DF93EB0186319C4511F50E94FF269A81FA
:1038F000992399F08A7A91E009F490E0909352022A
:10390000811109C089E20E94DA260E944B2780E0DB
:10391000DF91CF91089585E3F6CF80915202811116
:1039200004C089E20E94E126F0CF85E3FBCF81E06D
:10393000EFCF90935802809357020895E091570279
:10394000F0915802309721F00190F081E02D099418
:1039500080E00895E0915702F0915802309799F075
:1039600020912A01222359F02091BC0327FF07C090
:10397000DC012C9111962C93119725E02C93028059
:10398000F381E02D09940895E0915702F0915802D7
:10399000309739F022E0DC012C930480F581E02D92
:1039A000099408952091550230915602281739073D
:1039B00071F09093560280935502E0915702F09176
:1039C0005802309721F00680F781E02D0994089580
:1039D00020915302309154022817390771F09093C7
:1039E000540280935302E0915702F09158023097AD
:1039F00021F00084F185E02D0994089585B7806851
:103A000085BF85B7806885BF0895089508950C9493
:103A1000051D08950C94091D0E94FE1C0E94061DA0
:103A20000C94071D81E008950C94121D0E949E299C
:103A30000E94120D0E9462170E942F2A0E94851573
:103A40000E940B140C940A1D7F928F929F92AF924A
:103A5000BF92CF92DF92EF92FF920F931F93CF937B
:103A6000DF93CDB7DEB72A970FB6F894DEBF0FBE4F
:103A7000CDBF0E945A0D0E94141D882309F475C001
:103A80004AE5A42E42E0B42E10E000E0702E802F14
:103A90000E94040D6C01F501819091905F018816E0
:103AA000990609F45CC08091170381FD0E940D0DF9
:103AB00080E0EE24E394F12C8C249D2494012E21AB
:103AC0003F21232B09F445C08E837F82CE20DF2047
:103AD00081E0CD2809F480E088870E94A7298160D1
:103AE000782F9A8789874E815F8168858A850E94B1
:103AF000DA1D000F111FF801E65AFD4F80819181F8
:103B0000E826F926F182E0820E9446140E94E1161E
:103B10000E94BC2B0E949E1C909159028917B1F102
:103B20000E949E1C809359022A960FB6F894DEBF1D
:103B30000FBECDBFDF91CF911F910F91FF90EF90FE
:103B4000DF90CF90BF90AF909F908F907F900C941C
:103B5000A20A8F5FEE0CFF1C893009F0AFCF0F5F18
:103B60001F4F0B30110509F091CF8FEF89838A83A6
:103B70001B820E94A7298160782F9D838C834981B5
:103B80005A816B818D810E94DA1DBECF2A960FB6B5
:103B9000F894DEBF0FBECDBFDF91CF911F910F9183
:103BA000FF90EF90DF90CF90BF90AF909F908F905D
:103BB0007F900895CF93DF93CDB7DEB72B970FB6E5
:103BC000F894DEBF0FBECDBF4F83588769877A87D1
:103BD0008B871E821D8285E0FE013796DE011196DD
:103BE00001900D928A95E1F749815A816B817C8120
:103BF0008D819E812B960FB6F894DEBF0FBECDBF90
:103C0000DF91CF910C94F623FC01808191810C947B
:103C1000AC26CF93C82F882309F48BC08238C1F417
:103C20000E949E1C81FD85C089E30E94DA260E94C5
:103C30004B272FEF81EE94E0215080409040E1F738
:103C400000C0000089E30E94E126CF910C944B272D
:103C50008338A1F40E949E1C80FD6BC083E50E9406
:103C6000DA260E944B272FEF81EE94E0215080400E
:103C70009040E1F700C0000083E5E5CF8438A1F46F
:103C80000E949E1C82FD55C087E40E94DA260E9495
:103C90004B272FEF81EE94E0215080409040E1F7D8
:103CA00000C0000087E4CFCF8CEF8C0F813A90F4F6
:103CB0006C2F80911601909117010E94752888231E
:103CC00029F08C2F0E94E1260E944B278C2F0E9406
:103CD000DA26BBCF80E28C0F883048F4C77081E0D1
:103CE00001C0880FCA95EAF70E940227AECFEBE524
:103CF000EC0FE33040F4F0E0E753FE4F808190E0BA
:103D0000CF910C94D21CE8E5EC0FE73150F4F0E0D1
:103D1000EE0FFF1FE556FE4F80819181CF910C94ED
:103D2000E81CC03F30F08C2F0E94CA2ACF910C941F
:103D3000B12BCF910895882309F452C0823871F4D1
:103D40000E949E1C81FF4CC089E30E94DA260E94DB
:103D50004B2789E30E94E1260C944B27833859F4C2
:103D60000E949E1C80FF3CC083E50E94DA260E94D0
:103D70004B2783E5EFCF843859F40E949E1C82FFC5
:103D80002FC087E40E94DA260E944B2787E4E2CF07
:103D90009CEF980F913AF0F290E2980F983050F41F
:103DA000877091E001C0990F8A95EAF7892F0E94E8
:103DB0000827D2CF9BE5980F933020F490E080E065
:103DC0000C94D21C98E5980F973120F490E080E095
:103DD0000C94E81C803F20F00E94322B0C94B12BF5
:103DE0000895CF93C82F0E94091EC93349F42FEFBD
:103DF00087EE93E0215080409040E1F700C0000042
:103E00008C2FCF910C949B1E882321F00E940227B7
:103E10000C944B270895882321F00E9408270C94C6
:103E20004B270895BF92CF92DF92EF92FF920F93AC
:103E30001F93CF93DF936C01D62FC72FFC01058111
:103E400002950F70128111110E941F270E94F826FF
:103E5000E82E882391F01123D1F08C2F807F8034BD
:103E600021F080E28D0F883090F082E00E9496274A
:103E70000E94F82691E0E82EE926BC2EB2949FE03D
:103E8000B922EB2DF0E0EA5EF94C0C94EE34E12C13
:103E9000F4CF0C2F0F70C07F11F00295007F11231B
:103EA000A9F0002359F080E28D0F883010F0D11175
:103EB00009C0802F0E9402270E944B278D2F0E944D
:103EC000091E14C0802F0E941227F6CF8D2F0E944A
:103ED0009B1E002359F080E28D0F883010F0D11125
:103EE0002CC0802F0E9408270E944B272B2D285082
:103EF000330B2430310520F40E949E1C0E94A20A3C
:103F0000EE2009F49EC10E94F42680FD9AC1F601BC
:103F100012820E94EE260E947A25C6010E9442214A
:103F20000E94EE26DF91CF911F910F91FF90EF90AD
:103F3000DF90CF90BF900C949B25802F0E94182774
:103F4000D3CFFC2FFF70FF2EC07FC03219F0F29448
:103F500080EFF822DD2369F0D13049F1112391F18E
:103F6000002351F1F601858180FFA8CF8F708583F2
:103F700023C0112381F0011106C00E9432278F292E
:103F80000E94041FB3CF0130C1F70E9432278F294E
:103F90000E943827ABCF011106C00E9441278F2D08
:103FA0000E940B1FA3CF013009F4A0CFF6CF11233D
:103FB00029F0063008F09ACF8F2DE2CF053008F0B7
:103FC00095CFEDCF002359F3D93349F4FFEF27EE16
:103FD00033E0F15020403040E1F700C000008D2F69
:103FE0000E949B1E83CF8C2F86958695837069F0E7
:103FF000813009F07BCF8D2F9C2F9370111102C05F
:1040000090E080E00E94E81C71CF8D2F9C2F937070
:10401000111102C090E080E00E94D21C67CF8D2F6A
:10402000112329F00E94CA2A0E94B12B5FCF0E945F
:10403000322BFACF8C2F837009F041C0111156CF6B
:104040004D2F429546954770440F440F0D2F0F702A
:1040500010E030E020E0042E04C0000F111F221FEA
:10406000331F0A94D2F760E070E0CB01D4FF0FC099
:104070006FE070E080E090E004C0660F771F881F5B
:10408000991F4A95D2F76095709580959095C69541
:10409000C695C370602B712B822B932BC23049F0D5
:1040A00058F4C13019F00E942C2520CF0E941A2507
:1040B0001DCF0E943E251ACF0E94182517CF869546
:1040C000112311F08C2F8170882309F40FCF4D2F0D
:1040D000429546954770440F440F0D2F0F7010E026
:1040E00030E020E0042E04C0000F111F221F331FF8
:1040F0000A94D2F760E070E0CB01D4FF0FC06FE00C
:1041000070E080E090E004C0660F771F881F991F61
:104110004A95D2F76095709580959095C695C6950D
:10412000C370602B712B822B932BC23049F058F453
:10413000C13019F00E94F125D9CE0E94DF25D6CEDC
:104140000E940326D3CE0E945425D0CECF701123D7
:1041500029F08C2F0E947A258D2F12CF8D2F0E944F
:104160000B1F8C2F0E949B25C1CED23F89F160F49A
:10417000D03FC9F0D13F29F1112309F442C0011108
:104180009DCE8C2F8F7121C0D33F39F1D43FA1F741
:10419000112369F1CF718C2F0E947A2563E08C2F57
:1041A0000E948127A3CE112341F0053008F09ECE56
:1041B0008C2F8F710E94BE2599CE063008F096CEC6
:1041C000F7CF8C2F8F71112369F20E947A258ECE42
:1041D0008C2F8F711123C9F3C5CF112329F08C2F98
:1041E0008F710E94652582CE0E9460257FCE81E07E
:1041F0000E949627023008F479CE82E00E9496272A
:1042000075CE002359F0D93309F0E9CE8FEF97EE40
:10421000E3E081509040E040E1F7DFCE8C2F8F71DA
:10422000A1CF4C2F4F706D2FC6010E9408090E942C
:1042300090245CCE4C2F4F706D2FC6010E94080B4E
:1042400055CEDF91CF911F910F91FF90EF90DF90AE
:10425000CF90BF9008950F931F93CF93DF93EC01FE
:10426000688179818A810E94B6268C010E94152678
:104270000E941725B801CE01DF91CF911F910F91B8
:104280000C94121FCF93DF93EC018B819C81892BBF
:1042900029F08881998189238F3F59F4DF91CF914B
:1042A0000895CE010E942B21CE01DF91CF910C9475
:1042B0006809CE010E94BA0A8111F3CF0E94F82644
:1042C000882361F38A81882349F382E0DF91CF91CB
:1042D0000C9496270E941F270E942F270E944B278D
:1042E0000E94D62C0E94B12B90E080E00E94D21C4C
:1042F00090E080E00C94E81C0E94E8260C946A216F
:104300000E940F270C947C21E92FE295EF70E25078
:10431000EE3070F4F0E0EA5DF94C0C94EE34803F3E
:1043200019F020F4883E20F481E00895843FE1F301
:1043300080E00895883EC0F3813FD1F7F5CF93FB2D
:10434000882780F908950E94AC260C948421CF938D
:10435000DF9300D000D00F92CDB7DEB70F900F9053
:104360000F900F900F90DF91CF910895CF93DF932F
:1043700000D000D000D0CDB7DEB726960FB6F894A7
:10438000DEBF0FBECDBFDF91CF9108951F93CF93B6
:10439000DF93C091710216E0809172028C1304C009
:1043A000DF91CF911F910895D0E01C9FF0011D9FD8
:1043B000F00D1124ED58FD4F4081518162817381D0
:1043C000848195810E94B6212196C770E5CF4091E6
:1043D000A3025091A4026091A5027091A60280915F
:1043E000A7029091A8020C94B6211F93CF93DF935C
:1043F0008091A802807FA9F48091A502882389F08A
:1044000080917102C09172026091A3027091A40226
:10441000A091A602B091A702D62FD72316E0C81309
:1044200004C0DF91CF911F91089590E0109711F093
:10443000DF3F19F401968770F2CF189F9001199F02
:10444000300D1124F901ED58FD4F41814713F2CF92
:1044500040814613EFCF42814111ECCF438154811B
:104460004A1B5B0B483C510528F78091A8028F70CE
:1044700080618093A802F901E858FD4F80818F7018
:104480008061808383EA92E00E944221DF91CF9194
:104490001F910C94C621AF92BF92CF92DF92EF9200
:1044A000FF920F931F93CF93DF93CDB7DEB7619742
:1044B0000FB6F894DEBF0FBECDBF8C0185E0F801CA
:1044C000DE011D9601900D928A95E1F7F801408179
:1044D0005181E28083EAC82E82E0D82E6091A60244
:1044E0007091A7026115710509F461C19091A30251
:1044F0002091A402892F82238F3F09F458C1A38001
:10450000B480F090A502F501E61BF70BFF2009F43B
:10451000FCC08091A802382F307FE83CF10508F0FC
:10452000B2C0311179C0FE2C251323C0941321C0D1
:10453000E1101FC08F7080618093A8020E94E72164
:10454000C6010E9442218091A802F80185838F2D27
:1045500061960FB6F894DEBF0FBECDBFDF91CF914D
:104560001F910F91FF90EF90DF90CF90BF90AF9091
:104570000895AB2829F0842F85238F3F09F033C19C
:1045800080E0F82FF170DF2E80FF3CC08091710237
:104590002091720236E0821315C04D875E878D85AB
:1045A0009E850E94AC26292F22952F702230F0F094
:1045B000243018F59F70F1F0F8019581907FD1F4C7
:1045C000D12C1EC090E0389FF001399FF00D1124CE
:1045D000ED58FD4F6181651306C06081641303C00F
:1045E00062816E110FC001968770D5CF9F7011F058
:1045F000882331F3805E883018F3C8010E9442217D
:10460000FD2CA5CFEE2009F4A2CF8091A8028160F5
:104610008093A802F12C9BCF251306C0941304C0ED
:10462000F801EE2009F48DC04D875E878D859E854B
:104630000E94A321882319F1EE2009F18091A8029C
:10464000803270F02091A3023091A40238872F832A
:104650001986BB86AA868C87CE0107960E944221C6
:1046600086E0F801A3EAB2E001900D928A95E1F7A5
:104670000E94F5210E94E721FF24F39468CFC8012E
:104680000E944221F9CF311113C07A2DB98AA88A2C
:104690006E2D89890E94A72183EA92E00E9442211F
:1046A00086E0F60111928A95E9F70E94E721B2CFE0
:1046B00025130FC094130DC0E1100BC0F8018583C2
:1046C000C8010E94422186E0F60111928A95E9F71D
:1046D0003ECF4D875E878D859E850E94A3218823CE
:1046E00071F2EE2061F28091A802803208F4B8CF16
:1046F0002091A3023091A4023A8329831B82BD82B8
:10470000AC828E83CE010196A9CFE83CF10508F07A
:1047100041C0FE2CEE2009F4B2CF25132AC0941319
:1047200028C08091A80280FD1BC0982F907FC1F007
:10473000F8018583903F31F0982F907F905F8F70C4
:10474000892B8583C8010E94422186E0F801A3EAF3
:10475000B2E001900D928A95E1F70E94E721F7CE31
:1047600086E0F801A3EAB2E001900D928A95E1F7A4
:10477000EECE4D875E878D859E850E94A321811197
:104780006FCF8091A80281608093A802C8010E9427
:104790004221DDCE7A2DB98AA88A6E2D89890E94A0
:1047A000A72186E0F60111928A95E9F7D6CFEE208F
:1047B00009F465CF4D875E878D859E850E94A32174
:1047C000F82E882309F45BCF86E0F801A3EAB2E073
:1047D00001900D928A95E1F783EA92E00E94041E0F
:1047E0000E94F521BACF81E08E25CBCE1F93CF93C7
:1047F000DF93CDB7DEB72C970FB6F894DEBF0FBEB0
:10480000CDBF4F83588769877A878B879C87CE0176
:1048100007960E944B22882369F08A859B85892B05
:1048200039F04F815885842F85238F3F09F071C05F
:1048300016E05FC086E0FE013796DE01119601901A
:104840000D928A95E1F78A859B85892B89F3888566
:104850009F8189238F3F61F32091720230E0C9016B
:10486000019687709927409171024817190671F4D3
:104870000E948021109272021092710286E0E3EA97
:10488000F2E0DF011D928A95E9F7D2CF96E0929F80
:10489000D001939FB00D1124AD58BD4FFE0131964C
:1048A00001900D929A95E1F7809372020E94C621C1
:1048B000BFCF819FC00111248D589D4F0E944B2274
:1048C0008823E9F0E09171021E9FF0011124ED5858
:1048D000FD4F4081518162817381848195810E9465
:1048E000B6218091710290E001968770992780939C
:1048F000710280917102909172028913DACF2C9625
:104900000FB6F894DEBF0FBECDBFDF91CF911F91E0
:10491000089569857A858B859C850E94B62188CF0C
:10492000EF92FF920F931F93CF93DF938C01892B0C
:1049300081F0F12CEE24E394E8012196F8018491B2
:10494000843770F4843008F05FC08130B1F0823079
:10495000A1F1DF91CF911F910F91FF90EF900895FA
:10496000853709F44CC008F43DC09CE7980F903798
:1049700080F78F770E949B1E49C00E5F1F4FFE017C
:10498000849190E2980F983060F48770FE2D01C0FA
:10499000FF0F8A95EAF78F2F0E9422270E944B274C
:1049A00002C00E94091E8F2D815030F2EFE9FFE016
:1049B0003197F1F700C00000F7CF0E5F1F4FFE01E7
:1049C000849190E2980F983050F48770FE2D01C0CA
:1049D000FF0F8A95EAF78F2F0E942827DFCF0E94CA
:1049E0009B1EE1CF0E5F1F4FFE01C491C150D8F254
:1049F0008FE99FE00197F1F700C00000F7CF0E5F4D
:104A00001F4FFE01F490CFCF0E94091E8E01CBCF25
:104A100008950C9408250E9409256093EE02709376
:104A2000EF028093F0029093F1020C946A210895B2
:104A30000C940B250F931F930091EE021091EF023F
:104A40002091F0023091F102602B712B822B932B7D
:104A50001F910F910C940B250F931F930091EE0261
:104A60001091EF022091F0023091F1026023712346
:104A7000822393231F910F910C940B250F931F9367
:104A80000091EE021091EF022091F0023091F102BC
:104A900060277127822793271F910F910C940B2574
:104AA0000C9408250C9450250E9452256093EA022C
:104AB0007093EB028093EC029093ED020C946A21C8
:104AC00060E070E0CB010C9454250F931F9341E0FC
:104AD00050E060E070E08A019B0104C0000F111FEC
:104AE000221F331F8A95D2F7C901B8011F910F9178
:104AF0000C9454250F931F9341E050E060E070E068
:104B000004C0440F551F661F771F8A95D2F7809106
:104B1000EA029091EB02A091EC02B091ED028A01C1
:104B20009B01082B192B2A2B3B2BC901B8011F9184
:104B30000F910C9454250F931F9341E050E060E0D7
:104B400070E004C0440F551F661F771F8A95D2F787
:104B5000CB01BA0160957095809590950091EA021D
:104B60001091EB022091EC023091ED026023712351
:104B7000822393231F910F910C9454250F931F931D
:104B800041E050E060E070E004C0440F551F661F34
:104B9000771F8A95D2F78091EA029091EB02A0915B
:104BA000EC02B091ED028A019B01082719272A2700
:104BB0003B27C901B8011F910F910C9454250F9305
:104BC0001F930091EA021091EB022091EC023091C8
:104BD000ED02602B712B822B932B1F910F910C9464
:104BE00054250F931F930091EA021091EB0220913C
:104BF000EC023091ED0260237123822393231F91F5
:104C00000F910C9454250F931F930091EA02109179
:104C1000EB022091EC023091ED0260277127822790
:104C200093271F910F910C945425089529E0929F8A
:104C3000800D1124982F977041E001C0440F9A9580
:104C4000EAF786958695869595E0899FF00111246F
:104C5000E755FD4F90E080E070E05191DF01119742
:104C60009B01082E02C0369527950A94E2F7217021
:104C700021952527242325272C93019685309105FE
:104C800061F7089529E0929F800D1124982F977065
:104C900086958695869525E0829FF0011124E7553B
:104CA000FD4F50E040E080E0219130E0092E02C04D
:104CB000369527950A94E2F721703327042E01C018
:104CC000220F0A94EAF7822B4F5F5F4F4530510560
:104CD00059F70895BF92CF92DF92EF92FF920F9310
:104CE0001F93CF93DF938C01C090EA02D090EB0228
:104CF000E090EC02F090ED028091EE029091EF02D4
:104D0000A091F002B091F102C82AD92AEA2AFB2A1E
:104D1000CFE1D0E0BC2ED701C6010C2E04C0B69561
:104D2000A795979587950A94D2F780FD0EC0219795
:104D300088F7B12C8B2DDF91CF911F910F91FF90B0
:104D4000EF90DF90CF90BF900895B8018C2F0E9414
:104D5000110B019761F3EECFCF93DF93EC010E942B
:104D60006A26BE01DF91CF910C94110B1F93CF9354
:104D7000DF93EB0190917002992331F0CB01DF9129
:104D8000CF911F910C94AC26882379F0CB010E941F
:104D90006A26182F682FCE010E941626BE01812F89
:104DA000DF91CF911F910C94110BCB010E944226F1
:104DB000182FF4CF682F80911601909117010C9451
:104DC000F528682F80911601909117010C94002905
:104DD00080911601909117010C940B298091F20299
:104DE00085958595859508958091F202877008953F
:104DF0009091F202977081E009F480E0089580912B
:104E00001603089590911603892B80931603089535
:104E1000809590911603982390931603089510920D
:104E20001603089590911503892B80931503089517
:104E300080959091150398239093150308951092EF
:104E40001503089590911403892B809314030895FA
:104E500080959091140398239093140308951092D1
:104E6000140308958091F302089508950C94352752
:104E70009091F302981721F08093F3020C94362757
:104E800008958091F302882329F01092F30280E0C4
:104E90000C9436270895E0911601F0911701809146
:104EA00016038083E0911601F091170180819091A3
:104EB0001503892B8083E0911601F0911701808101
:104EC00090911403892B80839091F302992381F0B0
:104ED000E0911601F09117018081892B80838091E8
:104EE0001601909117010E94612881110E944127AB
:104EF00080911601909117010C94AA1C08950C94AE
:104F00007E2798E0899F90011124622B6093F20222
:104F10000E947A258091F2028595859585950C945D
:104F20007F271092F20280E00C947F279091F2028A
:104F3000809589238093F202282F277071F4282FFF
:104F4000082E000C330B9217130639F085958595C2
:104F500085950E949B250C94912708956FEF7FEF14
:104F600090E080E00C94B03590E080E00E948C35B9
:104F700021E08C3E9E4F09F020E0822F089582E0D0
:104F800090E00C947E3583E090E00C947E35CF93D6
:104F900084E090E00E947E35C82F81E290E00E947C
:104FA0007E35982F8C2FCF910895CF93C92F682FDE
:104FB00084E090E00E9492356C2F81E290E0CF91E6
:104FC0000C94923586E090E00C947E35682F86E054
:104FD00090E00C949235AB01BC018FE090E00C9412
:104FE000A435AB01BC0183E190E00C94A43560E0F2
:104FF00070E0CB010C94F12760E070E0CB010E94DF
:10500000EB270C94F7276CEE7EEF90E080E00E9497
:10501000B03560E082E090E00E94923560E083E08D
:1050200090E00E9492351092EE021092EF021092E0
:10503000F0021092F10260E084E090E00E9492356C
:1050400060E081E290E00E94923560E085E090E0CF
:105050000E94923560E086E090E00E9492356FEF0A
:1050600087E090E00E94923540E050E0BA0188E08D
:1050700090E00E94A43560E08DE090E00E949235BF
:1050800040E050E0BA0188E190E00E94A43560E081
:1050900087E190E00E94923540E050E0BA018CE157
:1050A00090E00E94A43560E080E290E00E9492359A
:1050B0000C94FC270C940328682F8EE090E00C944D
:1050C0009235FC01329680912A01882321F080914B
:1050D000BC039EE187FF96E080E0915008F40895BC
:1050E00021912223D1F38F5FF8CF662301F1209124
:1050F0002A012223F1F02091BC0327FF1AC0462F7A
:105100004695469546954E3190F4677021E030E023
:1051100002C0220F331F6A95E2F7840F911DFC0134
:10512000828190E02823392381E0232B69F480E0F9
:105130000895FC01329608962191261721F0E81770
:10514000F907D1F7F4CF81E008959C01FC01329674
:105150009FEF80E04191461751F09F3F19F44111B4
:1051600001C0982F8F5F8630A9F79F3F09F40895FB
:10517000290F311D97FD3A95F90162830895FC01CD
:10518000329608962191261303C0DF0111971C92D5
:10519000E817F907B9F70895E62FE695E695E6953D
:1051A000EE3168F4E80FF92FF11D677021E030E06F
:1051B00001C0220F6A95EAF78281822B82830895CB
:1051C000E62FE695E695E695EE3170F4E80FF92FB7
:1051D000F11D677021E030E001C0220F6A95EAF707
:1051E0002095828128232283089520912A01222359
:1051F00029F02091BC0327FD0C94CC280C94A52801
:1052000020912A01222329F02091BC0327FD0C9430
:10521000E0280C94BF28FC01329680912A01882353
:1052200051F08091BC0387FF06C08EE1DF011D9223
:105230008A95E9F7089586E0F9CF089508950C94CA
:105240001E290E941F298091C203843061F11092AF
:10525000180388E190E020E40FB6F894A8958093B5
:1052600060000FBE2093600080E00E94831680E003
:105270000E94A20A0E941F2983B7817F846083BF96
:1052800083B7816083BF7894889583B78E7F83BF0F
:105290000FB6F894A89580916000886180936000B3
:1052A000109260000FBE08950895CF930E941D29AB
:1052B0000E945A0D0E945429C0E08C2F0E94040DB8
:1052C000892B31F4CF5FCB30C1F780E0CF910895C7
:1052D00081E0FCCF08950C946A290E9480210E94ED
:1052E00085150E949E1C0E94A20A0C946B291F9295
:1052F0001FB61F9211248F939F93AF93BF938091FA
:105300001803811113C08091B8039091B903A09143
:10531000BA03B091BB034196A11DB11D8093B803A0
:105320009093B903A093BA03B093BB03BF91AF911D
:105330009F918F911F901FBE1F90189582E084BD92
:1053400093E095BD9AEF97BD80936E0008952FB7B7
:10535000F8948091B8039091B903A091BA03B091E9
:10536000BB032FBF08952FB7F8946091B8037091D5
:10537000B9038091BA039091BB032FBF08959C019C
:105380004FB7F8948091B8039091B903A091BA03F4
:10539000B091BB034FBF821B930B089578941F926B
:1053A0001FB61F9211248F939F93AF93BF93809149
:1053B000B8039091B903A091BA03B091BB030196D1
:1053C000A11DB11D8093B8039093B903A093BA03B4
:1053D000B093BB03BF91AF919F918F911F901FBE60
:1053E0001F90189581E08093E00080E28093D800C0
:1053F0001092C9008FE19EE40197F1F700C0000010
:1054000087E090EBDC018093CB039093CC03A093D7
:10541000CD03B093CE0388E19CE00FB6F894A89535
:10542000809360000FBE90936000FFCF0C944F17E5
:105430000E945A0D2FEF86E791E021508040904066
:10544000E1F700C000000E945A0D80E00E94040DA8
:1054500080FF04C00E94162A0C94F22908950E942D
:10546000B427811102C00E945A280E94BF2780934E
:1054700017030E94C7279093BD038093BC030E942B
:10548000C327682F70E090E080E00C94182580918D
:10549000200380FF12C060911D0185E0689FB0016C
:1054A0001124759567957595679560387105A8F510
:1054B00061157105A1F1862F089581FF09C06091E2
:1054C0001D0185E0689FB001112475956795EDCFAA
:1054D00060911D0182FD0AC080911F038823D1F0D5
:1054E00090911C0160911D01891728F085E0689F4B
:1054F000B0011124DACF869FB001112485E0869F88
:105500009001879F300D1124692F70E0C9010E941E
:10551000B834CBCF65E070E0CECF8FE7089581E05F
:1055200008958091200380FF0CC06091190170E004
:1055300075956795759567956115710549F1862F84
:10554000089581FF06C06091190170E07595679517
:10555000F3CF6091190182FD0BC090911F03992335
:10556000A1F06091180180911901961738F0682F09
:1055700070E06038710500F38FE70895899FC001DE
:10558000112470E00E94B834F4CF61E070E0D7CF0E
:1055900081E00895803F31F40E94472A81958093ED
:1055A00024030895813F19F40E94472AF8CF823FCF
:1055B00031F40E94472A8195809323030895833F05
:1055C00019F40E94472AF8CF893F29F40E94912AB2
:1055D0008093250308958A3F21F40E94912A8195A2
:1055E000F7CF8B3F31F40E94912A81958093260357
:1055F00008958C3F19F40E94912AF8CF843F31F42A
:10560000809122038160809322030895853F21F4D5
:10561000809122038260F7CF863F21F4809122039C
:105620008460F1CF873F21F4809122038860EBCF23
:10563000883F21F4809122038061E5CF8D3F31F4D2
:105640008091200381608093200308958E3F21F490
:10565000809120038260F7CF8F3FB9F780912003BC
:105660008460F1CF90912303803F41F48091240323
:1056700087FD10922403992371F00895813F29F446
:10568000809124031816ACF3F6CF823F81F497FF84
:10569000F2CF109223038091240390912503892B4C
:1056A00090912603892B49F710921F030895833F99
:1056B00019F4191674F3DFCF893F39F4809125036B
:1056C0001816CCF610922503D6CF8A3F29F4809184
:1056D000250387FFD0CFF6CF8B3F39F48091260387
:1056E00087FFC9CF10922603C6CF8C3F29F4809143
:1056F00026031816BCF3BFCF843F31F480912203F8
:105700008E7F80932203B7CF853F21F480912203BF
:105710008D7FF7CF863F21F4809122038B7FF1CFDD
:10572000873F21F480912203877FEBCF883F21F4CC
:10573000809122038F7EE5CF8D3F31F4809120034D
:105740008E7F8093200397CF8E3F21F4809120039A
:105750008D7FF7CF8F3F09F08ECF809120038B7F15
:10576000F0CF81E293E00E94C41C0E94A72990938D
:105770001E0380931D030895CF93DF9300D000D0C4
:1057800000D0CDB7DEB786E0E1E2F3E0DE011196AE
:1057900001900D928A95E1F7809123039091240363
:1057A000892B81F080911B0390911C030E94BF29DB
:1057B000AC0190911F03992331F180911E01841750
:1057C000150670F18091250390912603892B91F0A5
:1057D0008091190390911A030E94BF29AC01909106
:1057E0001F03992309F478C080911A0184171506C4
:1057F00008F480C026960FB6F894DEBF0FBECDBF6A
:10580000DF91CF91089520911F018AE0289F900198
:10581000112424173507B0F69F5F90931F0302C031
:105820009F3FD1F710922503109226038091230306
:10583000181624F40E94472A80932303809123039F
:1058400087FF05C00E94472A81958093230380919A
:105850002403181624F40E94472A8093240380917D
:10586000240387FF05C00E94472A81958093240363
:10587000309123033323A1F020912403222381F0CC
:1058800045EB3403C00111249923F1F090932303D5
:1058900045EB2403900111243323D1F030932403EA
:1058A0000E94B12B80911D0390911E0390931C03C5
:1058B00080931B0386E0FE013196A1E2B3E00190E4
:1058C0000D928A95E1F77ECF81E080932303E0CFAC
:1058D00081E080932403E4CF20911B018AE0289F7C
:1058E000900111242417350708F084CF9F5F90930F
:1058F0001F0302C09F3FD1F710922303109224038D
:1059000080912503181624F40E94912A8093250380
:105910008091250387FF05C00E94912A819580937D
:10592000250380912603181624F40E94912A80935F
:1059300026038091260387FF05C00E94912A819546
:1059400080932603309125033323A1F02091260371
:10595000222381F045EB3403C00111249923F1F097
:105960009093250345EB2403900111243323D1F0B8
:10597000309326030E94B12B80911D0390911E034A
:1059800090931A038093190386E0FE013196A1E2F9
:10599000B3E001900D928A95E1F72CCF81E08093DE
:1059A0002503E0CF81E080932603E4CF86E0E1E2A7
:1059B000F3E0DF011D928A95E9F710921F03109220
:1059C00020030895809147030895CF93DF9300D07B
:1059D0000F92CDB7DEB79091C203943011F5898351
:1059E0007B836A839093E9008FEF9091E800815068
:1059F00095FD06C095ED9A95F1F700008111F5CF60
:105A00008091E80085FF0DC050E040E063E070E069
:105A1000CE0101960E949A2F8091E8008E778093A4
:105A2000E8000F900F900F90DF91CF910895CF93E2
:105A3000DF93EC010E947D2F823011F0843031F42D
:105A4000BE0184E0DF91CF910C94E52CDF91CF91E2
:105A50000895BC0183E00C94E52CCF93DF93EC0117
:105A60000E947D2F823011F08430F9F484E080931D
:105A7000E9008FEF9091E800815095FD06C095ED0B
:105A80009A95F1F700008111F5CF8091E80085FF2C
:105A90000CC050E040E066E070E0CE010E949A2F1A
:105AA0008091E8008E778093E800DF91CF91089590
:105AB000CF93DF93EC010E947D2F823011F0843070
:105AC000B9F580912A018823B1F18091BC0387FF49
:105AD00032C060E284E08093E9008FEF9091E800AB
