:100000000C9444080C948B080C948B080C948B086B
:100010000C948B080C948B080C948B080C948B0814
:100020000C948B080C948B080C9460310C94343233
:100030000C94E3280C948B080C948B080C948B087C
:100040000C948B080C948B080C948B080C948B08E4
:100050000C948B080C943A290C948B080C948B0804
:100060000C948B080C948B080C948B080C948B08C4
:100070000C948B080C948B080C948B080C948B08B4
:100080000C948B080C948B080C948B080C948B08A4
:100090000C948B080C948B080C948B080C948B0894
:1000A0000C948B080C948B080C948B0829003A0054
:1000B0003B003C003D003E003F004000410042004C
:1000C00043004400450035001E001F0020002100B1
:1000D0002200230024002500260027002D002E00EA
:1000E0002B0014001A000800150017001C0018004F
:1000F0000C00120013002F0030003900040016001D
:10010000070009000A000B000D000E000F0033006D
:1001100034002800E1001D001B0006001900050046
:1001200011001000360037003800E5003100E00013
:10013000E300E2002C00E6000151E700E400520079
:1001400051002A0000000000460047004800490016
:100150004C004A004D004B004E00015150004F0032
:100160000000010001000100010001000100010088
:100170000100010001000100010001000100010077
:100180000100010001000100010001000100010067
:10019000010001000100BF5CBD5CBE5CC05C0100F1
:1001A0000100010001000100010001000100010047
:1001B000C25CC35CC55CC65CC75CC85CC95CCA5C2D
:1001C0000100010001000100010001000100010027
:1001D0000100010001000100010001000100010017
:1001E0000100010001000100010001000100010007
:1001F00001000100C95CCA5C0100000000000100B0
:100200000100005C0100A8000100AE000100AD008B
:100210000100C35CC85C0000010001000100010096
:1002200001000100010001000100010001000100C6
:1002300001000100010001000100010001000100B6
:1002400001000100010001000100010001000100A6
:100250000100010001000100010001000100010096
:100260000100010001000100010001000100010086
:100270000100010001000100010001000100010076
:100280000100010001000100010001000100010066
:100290000100010001000100010001000100010056
:1002A0000100010001000100010001000100010046
:1002B0000000000001000100010001000100010038
:1002C0000100010001000100010001000000010027
:1002D0000100010001000100010001000100010016
:1002E0000100010001000100010001000100010006
:1002F00001000100010001000100010001000100F6
:1003000001000100010001000100010001000100E5
:1003100001000100010001000100010001000100D5
:1003200001000100010001000100010001000100C5
:1003300001000100010001000100010001000100B5
:1003400001000100010001000100010001000100A5
:100350000100010001000100010001000100010095
:100360000100010001000000000001000100010087
:100370000100010001000100010001000100010075
:100380000100000001000100010001000100010066
:100390000100010001000100010001000100010055
:1003A0000100010001000100010001000100010045
:1003B0000100010001000100010001000100010035
:1003C0000100010001000100010001000100010025
:1003D0000100010001000100010001000100010015
:1003E0000100010001000100010001000100010005
:1003F00001000100010001000100010001000100F5
:1004000001000100010001000100010001000100E4
:1004100001000100010001000100010000000000D6
:1004200001000100010001000100010001000100C4
:1004300001000100010001000000010001000100B5
:1004400001000100010001000100010001000100A4
:100450000100010001000100010001000100010094
:100460000100010001000100010001000100010084
:100470000100010001000100010001000100010074
:100480000100010001000100010001000100010064
:100490000100010001000100010001000100010054
:1004A0000100010001000100010001000100010044
:1004B0000100010001000100010001000100010034
:1004C0000100010001000100010001000100010024
:1004D0000100000000000100010001000100010016
:1004E0000100010001000100010001000100000005
:1004F00001000100010001000100010001000100F4
:1005000001000100010001000100010001000100E3
:1005100001000100010001000100010001000100D3
:1005200001000100010001000100010001000100C3
:1005300001000100010001000100010001000100B3
:1005400001000100010001000100010001000100A3
:100550000100010001000100010001000100010093
:100560000100010001000100010001000100010083
:100570000100010001000100010001000100010073
:100580000100010001000100000000000100010065
:100590000100010001000100010001000100010053
:1005A0000100010000000100010001000100010044
:1005B0000100010001000100010001000100010033
:1005C0000100010001000100010001000100010023
:1005D0000100010001000100010001000100010013
:1005E0000100010001000100010001000100010003
:1005F00001000100010001000100010001000100F3
:1006000001000100010001000100010001000100E2
:1006100001000100010001000100010001000100D2
:1006200001000100010001000100010001000100C2
:1006300001000100010001000100010001000000B3
:1006400000000100010001000100010001000100A3
:100650000100010001000100010000000100010093
:100660000100010001000100010001000100010082
:100670000100010001000100010001000100010072
:100680000100010001000100010001000100010062
:100690000100010001000100010001000100010052
:1006A0000100010001000100010001000100010042
:1006B0000100010001000100010001000100010032
:1006C0000100010001000100010001000100010022
:1006D0000100010001000100010001000100010012
:1006E0000100010001000100010001000100010002
:1006F00001000100000000000100010001000100F4
:1007000001000100010001000100010001000100E1
:1007100000000100010001000100010001000100D2
:1007200001000100010001000100010001000100C1
:1007300001000100010001000100010001000100B1
:1007400001000100010001000100010001000100A1
:100750000100010001000100010001000100010091
:100760000100010001000100010001000100010081
:100770000100010001000100010001000100010071
:100780000100010001000100010001000100010061
:100790000100010001000100010001000100010051
:1007A0000100010001000100010000000000010043
:1007B0000100010001000100010001000100010031
:1007C0000100010001000000010001000100010022
:1007D0000100010001000100010001000100010011
:1007E0000100010001000100010001000100010001
:1007F00001000100010001000100010001000100F1
:1008000001000100010001000100010001000100E0
:1008100001000100010001000100010001000100D0
:1008200001000100010001000100010001000100C0
:1008300001000100010001000100010001000100B0
:1008400001000100010001000100010001000100A0
:100850000100010001000100010001000100010090
:100860000000000001000100010001000100010082
:100870000100010001000100010001000000010071
:100880000100010001000100010001000100010060
:100890000100010001000100010001000100010050
:1008A0000100010001000100010001000100010040
:1008B0000100010001000100010001000100010030
:1008C0000100010001000100010001000100010020
:1008D0000100010001000100010001000100010010
:1008E0000100010001000100010001000100010000
:1008F00001000100010001000100010001000100F0
:1009000001000100010001000100010001000100DF
:1009100001000100010000000000010001000100D1
:1009200001000100010001000100010001000100BF
:1009300001000000010001000100010001000100B0
:10094000010001000100010001000100010001009F
:10095000010001000100010001000100010001008F
:10096000010001000100010001000100010001007F
:10097000010001000100010001000100010001006F
:10098000010001000100010001000100010001005F
:10099000010001000100010001000100010001004F
:1009A000010001000100010001000100010001003F
:1009B000010001000100010001000100010001002F
:1009C0000100010001000100010001000000000021
:1009D000010001000100010001000100010001000F
:1009E0000100010001000100000001000100010000
:1009F00001000100010001000100010001000100EF
:100A000001000100010001000100010001000100DE
:100A100001000100010001000100010001000100CE
:100A200001000100010001000100010001000100BE
:100A300001000100010001000100010001000100AE
:100A4000010001000100010001000100010001009E
:100A5000010001000100010001000100010001008E
:100A6000010001000100010001000100010001007E
:100A7000010001000100010001000100010001006E
:100A80000100000000000100010001000100010060
:100A9000010001000100010001000100010000004F
:100AA000010001000100010001000100010001003E
:100AB000010001000100010001000100010001002E
:100AC000010001000100010001000100010001001E
:100AD000010001000100010001000100010001000E
:100AE00001000100010001000100010001000100FE
:100AF00001000100010001000100010001000100EE
:100B000001000100010001000100010001000100DD
:100B100001000100010001000100010001000100CD
:100B200001000100010001000100010001000100BD
:100B300001000100010001000000000001000100AF
:100B4000010001000100010001000100010001009D
:100B5000010001000000010001000100010001008E
:100B6000010001000100010001000100010001007D
:100B7000010001000100010001000100010001006D
:100B8000010001000100010001000100010001005D
:100B9000010001000100010001000100010001004D
:100BA000010001000100010001000100010001003D
:100BB000010001000100010001000100010001002D
:100BC000010001000100010001000100010001001D
:100BD000010001000100010001000100010001000D
:100BE00001000100010001000100010001000000FE
:100BF00000000100010001000100010001000100EE
:100C000001000100010001000100000000000000DF
:100C1000000000002A2B2800000000000000000057
:100C20000000000000000029000000002C1E3420FD
:100C3000212224342627252E362D3738271E1F2023
:100C40002122232425263333362E37381F04050668
:100C50000708090A0B0C0D0E0F10111213141516AC
:100C60001718191A1B1C1D2F3130232D35040506AA
:100C70000708090A0B0C0D0E0F101112131415168C
:100C80001718191A1B1C1D2F3130354C000000009D
:100C90000000000000000000000000000000000054
:100CA0007E0F00D4FFFFFFC70000007832190A0052
:100CB000047F3F1F643214643214783C1E1E140AF1
:100CC000052223252628292A2C2D2F30323335368C
:100CD000383A3B3D3E4042434547494A4C4E5051CD
:100CE000535557595A5C5E6062646668696B6D6FF4
:100CF00071737577797B7D7F81838587898A8C8EF7
:100D000090929496989A9C9E9FA1A3A5A7A8AAACFE
:100D1000AEAFB1B3B4B6B8B9BBBCBEBFC1C2C3C538
:100D2000C6C7C9CACBCCCDCED0D1D2D2D3D4D5D6DA
:100D3000D7D7D8D9D9DADADBDBDBDCDCDCDCDCDD0D
:100D4000DDDDDDDCDCDCDCDCDBDBDBDADAD9D9D8F1
:100D5000D7D7D6D5D4D3D2D2D1D0CECDCCCBCAC989
:100D6000C7C6C5C3C2C1BFBEBCBBB9B8B6B4B3B1B8
:100D7000AFAEACAAA8A7A5A3A19F9E9C9A98969453
:100D800092908E8C8A89878583817F7D7B79777528
:100D900073716F6D6B6968666462605E5C5A595707
:100DA000555351504E4C4A4947454342403E3D3BC6
:100DB0003A3836353332302F2D2C2A292826252350
:100DC00022FFAA7F5540000101010101010101013B
:100DD00002020202020202020203030303030303EC
:100DE00003040404040404040505050505060606B9
:100DF0000606070707070708080808090909090A76
:100E00000A0A0B0B0B0C0C0C0D0D0D0E0E0E0F0F1A
:100E10000F101011111112121313141415151616A8
:100E20001717181819191A1A1B1B1C1D1D1E1E1F17
:100E30002020212222232424252626272829292A66
:100E40002B2C2D2D2E2F303132323334353637388E
:100E5000393A3B3C3D3E3F4041424344454647488A
:100E6000494A4C4D4E4F50515354555658595A5B60
:100E70005D5E5F616264656668696B6C6D6F707200
:100E8000737577787A7B7D7E8082838587888A8C6C
:100E90008E8F91939596989A9C9EA0A2A3A5A7A9A0
:100EA000ABADAFB1B3B5B7BABCBEC0C2C4C6C9CB97
:100EB000CDCFD1D4D6D8DBDDDFE2E4E7E9EBEEF04D
:100EC000F3F5F8FAFDFF04033000000012036B0095
:100ED0006500790062006F0061007200640000002C
:100EE000160371006D006B006200750069006C00F4
:100EF00064006500720000000403090409025B003D
:100F0000030100A0FA090400000103010100092106
:100F1000110100012240000705810308000A0904AD
:100F2000010002030000000921110100012222003A
:100F300007058203200001070503032000010904BF
:100F40000200010300000009211101000122BC0080
:100F50000705840320000A1201100100000008EDBB
:100F6000FE60600100010203010660FF0961A1014A
:100F70000962150026FF0095207508810209631596
:100F80000026FF00952075089102C005010902A105
:100F90000185020901A1000509190129051500258E
:100FA000019505750181029501750381010501090E
:100FB0003009311581257F9502750881060938159C
:100FC00081257F950175088106050C0A3802158177
:100FD000257F950175088106C0C005010980A10122
:100FE000850319012AB700150126B7009501751070
:100FF0008100C0050C0901A101850419012AA00284
:10100000150126A002950175108100C00501090691
:10101000A1018505050719E029E7150025019508B7
:10102000750181020507190029EF1500250195F0CA
:1010300075018102050819012905950575019102BF
:10104000950175039101C005010906A10105071964
:10105000E029E715002501950875018102950175C4
:101060000881010507190029FF150026FF009506D4
:10107000750881000508190129059505750191027A
:10108000950175039101C00011241FBECFEFDAE076
:10109000DEBFCDBF04B603FE27C08091EE03909162
:1010A000EF03A091F003B091F1038730904BA7407C
:1010B000B04BD1F41092EE031092EF031092F003B4
:1010C0001092F10314BE84B7877F84BF0FB6F894E3
:1010D000A895809160008861809360001092600004
:1010E0000FBEE0E0F8E3099511E0A0E0B1E0E4E52F
:1010F000FBE602C005900D92AC3DB107D9F723E0A5
:10110000ACEDB1E001C01D92AE3EB207E1F70E9426
:10111000162E0C9459350C94000090E080E0089550
:101120000895089581E0089580FF0BC06E9A769827
:1011300081FF09C03E9A469882FF07C03F9A4798B0
:1011400008956E98F4CF3E98F6CF3F98F8CF81E09F
:1011500008950C94920808950C94AB081F93CF93B4
:10116000DF9300D000D00F92CDB7DEB749835A830A
:101170006B833091900289819A8131111DC0662361
:10118000B9F02223A9F00E94D625182F682F898153
:101190009A810E94822569817A81812F0F900F9018
:1011A0000F900F900F90DF91CF911F910C943F19EA
:1011B0000E94AE25182FEFCF0E94D62569817A8133
:1011C000EDCFFC01262F40815181628173818481A2
:1011D0000C94AE08CF93DF93EC0160E00E94E1082D
:1011E000BE01DF91CF910C94AC08FF920F931F9337
:1011F000CF93DF93E82FF0E0E45FF34FF490C82F34
:10120000C695C695C695D0E0FE01E456F34F04910D
:10121000877010E0082E02C0159507950A94E2F732
:1012200001701127C457D34FFE01C491D0E002C012
:10123000D595C7958A95E2F7C170DD27011511058F
:1012400019F081EE0E94751D209719F086EE0E941C
:10125000751D8F2D0E945D1ECD2B19F086EE0E940C
:10126000071E012B41F081EEDF91CF911F910F916D
:10127000FF900C94071EDF91CF911F910F91FF906B
:101280000895EF92FF920F931F93CF93DF93EC019A
:10129000162F0AE08881882309F454C0813009F0B0
:1012A0004EC08981813099F47E0122E0E20EF11C6A
:1012B0008A810E945D1EE7012196812F815050F3A3
:1012C000EFE9FFE03197F1F700C00000F7CF82307F
:1012D00041F47E0182E0E80EF11C8A810E94751DB6
:1012E000EACF833041F47E01E2E0EE0EF11C8A8108
:1012F0000E94071EE0CF843011F02196DDCF2A81B5
:10130000229690E080E0AE014F5F5F4F2053330B99
:101310002A30310548F0019778F2EFE9FFE0319784
:10132000F1F700C00000F7CF089FB001099F700DD2
:101330001124C901860F971F2981EA01E4CF0E9479
:10134000F508BACFDF91CF911F910F91FF90EF90E9
:10135000089560E00C9441098F929F92AF92BF92E2
:10136000CF92DF92EF92FF920F931F936B017C015C
:1013700081E090E0A0E0B0E04C015D0104C0880C89
:10138000991CAA1CBB1C4A95D2F7B501A4014C01BB
:101390005D0104C0880C991CAA1CBB1C2A95D2F7BD
:1013A000482959296A297B2904C0880F991FAA1F37
:1013B000BB1F0A95D2F78A019B010C211D212E210A
:1013C0003F21041715072607370789F48C299D2923
:1013D000AE29BF29BC01CD011F910F91FF90EF9065
:1013E000DF90CF90BF90AF909F908F9008958095A1
:1013F0009095A095B0958C219D21AE21BF21EACF7B
:101400000F93382F262F609105037091060380916A
:10141000070390910803042F432F0E94AC090F91FA
:101420000C94C0240E9484290E942027811102C0AC
:101430000E94C6270E944C160C94840C0C94860CB7
:101440000C94940881E008950C94220ACF93C82F3D
:101450000E94200A8C2FCF910C94240A08950E9498
:10146000EC200E942E0A2FEF84E39CE02150804064
:101470009040E1F700C000000C945E290F931F9389
:10148000CF93DF93EC0161E00E94E1088C01BE0183
:101490000E94DF168823B9F1BE01C8010E94A90885
:1014A000882389F1BE01C8010E94B815882359F12B
:1014B000BE01C8010E94771A882329F1BE01C80124
:1014C0000E94B81A8823F9F0BE01C8010E94DB1BF4
:1014D0008823C9F0BE01C8010E947514882399F0C1
:1014E0008A81882339F001158CE5180751F00E3DEB
:1014F0001C4579F0CE01DF91CF911F910F910C9493
:10150000A7080E942F0A80E0DF91CF911F910F91D1
:1015100008950E94C627F7CF0895FC01EE0FFF1F24
:10152000E455F34F859194910895CF93DF930E94F2
:101530003F190E94AA0BEC01811520E5920708F0E3
:1015400042C0811530E4930708F0BDC0883E910584
:1015500028F5803E910508F09DC0883A910588F4F1
:10156000853A910508F08FC08130910509F492C049
:10157000009709F48FC0049708F08CC0D0E0C0E059
:1015800089C08F3B910508F489C0805C9109C03CFB
:10159000D105A0F30E948D0AEC017CC08115904218
:1015A00050F4C11581E0D80708F074C0C03FD105E0
:1015B00028F3D0656FC0C11590E3D90708F079C052
:1015C000CE019F70E7CF811525E5920758F581156B
:1015D00034E5930708F0A6C0811542E5940750F45E
:1015E000C11581E5D80708F471C0DC2FCC27C16F85
:1015F000D06A50C0982F969596959E0123703327F8
:10160000C115D34508F07FC0C1E0D0E002C0CC0FC7
:10161000DD1F2A95E2F720E2929FC0011124C82B1A
:10162000D92B6FC0C11589E5D807A8F4C11598E575
:10163000D90708F07CC0C11526E5D20708F09ECF77
:101640008C2F0E94410CC82FD0E0DC2FCC27CC2758
:10165000DF71D0621FC0C1153AE5D30708F46CC032
:10166000CE0190568115904208F088CF8D2F8F7152
:101670000E94410C90E0982F882788279F719C0139
:101680002C2BE901E6CFC55AD0E0C75ADE4FC881FE
:10169000D0E0D064CE01DF91CF910895C85AD0E058
:1016A000CC0FDD1FC55DDE4F0990D881C02DD464FD
:1016B000F1CFCE019927D3FF03C0EC01D86CEACF5C
:1016C000EC01D06CE7CFDF70D06AE4CFCE01E4E06C
:1016D00096958795EA95E1F783702C2F26952695A8
:1016E000237090E2299F90011124382B8C2F837056
:1016F000C1E0D0E002C0CC0FDD1F8A95E2F7C22B1B
:10170000D32BDC68C7CFC1E0D0E002C0CC0FDD1F17
:101710002A95E2F730E2939FC0011124C82BD92B00
:10172000DA68B8CFD82FCC27C46FD06AB3CFDC2FFC
:10173000CC27C06FD06AAECF8C2F8F700E94410C27
:1017400034E0D695C7953A95E1F7CF709C2FEC0120
:10175000D069A0CF82389105B1F1B0F48133910501
:1017600009F475C048F48932910509F469C08A32D8
:10177000910509F473C008958533910509F459C0A2
:101780008933910501F10895833E9105A9F138F45B
:10179000803E9105F9F0823E910549F10895863E1B
:1017A0009105A9F1873E9105C9F1843E910519F58E
:1017B0002091E00321FF1FC08091DF0384FD14C04E
:1017C00087EE90E008952091DF032370A1F080EE72
:1017D00090E008952091DF0320FD47C03091E003A1
:1017E00030FF09C024FF44C090E080E004C0209195
:1017F000DF0322FDF7CF08952091DF0322FD3BC0D8
:101800003091E00330FDE3CF24FFF5CFEDCF209101
:10181000DF0323FFF0CF24FDE7CFD2CF2091DF03FA
:1018200023FD2CC03091E00331FFEECF84EE90E039
:1018300008952091DF0325FFDECF89E290E008952F
:101840002091DF0325FFD7CF85E390E00895209115
:10185000DF0326FFD0CF8AE290E008952091DF03D6
:1018600026FFC9CF81E390E0089589E390E00895D1
:1018700083EE90E0089582EE90E0089586EE90E089
:1018800008959091DF0392FF06C0282F2871283019
:10189000F9F4877F846093FF06C0282F28712831D0
:1018A000F1F4877E84612091E00320FF06C0382F89
:1018B00038713830D9F4877F816021FF06C0282F26
:1018C00028712831D1F4877E816194FD877E089547
:1018D000282F24712430F9F68B7F8860DCCF282FE5
:1018E0002471243101F78B7E8861DDCF382F31716F
:1018F000313019F78E7F8860E0CF282F2171213198
:1019000021F78E7E8861E1CF0C9490080C949108A9
:10191000E82FF0E0EE0FFF1FED58FC4F8081918122
:101920000895089580EA8A95F1F70895A9E6B1E04F
:1019300061E070E08D91E82FE295EF70F0E041A159
:101940008F709B0101C0220F8A95EAF7922F909524
:10195000942391A382A1822B82A381E0A037B807B0
:1019600049F7ACE5B1E061E070E08D91E82FE295D8
:10197000EF70F0E041A18F709B0101C0220F8A95AA
:10198000EAF7922F9095942391A382A1822B82A3B0
:1019900081E0A936B80749F7E5E6F3E0A3E7B3E04D
:1019A00083E793E0119211921D921D928E179F076B
:1019B000C9F787E00E94650D0C94120A8F929F92DE
:1019C000AF92BF92CF92DF92EF92FF920F931F934D
:1019D000CF93DF9389E6E82E81E0F82E05E613E049
:1019E000912CAA24A394B12CF70181917F01C82FD7
:1019F000C295CF70D0E099A18F70650101C0CC0C69
:101A00008A95EAF7892F8C2989A38AA18C2C809446
:101A100088218AA30E94920CECE5F1E050E040E0BE
:101A200030E020E06191A62FA295AF70B0E09096D3
:101A30008C9190E06F7002C0959587956A95E2F75A
:101A400080FD3EC0C501042E02C0880F991F0A9474
:101A5000E2F7282B392B4F5F5F4F4D30510511F7BF
:101A600089A1882289A28AA1C82ACAA2F8018081F4
:101A700091812817390739F13183208381E0982A31
:101A80000E5F1F4FF0E7EF16F1E0FF0609F0ACCF55
:101A9000292D47E063E773E085E693E00E94660D39
:101AA0000E941E0A892DDF91CF911F910F91FF9007
:101AB000EF90DF90CF90BF90AF909F908F90089560
:101AC00090E080E0C6CF80E0DACF0895FF920F93D8
:101AD0001F93CF93DF93F82E092F162FD72FC42FE4
:101AE000222349F081E08093DE010E941329909324
:101AF000DD018093DC018091DE018823A1F08091DB
:101B0000DC019091DD010E942B29069760F0EF2DFA
:101B1000F02FA12FBD2F90E080E0D0E08C179D0723
:101B200044F01092DE01DF91CF911F910F91FF9051
:101B30000895219131912D933D930196EFCFAF926E
:101B4000BF92CF92DF92FF920F931F93CF93DF93B9
:101B5000362F472FE82FF0E0EA53F24F71110DC0F6
:101B60006491762F862FDF91CF911F910F91FF9077
:101B7000DF90CF90BF90AF900895C72FD0E0249111
:101B8000F22E022F10E056E0659FC0011124EFEF06
:101B9000F0E0BF010E941034832F90E0880F991F5E
:101BA00035E5369FD001379FB00D11248A1B9B0B62
:101BB000982F990F980F6F01CC1ADD0AC09ED001A3
:101BC000C19EB00DD09EB00D11248B2F949FA0010B
:101BD0001124452F55276F01C41AD50AC09EA001B4
:101BE000C19E500DD09E500D11245F01A91AB1085D
:101BF000AC9E6001AD9ED00CBC9ED00C1124CD2CAF
:101C0000DD24EC19FD09E09FE001E19FD00DF09F7C
:101C1000D00D1124ED2F62307105A1F048F461154B
:101C2000710569F06130710589F0EB2F852F07C0D0
:101C30006430710571F088F066307105B1F76E2F70
:101C4000722F91CFE22F2B2F8D2FF9CFE22F252F3F
:101C5000F6CFEB2F822F2D2FF2CF2B2F8F2DE52FAD
:101C6000EECF0895CF93DF93762FE901682F842F6D
:101C70000E949F0D798368838A83DF91CF910895B5
:101C800080918103982F9E7F29F4817082608093D8
:101C9000810308958635E8F381708465F8CF88E084
:101CA00090E00C94F234CF92DF92EF92FF926B01AE
:101CB0007C010E94400EB701A60188E090E0FF90F1
:101CC000EF90DF90CF900C9410356091810370916C
:101CD000820380918303909184030C94530EE1E876
:101CE000F3E083E0808311828FEF82838383148209
:101CF00060817181828193810C94530E8091810364
:101D000080FF02C08695089580E008958091850344
:101D1000833018F48F5F8093850360918103709105
:101D2000820380918303909184030C94530E8091DD
:101D30008503882319F08150809385036091810386
:101D40007091820380918303909184030C94530ECD
:101D500080918503089580938503662351F06091F7
:101D600081037091820380918303909184030C948A
:101D7000530E089560E00C94AB0E80918203089599
:101D800080918303089580918403089570E00C94FA
:101D90005C16609107018091810380FF0AC08091E9
:101DA000060123E0829FC00111248A579C4F0C94A6
:101DB000C60E809108019091090123E0829FF001F5
:101DC0001124EA57FC4F891750F7118210821282B2
:101DD0008F5F3396F8CF9091810390FF14C090915C
:101DE00008012091090133E0939FF0011124EA5783
:101DF000FC4F921710F00C94C90E818360834283CC
:101E00009F5F3396F6CF0895CF93DF9300D00F9264
:101E1000CDB7DEB79091810390FF0AC09E012F5F7E
:101E20003F4F0E94320E4B8169818A810E94EB0EE6
:101E30000F900F900F90DF91CF910895CF93DF9384
:101E4000EC01EC81F0E0EF53F34F4491E1E8F3E073
:101E5000628181810E94040F8C818F5F8C83DF916E
:101E6000CF910895CF93DF93EC01E1E8F3E0438154
:101E700062818C810E94040F8C818F5F8C83DF9143
:101E8000CF9108950F931F93CF93DF9300D00F92BC
:101E9000CDB7DEB78C018091DF0181110AC09E01B0
:101EA0002F5F3F4F4FEF6FEF0E94320E8A8180937A
:101EB000DF01F8016481613069F08091DF0140E069
:101EC000662361F040E0623011F44091DF0180E070
:101ED00060E004C06091DF0140E080E00E94EB0E12
:101EE000F801848190E0019663E070E00E94243460
:101EF00084830F900F900F90DF91CF911F910F91DE
:101F00000895AF92BF92CF92DF92EF92FF920F931C
:101F10001F93CF93DF9300D00F92CDB7DEB7182F6A
:101F2000F62E042FE22E9091810390FF29C0E92F15
:101F3000E695AE2FB0E0A059BE4F8C91809375020C
:101F40009E7F923059F59E012F5F3F4F812F0E9457
:101F5000320E4B8169818A810E94EB0E10938203BD
:101F6000F092830300938403EE2051F0609181038B
:101F70007091820380918303909184030E94530E99
:101F80000F900F900F90DF91CF911F910F91FF90C5
:101F9000EF90DF90CF90BF90AF900895823019F40A
:101FA00000918403DBCF863019F410918203D6CFE1
:101FB0008930D9F3893191F6E9518E2F8170D82E6D
:101FC000E695F0E0EF53F24FA590B490C12CBB24FE
:101FD00060910A01C61618F00E94C90EBFCF2C2DC1
:101FE00030E0A29EC001A39E900DB29E900D1124E0
:101FF00070E00E941034812FD11013C0860F4091E1
:102000000801420F532F511D9A01220F331F240F35
:10201000351F2A573C4F402F6F2D0E94320EC3941C
:10202000D7CF861BECCFE1E8F3E09181282F4381E5
:10203000628188E0890F0C94810F81E00C94131069
:10204000E1E8F3E09181282F4381628188EF890FD5
:102050000C94810F81E00C942010E1E8F3E06281A0
:1020600028E0620F08F46FEF282F438181810C94E0
:10207000810F81E00C942D10E1E8F3E0628128E00B
:10208000621B08F460E0282F438181810C94810F4A
:1020900081E00C943C10E1E8F3E0438128E0420F3A
:1020A00008F44FEF282F628181810C94810F81E029
:1020B0000C944B10E1E8F3E0438128E0421B08F464
:1020C00040E0282F628181810C94810F81E00C9483
:1020D0005A1020E00C94810FEF92FF921F93CF9340
:1020E000DF93EC0110E0EE24EA94F12C60910A01F8
:1020F000161770F00E94C90E9A818C8190FF27C03C
:102100008F5F8C83DF91CF911F91FF90EF900895A7
:1021100020910801422F410F5527551FCA019A01EE
:10212000220F331F280F391F2A573C4F70E0C70179
:102130000E942434962F8C81409184036091830304
:10214000199F800D11240E94320E1F5FCFCF815046
:10215000D8CFAF92BF92CF92DF92EF92FF920F93C0
:102160001F93CF93DF93FC0182810FEF80FF01E08B
:1021700010E04CE1A42E80910A011817C8F00E94CB
:10218000C90E8091E101013009F055C0811102C0F2
:1021900080910A0181508093E101DF91CF911F91DD
:1021A0000F91FF90EF90DF90CF90BF90AF90089588
:1021B000C0910801C12ED12CCC0DDD2DD11DCE0139
:1021C000880F991FC80FD91FCA57DC4F1982188270
:1021D0001A8234E0E32EF12CB12C8091E1018B0DB9
:1021E0008D311CF16A2D0E940234892F082E000CBB
:1021F000990BC816D90691F4809184038E9DA00195
:102200008F9D500D112455954795559547959E01E5
:1022100060918303809182030E94320EB00EF1E040
:10222000EF1AF108D1F61F5FA6CF87FFDFCF90919D
:102230000A01890FDBCF90E0019660910A0170E0FE
:102240000E942434A8CF0F931F93CF93DF938091E4
:1022500008019091090123E0829FF0011124EA57BF
:10226000FC4F891740F1C0E0D3E060910A01C61726
:1022700040F10E94C90E209104018091E001820F7B
:102280008093E00190910501920F9093050119163A
:1022900054F4082E000C990B40910A014150550B43
:1022A000841795071CF0219520930401DF91CF91AD
:1022B0001F910F9108951182108212828F5F3396C1
:1022C000D0CF0C2F10E070E0C8010E942434209180
:1022D0000801820F482F50E02091E001022E000CEF
:1022E000330B02171307BCF020910501022E000CDE
:1022F000330B201731077CF08D9F900111242A5752
:102300003C4F4091840360918303809182030E943B
:10231000320ECF5FAACFFA01EE0FFF1FE40FF51FB9
:10232000EA57FC4F118210821282F3CF0F931F9352
:10233000CF93DF938C01FC0184819581019681709C
:10234000992795838483C0E0D5E580910A01C81759
:1023500030F0DF91CF911F910F910C94C90E209115
:102360000801422F4C0F5527551FCA019A01220F11
:10237000331F280F391F2A573C4F8C2F8695F801A1
:1023800044815581840F952F911D81704091840364
:10239000609183038D9F802D11240E94320ECF5FA8
:1023A000D4CF0F931F93CF93DF93EC0110E000E0A5
:1023B00090910A019017110609F06CF40E94C90E61
:1023C0008C8190E00196817099278C83DF91CF9169
:1023D0001F910F91089520910801A801420F511DEE
:1023E0009A01220F331F240F351F2A573C4F4C816F
:1023F000609183038091820396959017110651F0A6
:102400004CF0442349F0409184030E94320E0F5F48
:102410001F4FCECF4423B9F340E0F7CF8F929F9266
:10242000AF92BF92CF92DF92EF92FF920F931F93E2
:10243000CF93DF93FC01B280948081E0848300E03D
:1024400015E05BE4A52E88248394EE24EA94F12C15
:102450007BE4C72ED12C80910A01081770F0DF9120
:10246000CF911F910F91FF90EF90DF90CF90BF9091
:10247000AF909F908F900C94C90EC02FD0E01C9FFE
:10248000F0011D9FF00D1124EE51FE4F91101CC064
:102490001382128220910801CE01820F911D9C01AE
:1024A000220F331F280F391F2A573C4F1C9FF00162
:1024B0001D9FF00D1124EE51FE4F428161818081FC
:1024C0000E94320E0F5FC7CF2381222379F1215062
:1024D000238334818A2D821B311101C0822F1C9FDE
:1024E000F0011D9FF00D1124EE51FE4F90918403D9
:1024F000899FC0011124B6010E941034628321110A
:1025000004C0332311F01482A38222E02B1510F2B1
:102510001C9FF0011D9FF00D1124EE51FE4F809184
:1025200082038083809183038183B4CF0E94CD3462
:10253000823091400CF0AECF82E08B1530F50E94D6
:10254000CD34B7010E9424341C9FF0011D9FF00D73
:102550001124EE51FE4F808322E02B15C8F40E9417
:10256000CD34209183032695622F70E00E9424349D
:10257000280F1C9FF0011D9FF00D1124EE51FE4FFE
:1025800021831282A382848285CF80918203DCCF53
:1025900020918303EECFE1E8F3E080818E7F80839A
:1025A00060817181828193810E94530E1092760224
:1025B0002FEF80E792E0215080409040E1F700C08B
:1025C00000000C94C90EE1E8F3E080818E7F8083E7
:1025D000109276022FEF80E792E0215080409040E9
:1025E000E1F700C000000C94C90E6091810366956C
:1025F00070E04BE050E08BE091E00E94DD34892BED
:1026000019F481E0809376020E94132990936F025F
:1026100080936E0208959091810390FF35C0917070
:10262000811128C0926090938103662351F06091DC
:1026300081037091820380918303909184030E94AF
:10264000530E60918103669570E04BE050E08BE0A3
:1026500091E00E94DD34892BA1F01092760281E096
:10266000809371024091840360918303809182037F
:102670000C9469108B3210F09465D5CF880F982B8D
:10268000D2CF0E94F512EBCF0895682F909181036D
:10269000969581E0890F8B3208F081E00C940B1342
:1026A00081E00C944513682F9091810396958FEFEC
:1026B000890F09F48AE20C940B1381E00C945313F4
:1026C00061E00C940B13E1E8F3E08081816080838A
:1026D00086950C9460138091810380FD0C94CB123D
:1026E0000C94631360E00C940B13809174028111BD
:1026F0002EC00E942027811104C00E94C6270E947C
:102700006F0E0E944F0E609381037093820380933B
:102710008303909384036E7F61F40E946F0E0E9486
:102720004F0E609381037093820380938303909391
:1027300084030E94400E109276028091810380FFF4
:1027400003C086950E94721381E0809374020895FD
:10275000E1E8F3E080818160808386950C947213B8
:102760000F931F93CF93DF9380917602882309F410
:102770009DC080917502E0918103E695E81BE0938E
:1027800070028230C9F5F0E0E354F34FE491CE2FAC
:10279000D0E00EE11FE080917102882389F0109251
:1027A00071020E9413299E0120953095820F931F7C
:1027B00090936F0280936E021092730210927202D5
:1027C00080916E0290916F020E942B298C179D07B9
:1027D00008F46CC0E0916E02F0916F02CE0FDF1F23
:1027E000D0936F02C0936E028EE692E0F801DF9103
:1027F000CF911F910F910994863049F4F0E0E6548F
:10280000F34FE491CE2FD0E002E31FE0C4CF893034
:1028100051F4E695F0E0E954F34FE491CE2FD0E087
:102820000CE610E1B8CF8F3051F4E695F0E0EC54AF
:10283000F34FE491CE2FD0E009EA10E1ACCF85311F
:1028400049F4F0E0EF54F34FE491CE2FD0E003E2EF
:1028500011E1A1CFC8EED3E006E911E1883109F416
:102860009ACF833239F4EFEAFCE0C591D49102E4C7
:102870001FE091CFC4EFD1E001ED11E1843209F402
:102880008ACFC0EDD7E001E31EE0853209F083CFA7
:102890008E2F63E00E94F633E92FF0E0E455F34F0A
:1028A000E491CE2FD0E00EE012E175CFDF91CF9111
:1028B0001F910F910895FA01811101C0FB01099444
:1028C000CF93DF93C82FD62F0E947E0E8C1740F037
:1028D0000E947E0E8D1720F4DF91CF910C9450133F
:1028E0008C2FDF91CF910C9460130F931F93CF9394
:1028F0008C01FB01C281CC2309F465C00E946B26C8
:102900008272F801E25CFC45E431F10538F4E55AE5
:10291000FA4C0C945A340E946B13C0E08C2FCF9168
:102920001F910F9108954DE553E160E573E10E9419
:102930005B14F3CF40E553E16DE573E1F8CF4AE274
:1029400050E16DE170E1F3CF4DE150E16AE270E1F9
:10295000EECF48E450E169E370E1E9CF49E350E1AB
:1029600068E470E1E4CF46E650E167E570E1DFCF6F
:1029700047E550E166E670E1DACF47E95EE066E8F8
:102980007EE0D5CF46E85EE067E97EE0D0CF81E02B
:102990000E946013C2CF65E082E00E946014BDCF48
:1029A00068E086E0FACF6EE089E0F7CF64E18FE07F
:1029B000F4CF67E185E1F1CF88E1EACF62E289E116
:1029C000ECCF83E2E5CFC1E0A9CF8091DA030C948C
:1029D00052278091DA0386958695869508950E9400
:1029E0002027811102C00E94C6270E944E27809393
:1029F000DA03803220F0877088618093DA03909147
:102A0000DA03892F817090FF04C0892F86958695FF
:102A100086950C94ED158091DA03982F96959695EE
:102A20009695933040F49F5F990F990F990F877097
:102A3000892B8093DA038091DA0381608093DA0333
:102A40000E9452278091DA038695869586950C948C
:102A5000ED158091DA03982F987F79F08850809354
:102A6000DA03887F91E009F490E08091DA0390FB2B
:102A700080F98093DA030E9452278091DA038695C9
:102A8000869586950C94ED158091DA0380FD13C030
:102A900081608093DA03813019F489E08093DA034E
:102AA0008091DA030E9452278091DA0386958695F9
:102AB00086950C94ED1508958091DA0380FF08C087
:102AC0008E7F8093DA030E94522780E00C94ED15EC
:102AD00008958091DA0380FD0C945C150C944415E4
:102AE0009091DA03892F8695869586958F5F8F71F1
:102AF00097708430D8F4880F880F880F892B8093C3
:102B0000DA038091DA03887F91E009F490E0809104
:102B1000DA0390FB80F98093DA030E9452278091B8
:102B2000DA038695869586950C94ED159093DA03D5
:102B3000E8CF843008F083E09091DA039770282F73
:102B4000220F220F220F922B9093DA03987F21E01D
:102B500009F420E09091DA0320FB90F99093DA03D6
:102B60000C94ED150E9499158091DA030C9452276C
:102B70009C01FB018281882349F12D3BFCE53F0745
:102B8000C9F040F42B3BECE53E0769F02C3B3C459B
:102B900079F008952F3B9CE5390791F070F0203CC7
:102BA0003C4589F0089583E00E94B21580E00895C5
:102BB00080E0FACF0E942915F9CF0E940B15F6CFBD
:102BC0000E946915F3CF0E947015F0CF81E008953F
:102BD000279A2F9808952F980895CF92DF92EF9219
:102BE000FF92CF93C82F843040F5811127C0809188
:102BF0008000877F809380000E94EB152C2F30E0AF
:102C0000AFEFBFEF0E94673423E030E040E050E0D8
:102C10000E943834C9012C3764E13607A8F469E012
:102C200070E00E94103470938D0060938C00CF91FF
:102C3000FF90EF90DF90CF900895C3E080918000E7
:102C4000886080938000DACF2A50374D4F4F5F4F16
:102C5000942F832F722F662725EF38E241E050E052
:102C60000E94383469017A01CA01B9010E94E63331
:102C70009B01AC01C701B6010E94E633672F782F94
:102C8000892F99276115710521E08207910559F671
:102C90006FEF7FEFC8CF08950E94E8158AE0809318
:102CA000800089E1809381008FEF9FEF90938700F0
:102CB000809386000C94EF14879A41B34F7751B3F9
:102CC0005068EFB7F8949B01220F331F260F371F70
:102CD000280F391F2817390741F4EFBF8FE594E01B
:102CE0000197F1F700C000000895DC016D91CD015E
:102CF00078E051BB000000C067FF41BB660F0000D9
:102D000000C000C000C041BB00C07A9591F7E2CF7F
:102D100082E290E00E94EA34803289F483E290E01B
:102D20000E94EA34893059F484E290E00E94EA3447
:102D300091E0883209F090E0892F8170089580E059
:102D4000FCCFCF93C82F6FEF811160E282E290E059
:102D50000E94FE346FEFC11169E083E290E00E94AF
:102D6000FE346FEFC11168E284E290E0CF910C94E1
:102D7000FE3480E00E94A1160C941A27089585E283
:102D800090E00E94EA34682F70E090E080E00895BF
:102D900085E290E00C94FE340E94BE160E948816D4
:102DA00081110CC060E070E0CB010E94C8160E9447
:102DB000B7180E94A31981E00C94A1160895CF932F
:102DC000FB01C281CC2309F19C0122513F452031F6
:102DD000310520F582510E94B319C0E08C2FCF91AC
:102DE000089581E00E94E62443E062E081E00E94D1
:102DF000000AF3CF81E00E94072543E062E081E012
:102E00000E94000AEBCF82E0F6CF8031FFE59F07FA
:102E100089F381319F45B9F3C1E0E0CF8031EFE51F
:102E20009E07F9F281319F45C9F682E0DBCF2FEF93
:102E3000FC0120830895CF93DF93EC0188818930D2
:102E400029F08A3079F0DF91CF9108950E94E9143A
:102E50002FEF829FC001112463E070E00E941034C4
:102E60006983F1CF1982EFCFFC012081293061F411
:102E70008181F3E08F9FC00111246FEF70E00E9409
:102E80001034862F0C9499150895CF93DF93EC019D
:102E900088818138A9F028F4803871F0DF91CF91D2
:102EA0000895823881F08338C9F70E94BD0E898366
:102EB0000E94C00E8A83F2CF0E94C30E8983EECF98
:102EC0000E947E0EFBCF0E94A80EF8CFCF93DF9317
:102ED000EC0188818138E1F028F4803869F0DF91D5
:102EE000CF910895823811F18338C9F70E94C30E3B
:102EF000482F6A81898108C0D9810E94C00EC82FDD
:102F00000E94BD0E4D2F6C2FDF91CF910C94691054
:102F100089810E9472138981811104C0DF91CF9150
:102F20000C94E312DF91CF910C94A8138981DF9167
:102F3000CF910C94BA0EDF92EF92FF920F931F93F2
:102F4000CF93DF93EC01D62EDC01ED918D01E150A2
:102F5000E33108F0C9C0F0E0E159FA4C0C945A345E
:102F6000198289E08A836D2DCE01DF91CF911F9167
:102F70000F91FF90EF90DF900C940A2D89818230A1
:102F800069F0833071F08130D9F40E941F290E94CA
:102F900060346A837B838C839D83E5CF0E94BF1658
:102FA000F6CF7E0110E0812F0E94880CF7019283FA
:102FB00083831F5FF2E0EF0EF11C1730A1F7D3CF30
:102FC0006D2DCE010E941717CECF89818230C1F7B7
:102FD0006A817B818C819D810E9460340E94C81629
:102FE000C2CF4B816A8189810E94891898278927DD
:102FF00098279D838C83B7CF2C813D81322723274F
:1030000032274B816A8189810E94A218ACCF0E942D
:10301000B718A9CFCD010E943417C8010E946617C6
:10302000A2CFCD010E941B17C8010E9445179BCF5C
:103030000E94E5140E94650E96CF0E944C19898368
:1030400092CF0E944E199827892798279A838983BF
:103050008ACF6B8170E089819A81AE014C5F5F4FAE
:103060009827892798270E9451197DCF6B8170E09E
:1030700089819A81AE014C5F5F4F982789279827F5
:103080000E94781970CF0E94A3196DCF0E94771803
:10309000D6CF6B8170E089819A81AE014C5F5F4F22
:1030A0009827892798270E94EF185DCF6B8170E0E1
:1030B00089819A81AE014C5F5F4F982789279827B5
:1030C0000E94151950CF0E94B9164DCF0E940A2DAB
:1030D0002FEF81EE94E0215080409040E1F700C056
:1030E00000000E945E293FCF8FEF88833CCF84E0B1
:1030F000089550E0440F551F9AE1699F400D511DFE
:10310000112496EB899F400D511D1124CA0186960A
:1031100008950F931F93CF93DF930E9479188C012A
:103120000E94EA34C82FD0E0DC2FCC27C8010196DA
:103130000E94EA349E01282BC901DF91CF911F9193
:103140000F9108950F931F93CF93DF93122F032FA7
:103150000E947918EC01602F0E94FE34612FCE018D
:103160000196DF91CF911F910F910C94FE34AF9295
:10317000BF92CF92DF92EF92FF921F93CF93DF9394
:103180008CEAC82E80E0D82ED0E07601C0E014C0D2
:10319000F50125913491412F6C2F8D2F0E94A2189B
:1031A00082E0A80EB11C1F5F1D3091F78AE1E80E86
:1031B000F11CCF5FC73019F0570110E0E9CFDF5F96
:1031C00086EBC80ED11CD43001F7DF91CF911F914F
:1031D000FF90EF90DF90CF90BF90AF900895EF9267
:1031E000FF920F931F93CF93DF93EC018A017C0131
:1031F000E60EF71ECE018696CE15DF0539F4DF9177
:10320000CF911F910F91FF90EF900895C83D22E05C
:10321000D20740F40E94EA34F80180830F5F1F4F09
:103220002196E8CFF8011082F9CFCF92DF92EF928A
:10323000FF920F931F93CF93DF937C016A018C0160
:10324000060F171FEC01CE018696C017D10749F46F
:10325000DF91CF911F910F91FF90EF90DF90CF9072
:103260000895C83D22E0D20740F4FE01EE19FF099F
:10327000EC0DFD1D60810E94FE342196E4CF462FA7
:10328000843038F4773028F46D3018F4672F0C94BC
:10329000891890E080E0089580E1089582E091E04F
:1032A0000895EF92FF920F931F93CF93DF93EC015A
:1032B0008A017C01E60EF71ECE0182509D4FCE158D
:1032C000DF0539F4DF91CF911F910F91FF90EF90BF
:1032D0000895C23021E0D20740F40E94EA34F80198
:1032E00080830F5F1F4F2196E7CFF8011082F9CF3F
:1032F000CF92DF92EF92FF920F931F93CF93DF93C2
:103300007C016A018C01060F171FEC01CE0182506F
:103310009D4FC017D10749F4DF91CF911F910F91B5
:10332000FF90EF90DF90CF900895C23021E0D20758
:1033300040F4FE01EE19FF09EC0DFD1D60810E94B5
:10334000FE342196E3CFCF93DF93CEEFD2E060E05F
:10335000CE010E94FE342196C11584E0D807B9F74A
:10336000DF91CF910895DF92EF92FF920F931F9319
:10337000CF93DF9300D000D0CDB7DEB7F82E8FE02B
:103380008F1540F08FEF93E00E94EA340EEF12E0C9
:103390008823C1F00F900F900F900F90DF91CF9185
:1033A0001F910F91FF90EF90DF900895011584E039
:1033B000180781F3C8010E94EA34811101C0FA9410
:1033C0000F5F1F4FF110F2CF19821A821B821C82ED
:1033D000DD24D39478018FEFE81AF80AC8010E941F
:1033E000EA3489831A828823A9F29FEF980F9330D9
:1033F00078F48A83D9820E5F1F4FC7010E94EA3496
:103400008B83882339F2CE0101960E94A909E2CF6D
:103410008701F9CF0F931F93CF93DF93C62FD42F3C
:10342000022FFC0182818823C9F0609379020E94F7
:103430001329909378028093770280E28C0F883072
:1034400008F050C0C77081E001C0880FCA95EAF744
:10345000DF91CF911F910F910C94701E1091790202
:10346000161335C080917702909178020E942B2923
:10347000883C910560F5C0E2CD0F1D17B9F080E2E0
:10348000810F883040F4177081E001C0880F1A95D1
:10349000EAF70E94771EC83048F481E09D2F9770AC
:1034A00001C0880F9A95EAF70E94701E802F0E9433
:1034B0005D1EC830B8F4D77081E001C0880FDA957E
:1034C000EAF7DF91CF911F910F910C94771E80E264
:1034D0008C0F883038F4C77081E001C0880FCA951E
:1034E000EAF7EFCFDF91CF911F910F9108959C01E3
:1034F000CB01233F4CE5340731F190F4283DFCE546
:103500003F07E9F0293D4CE5340769F1273D3C458B
:1035100079F426E241EE61EE0E940A1A80E00895F5
:10352000253FFCE53F07B9F090F0263F3C45B9F058
:10353000FC0182818823D1F010927902089527E25C
:1035400045EE65EEE9CF26E241EE60EEE5CF27E2FB
:1035500045EE64EEE1CF26E241EE62EEDDCF27E2FA
:1035600045EE66EED9CF28E241E0EBCF81E0089549
:10357000CF93DF93EC01FB018281882309F419C109
:10358000C230FCE5DF07C0F1C6319CE5D90730F059
:103590009E012A5F3C452930310570F50E94332792
:1035A0009093E0038093DF03C031ECE5DE0709F47C
:1035B000CFC008F05BC0C8308CE5D80709F4B6C0AE
:1035C00088F5C430ECE5DE0709F4A8C0C0F4C230C9
:1035D0008CE5D80709F49CC08091DF038260C3307A
:1035E000DC4509F498C08091DF039091E0030E94CC
:1035F00041270E94EC2080E0DF91CF9108958091D7
:10360000DF038061C630ECE5DE0709F484C08091F9
:10361000DF038860C730DC4508F47DC08091DF039C
:10362000806279C0CC308CE5D80709F489C070F489
:103630008091DF038C60CA30ECE5DE0709F46BC0D3
:1036400008F478C08091DF038E7F65C0CE308CE5B2
:10365000D80709F479C08091DF038B7FCF30DC4538
:1036600008F459C08091DF038F7E55C0CB3FECE555
:10367000DE0709F457C030F5C3318CE5D80709F4EB
:103680006FC078F4C131ECE5DE0709F465C0C231E2
:10369000DC4509F0A8CF0E94EC208091DF038F77F2
:1036A0003AC0C5318CE5D80709F462C008F476C089
:1036B0008091E0038160CA3FDC4509F094CF80939C
:1036C000E00391CFCF3FFCE5DF0709F44DC088F45C
:1036D0008091E0038D7FCD3F9CE5D90781F38091F8
:1036E000E0038E7FCE3FDC4550F38091E0038360A2
:1036F000E6CFC130FDE5DF0709F459C008F444C046
:1037000080E0C230DD4509F06ECF0E94C8276BCF44
:103710008091DF0381608093DF0365CF8091DF03B9
:103720008460F9CF8091E0038260C9CF8091DF038C
:103730008064F1CF0E94EC208091DF038068EBCFA2
:103740008091DF038D7FE7CF8091DF03877FE3CF19
:103750008091DF038F7DDFCF8091DF038F7BDBCF15
:103760008091DF03837FD7CF8091E0038C7FA7CF49
:103770008091DF0382FB992790F921E0922790FB4B
:1037800082F990FB83F9C7CF8091E003982F909541
:1037900091708E7F892B90FB81F991CF0E94EC2054
:1037A0009091DF03892F97FB87F98058B4CF81E090
:1037B000ACCF81E021CFCF93DF93EB0186319C45E5
:1037C00011F50E946B269A81992399F08A7A91E0EB
:1037D00009F490E090937A02811109C089E20E9475
:1037E00046260E94B72680E0DF91CF91089585E3B9
:1037F000F6CF80917A02811104C089E20E944D26A1
:10380000F0CF85E3FBCF81E0EFCF909380028093F0
:103810007F020895E0917F02F0918002309721F0BD
:103820000190F081E02D099480E00895E0917F02FD
:10383000F0918002309799F020912A01222359F0CB
:103840002091DF0327FF07C0DC012C9111962C93F8
:10385000119725E02C930280F381E02D09940895BF
:10386000E0917F02F0918002309739F022E0DC0194
:103870002C930480F581E02D0994089520917D0218
:1038800030917E022817390771F090937E02809361
:103890007D02E0917F02F0918002309721F0068056
:1038A000F781E02D0994089520917B0230917C02EC
:1038B0002817390771F090937C0280937B02E09186
:1038C0007F02F0918002309721F00084F185E02D95
:1038D0000994089585B7806885BF85B7806885BFDE
:1038E0000895089508950C94711C08950C94751C06
:1038F0000E946A1C0E94721C0C94731C81E0089543
:103900000C947E1C0E940A290E94960C0E94CC16E0
:103910000E949B290E94EF140E9475130C94761C40
:103920007F928F929F92AF92BF92CF92DF92EF924F
:10393000FF920F931F93CF93DF93CDB7DEB72A97F4
:103940000FB6F894DEBF0FBECDBF0E94DE0C0E9402
:10395000801C882309F475C042E8A42E42E0B42EEE
:1039600010E000E0702E802F0E94880C6C01F501A1
:10397000819091905F018816990609F45CC080914E
:10398000320381FD0E94910C80E0EE24E394F12C3F
:103990008C249D2494012E213F21232B09F445C022
:1039A0008E837F82CE20DF2081E0CD2809F480E065
:1039B00088870E9413298160782F9A8789874E8192
:1039C0005F8168858A850E94461D000F111FF801DE
:1039D000EE57FD4F80819181E826F926F182E08241
:1039E0000E94B0130E944B160E94282B0E940A1CB2
:1039F000909181028917B1F10E940A1C8093810283
:103A00002A960FB6F894DEBF0FBECDBFDF91CF91DF
:103A10001F910F91FF90EF90DF90CF90BF90AF90EC
:103A20009F908F907F900C94260A8F5FEE0CFF1C66
:103A30008D3009F0AFCF0F5F1F4F0730110509F030
:103A400091CF8FEF89838A831B820E941329816023
:103A5000782F9D838C8349815A816B818D810E944F
:103A6000461DBECF2A960FB6F894DEBF0FBECDBF5F
:103A7000DF91CF911F910F91FF90EF90DF90CF904A
:103A8000BF90AF909F908F907F900895CF93DF93DA
:103A9000CDB7DEB72B970FB6F894DEBF0FBECDBF04
:103AA0004F83588769877A878B871E821D8285E0BE
:103AB000FE013796DE01119601900D928A95E1F78D
:103AC00049815A816B817C818D819E812B960FB6B5
:103AD000F894DEBF0FBECDBFDF91CF910C9462236F
:103AE000FC01808191810C941826CF93C82F8823E4
:103AF00009F48BC08238C1F40E940A1C81FD85C084
:103B000089E30E9446260E94B7262FEF81EE94E0BB
:103B1000215080409040E1F700C0000089E30E94FE
:103B20004D26CF910C94B7268338A1F40E940A1C2D
:103B300080FD6BC083E50E9446260E94B7262FEFCA
:103B400081EE94E0215080409040E1F700C00000F9
:103B500083E5E5CF8438A1F40E940A1C82FD55C09C
:103B600087E40E9446260E94B7262FEF81EE94E05C
:103B7000215080409040E1F700C0000087E4CFCFA3
:103B80008CEF8C0F813A90F46C2F809116019091FC
:103B900017010E94E127882329F08C2F0E944D26CF
:103BA0000E94B7268C2F0E944626BBCF80E28C0F46
:103BB000883048F4C77081E001C0880FCA95EAF7E1
:103BC0000E946E26AECFEBE5EC0FE33040F4F0E060
:103BD000E753FE4F808190E0CF910C943E1CE8E5C6
:103BE000EC0FE73150F4F0E0EE0FFF1FE556FE4F0B
:103BF00080819181CF910C94541CC03F30F08C2F68
:103C00000E94362ACF910C941D2BCF9108958823C2
:103C100009F452C0823871F40E940A1C81FF4CC022
:103C200089E30E9446260E94B72689E30E944D261A
:103C30000C94B726833859F40E940A1C80FF3CC0BC
:103C400083E50E9446260E94B72683E5EFCF84389D
:103C500059F40E940A1C82FF2FC087E40E94462666
:103C60000E94B72687E4E2CF9CEF980F913AF0F2DA
:103C700090E2980F983050F4877091E001C0990F4E
:103C80008A95EAF7892F0E947426D2CF9BE5980F78
:103C9000933020F490E080E00C943E1C98E5980F5F
:103CA000973120F490E080E00C94541C803F20F089
:103CB0000E949E2A0C941D2B0895CF93C82F0E941A
:103CC000751DC93349F42FEF87EE93E021508040F2
:103CD0009040E1F700C000008C2FCF910C94071E9C
:103CE000882321F00E946E260C94B726089588231D
:103CF00021F00E9474260C94B7260895BF92CF92AB
:103D0000DF92EF92FF920F931F93CF93DF936C019B
:103D1000D62FC72FFC01058102950F70128111115A
:103D20000E948B260E946426E82E882391F011239E
:103D3000D1F08C2F807F803421F080E28D0F88308D
:103D400090F082E00E9402270E94642691E0E82E13
:103D5000E926BC2EB2949FE0B922EB2DF0E0EE579D
:103D6000FA4C0C945A34E12CF4CF0C2F0F70C07F16
:103D700011F00295007F1123A9F0002359F080E291
:103D80008D0F883010F0D11109C0802F0E946E264F
:103D90000E94B7268D2F0E94751D14C0802F0E948F
:103DA0007E26F6CF8D2F0E94071E002359F080E259
:103DB0008D0F883010F0D1112CC0802F0E947426F6
:103DC0000E94B7262B2D2850330B2430310520F4C8
:103DD0000E940A1C0E94260AEE2009F49EC10E943D
:103DE000602680FD9AC1F60112820E945A260E9426
:103DF000E624C6010E94AE200E945A26DF91CF9190
:103E00001F910F91FF90EF90DF90CF90BF900C9497
:103E10000725802F0E948426D3CFFC2FFF70FF2E12
:103E2000C07FC03219F0F29480EFF822DD2369F0F0
:103E3000D13049F1112391F1002351F1F60185812F
:103E400080FFA8CF8F70858323C0112381F00111DB
:103E500006C00E949E268F290E94701EB3CF01309B
:103E6000C1F70E949E268F290E94A426ABCF011184
:103E700006C00E94AD268F2D0E94771EA3CF013071
:103E800009F4A0CFF6CF112329F0063008F09ACF1D
:103E90008F2DE2CF053008F095CFEDCF002359F3F9
:103EA000D93349F4FFEF27EE33E0F15020403040A2
:103EB000E1F700C000008D2F0E94071E83CF8C2FDA
:103EC00086958695837069F0813009F07BCF8D2FC0
:103ED0009C2F9370111102C090E080E00E94541C4E
:103EE00071CF8D2F9C2F9370111102C090E080E054
:103EF0000E943E1C67CF8D2F112329F00E94362A85
:103F00000E941D2B5FCF0E949E2AFACF8C2F8370B8
:103F100009F041C0111156CF4D2F4295469547707B
:103F2000440F440F0D2F0F7010E030E020E0042EFE
:103F300004C0000F111F221F331F0A94D2F760E044
:103F400070E0CB01D4FF0FC06FE070E080E090E044
:103F500004C0660F771F881F991F4A95D2F7609596
:103F6000709580959095C695C695C370602B712B02
:103F7000822B932BC23049F058F4C13019F00E94C3
:103F8000982420CF0E9486241DCF0E94AA241ACFF5
:103F90000E94842417CF8695112311F08C2F8170F5
:103FA000882309F40FCF4D2F429546954770440F53
:103FB000440F0D2F0F7010E030E020E0042E04C0FD
:103FC000000F111F221F331F0A94D2F760E070E028
:103FD000CB01D4FF0FC06FE070E080E090E004C040
:103FE000660F771F881F991F4A95D2F760957095C5
:103FF00080959095C695C695C370602B712B822BCA
:10400000932BC23049F058F4C13019F00E945D255D
:10401000D9CE0E944B25D6CE0E946F25D3CE0E94CA
:10402000C024D0CECF70112329F08C2F0E94E6241B
:104030008D2F12CF8D2F0E94771E8C2F0E94072567
:10404000C1CED23F89F160F4D03FC9F0D13F29F110
:10405000112309F442C001119DCE8C2F8F7121C014
:10406000D33F39F1D43FA1F7112369F1CF718C2FE0
:104070000E94E62463E08C2F0E94ED26A3CE11233C
:1040800041F0053008F09ECE8C2F8F710E942A25BA
:1040900099CE063008F096CEF7CF8C2F8F71112372
:1040A00069F20E94E6248ECE8C2F8F711123C9F302
:1040B000C5CF112329F08C2F8F710E94D12482CE7D
:1040C0000E94CC247FCE81E00E940227023008F4B7
:1040D00079CE82E00E94022775CE002359F0D933B1
:1040E00009F0E9CE8FEF97EEE3E081509040E04099
:1040F000E1F7DFCE8C2F8F71A1CF4C2F4F706D2F3A
:10410000C6010E948D080E94FC235CCE4C2F4F708C
:104110006D2FC6010E948C0A55CEDF91CF911F9161
:104120000F91FF90EF90DF90CF90BF9008950F9385
:104130001F93CF93DF93EC01688179818A810E947C
:1041400022268C010E9481250E948324B801CE0181
:10415000DF91CF911F910F910C947E1ECF93DF932F
:10416000EC018B819C81892B29F08881998189239D
:104170008F3F59F4DF91CF910895CE010E9497208F
:10418000CE01DF91CF910C94EA08CE010E943E0A45
:104190008111F3CF0E946426882361F38A818823EA
:1041A00049F382E0DF91CF910C9402270E948B2685
:1041B0000E949B260E94B7260E94422C0E941D2B23
:1041C00090E080E00E943E1C90E080E00C94541C43
:1041D0000E9454260C94D6200E947B260C94E82042
:1041E000E92FE295EF70E250EE3070F4F0E0EE5619
:1041F000FA4C0C945A34803F19F020F4883E20F495
:1042000081E00895843FE1F380E00895883EC0F3A3
:10421000813FD1F7F5CF93FB882780F908950E945D
:1042200018260C94F020CF93DF9300D000D00F928B
:10423000CDB7DEB70F900F900F900F900F90DF91DA
:10424000CF910895CF93DF9300D000D000D0CDB7A9
:10425000DEB726960FB6F894DEBF0FBECDBFDF9156
:10426000CF9108951F93CF93DF93C091910216E0F1
:10427000809192028C1304C0DF91CF911F91089519
:10428000D0E01C9FF0011D9FF00D1124ED56FD4F55
:104290004081518162817381848195810E942221B4
:1042A0002196C770E5CF4091C3025091C40260913E
:1042B000C5027091C6028091C7029091C8020C9409
:1042C00022211F93CF93DF938091C802807FA9F4AE
:1042D0008091C502882389F080919102C091920259
:1042E0006091C3027091C402A091C602B091C7024E
:1042F000D62FD72316E0C81304C0DF91CF911F91AA
:10430000089590E0109711F0DF3F19F4019687703F
:10431000F2CF189F9001199F300D1124F901ED562D
:10432000FD4F41814713F2CF40814613EFCF4281C9
:104330004111ECCF438154814A1B5B0B483C510532
:1043400028F78091C8028F7080618093C802F901BC
:10435000E856FD4F80818F708061808383EC92E00E
:104360000E94AE20DF91CF911F910C943221AF9229
:10437000BF92CF92DF92EF92FF920F931F93CF9352
:10438000DF93CDB7DEB761970FB6F894DEBF0FBEEF
:10439000CDBF8C0185E0F801DE011D9601900D92E4
:1043A0008A95E1F7F80140815181E28083ECC82EC3
:1043B00082E0D82E6091C6027091C7026115710526
:1043C00009F461C19091C3022091C402892F822314
:1043D0008F3F09F458C1A380B480F090C502F50165
:1043E000E61BF70BFF2009F4FCC08091C802382FB0
:1043F000307FE83CF10508F0B2C0311179C0FE2CE5
:10440000251323C0941321C0E1101FC08F70806159
:104410008093C8020E945321C6010E94AE20809161
:10442000C802F80185838F2D61960FB6F894DEBF20
:104430000FBECDBFDF91CF911F910F91FF90EF90F5
:10444000DF90CF90BF90AF900895AB2829F0842FD4
:1044500085238F3F09F033C180E0F82FF170DF2E04
:1044600080FF3CC0809191022091920236E082133D
:1044700015C04D875E878D859E850E941826292F41
:1044800022952F702230F0F0243018F59F70F1F053
:10449000F8019581907FD1F4D12C1EC090E0389F17
:1044A000F001399FF00D1124ED56FD4F6181651328
:1044B00006C06081641303C062816E110FC0019653
:1044C0008770D5CF9F7011F0882331F3805E8830DC
:1044D00018F3C8010E94AE20FD2CA5CFEE2009F4F0
:1044E000A2CF8091C80281608093C802F12C9BCF3B
:1044F000251306C0941304C0F801EE2009F48DC002
:104500004D875E878D859E850E940F21882319F136
:10451000EE2009F18091C802803270F02091C30230
:104520003091C40238872F831986BB86AA868C8770
:10453000CE0107960E94AE2086E0F801A3ECB2E01F
:1045400001900D928A95E1F70E9461210E9453210A
:10455000FF24F39468CFC8010E94AE20F9CF311137
:1045600013C07A2DB98AA88A6E2D89890E941321D9
:1045700083EC92E00E94AE2086E0F60111928A95CB
:10458000E9F70E945321B2CF25130FC094130DC039
:10459000E1100BC0F8018583C8010E94AE2086E0BF
:1045A000F60111928A95E9F73ECF4D875E878D859A
:1045B0009E850E940F21882371F2EE2061F2809186
:1045C000C802803208F4B8CF2091C3023091C402EF
:1045D0003A8329831B82BD82AC828E83CE010196F1
:1045E000A9CFE83CF10508F041C0FE2CEE2009F40B
:1045F000B2CF25132AC0941328C08091C80280FD31
:104600001BC0982F907FC1F0F8018583903F31F057
:10461000982F907F905F8F70892B8583C8010E94AF
:10462000AE2086E0F801A3ECB2E001900D928A95ED
:10463000E1F70E945321F7CE86E0F801A3ECB2E047
:1046400001900D928A95E1F7EECE4D875E878D85BC
:104650009E850E940F2181116FCF8091C8028160D9
:104660008093C802C8010E94AE20DDCE7A2DB98A9F
:10467000A88A6E2D89890E94132186E0F601119285
:104680008A95E9F7D6CFEE2009F465CF4D875E878E
:104690008D859E850E940F21F82E882309F45BCF1B
:1046A00086E0F801A3ECB2E001900D928A95E1F763
:1046B00083EC92E00E94701D0E946121BACF81E0DC
:1046C0008E25CBCE1F93CF93DF93CDB7DEB72C973C
:1046D0000FB6F894DEBF0FBECDBF4F8358876987F2
:1046E0007A878B879C87CE0107960E94B721882303
:1046F00069F08A859B85892B39F04F815885842FF5
:1047000085238F3F09F071C016E05FC086E0FE018F
:104710003796DE01119601900D928A95E1F78A8510
:104720009B85892B89F388859F8189238F3F61F33E
:104730002091920230E0C90101968770992740913B
:1047400091024817190671F40E94EC20109292020F
:104750001092910286E0E3ECF2E0DF011D928A956F
:10476000E9F7D2CF96E0929FD001939FB00D11242C
:10477000AD56BD4FFE01319601900D929A95E1F72D
:10478000809392020E943221BFCF819FC0011124E9
:104790008D569D4F0E94B7218823E9F0E091910248
:1047A0001E9FF0011124ED56FD4F40815181628121
:1047B0007381848195810E9422218091910290E0F1
:1047C0000196877099278093910280919102909130
:1047D00092028913DACF2C960FB6F894DEBF0FBE83
:1047E000CDBFDF91CF911F91089569857A858B8523
:1047F0009C850E94222188CFEF92FF920F931F93F6
:10480000CF93DF938C01892B81F0F12CEE24E3947C
:10481000E8012196F8018491843770F4843008F01F
:104820005FC08130B1F08230A1F1DF91CF911F9153
:104830000F91FF90EF900895853709F44CC008F46C
:104840003DC09CE7980F903780F78F770E94071E36
:1048500049C00E5F1F4FFE01849190E2980F98307F
:1048600060F48770FE2D01C0FF0F8A95EAF78F2F45
:104870000E948E260E94B72602C00E94751D8F2DB1
:10488000815030F2EFE9FFE03197F1F700C000000E
:10489000F7CF0E5F1F4FFE01849190E2980F983082
:1048A00050F48770FE2D01C0FF0F8A95EAF78F2F15
:1048B0000E949426DFCF0E94071EE1CF0E5F1F4F9C
:1048C000FE01C491C150D8F28FE99FE00197F1F742
:1048D00000C00000F7CF0E5F1F4FFE01F490CFCF56
:1048E0000E94751D8E01CBCF08950C9474240E94F4
:1048F00075246093090370930A0380930B039093CC
:104900000C030C94D62008950C9477240F931F93D6
:104910000091090310910A0320910B0330910C03BD
:10492000602B712B822B932B1F910F910C9477246A
:104930000F931F930091090310910A0320910B0319
:1049400030910C0360237123822393231F910F91D5
:104950000C9477240F931F930091090310910A037D
:1049600020910B0330910C03602771278227932736
:104970001F910F910C9477240C9474240C94BC24F4
:104980000E94BE246093050370930603809307037F
:10499000909308030C94D62060E070E0CB010C9457
:1049A000C0240F931F9341E050E060E070E08A0163
:1049B0009B0104C0000F111F221F331F8A95D2F7DD
:1049C000C901B8011F910F910C94C0240F931F933C
:1049D00041E050E060E070E004C0440F551F661FE6
:1049E000771F8A95D2F78091050390910603A091D5
:1049F0000703B09108038A019B01082B192B2A2B6E
:104A00003B2BC901B8011F910F910C94C0240F9347
:104A10001F9341E050E060E070E004C0440F551F78
:104A2000661F771F8A95D2F7CB01BA016095709502
:104A3000809590950091050310910603209107033E
:104A40003091080360237123822393231F910F91D8
:104A50000C94C0240F931F9341E050E060E070E09D
:104A600004C0440F551F661F771F8A95D2F78091A7
:104A7000050390910603A0910703B09108038A01F2
:104A80009B01082719272A273B27C901B8011F9135
:104A90000F910C94C0240F931F9300910503109164
:104AA00006032091070330910803602B712B822BA2
:104AB000932B1F910F910C94C0240F931F9300917F
:104AC000050310910603209107033091080360232A
:104AD0007123822393231F910F910C94C0240F9371
:104AE0001F93009105031091060320910703309155
:104AF000080360277127822793271F910F910C9439
:104B0000C02408952DE0929F800D1124982F977056
:104B100041E001C0440F9A95EAF7869586958695FF
:104B200095E0899FF0011124E753FD4F90E080E06C
:104B300070E05191DF0111979B01082E02C036955C
:104B400027950A94E2F7217021952527242325270C
:104B50002C9301968530910561F708952DE0929F81
:104B6000800D1124982F977086958695869525E05F
:104B7000829FF0011124E753FD4F50E040E080E0B8
:104B8000219130E0092E02C0369527950A94E2F76C
:104B900021703327042E01C0220F0A94EAF7822BDA
:104BA0004F5F5F4F4530510559F70895BF92CF923F
:104BB000DF92EF92FF920F931F93CF93DF938C01BD
:104BC000C0900503D0900603E0900703F09008031F
:104BD0008091090390910A03A0910B03B0910C03FB
:104BE000C82AD92AEA2AFB2ACFE1D0E0BC2ED70175
:104BF000C6010C2E04C0B695A795979587950A9483
:104C0000D2F780FD0EC0219788F7B12C8B2DDF9154
:104C1000CF911F910F91FF90EF90DF90CF90BF90B9
:104C20000895B8018C2F0E94950A019761F3EECF89
:104C3000CF93DF93EC010E94D625BE01DF91CF9187
:104C40000C94950A1F93CF93DF93EB019091900200
:104C5000992331F0CB01DF91CF911F910C9418264D
:104C6000882379F0CB010E94D625182F682FCE011A
:104C70000E948225BE01812FDF91CF911F910C945C
:104C8000950ACB010E94AE25182FF4CF682F809192
:104C90001601909117010C946128682F80911601DC
:104CA000909117010C946C28809116019091170136
:104CB0000C94772880910D038595859585950895A9
:104CC00080910D038770089590910D03977081E096
:104CD00009F480E0089580913103089590913103A3
:104CE000892B809331030895809590913103982307
:104CF00090933103089510923103089590913003F9
:104D0000892B8093300308958095909130039823E8
:104D100090933003089510923003089590912F03DB
:104D2000892B80932F030895809590912F039823CA
:104D300090932F03089510922F03089580910E03EE
:104D4000089508950C94A12690910E03981721F0D0
:104D500080930E030C94A226089580910E0388235D
:104D600029F010920E0380E00C94A2260895E091A1
:104D70001601F0911701809131038083E0911601B3
:104D8000F0911701808190913003892B8083E0910D
:104D90001601F0911701808190912F03892B808358
:104DA00090910E03992381F0E0911601F091170183
:104DB0008081892B808380911601909117010E9438
:104DC000CD2781110E94AD26809116019091170187
:104DD0000C94161C08950C94EA2698E0899F900183
:104DE0001124622B60930D030E94E62480910D0331
:104DF0008595859585950C94EB2610920D0380E0A2
:104E00000C94EB2690910D038095892380930D03DC
:104E1000282F277071F4282F082E000C330B9217BF
:104E2000130639F08595859585950E9407250C9484
:104E3000FD2608956FEF7FEF90E080E00C941C3525
:104E400090E080E00E94F83421E08C3E9E4F09F013
:104E500020E0822F089582E090E00C94EA3483E011
:104E600090E00C94EA34CF9384E090E00E94EA341E
:104E7000C82F81E290E00E94EA34982F8C2FCF91C6
:104E80000895CF93C92F682F84E090E00E94FE34EC
:104E90006C2F81E290E0CF910C94FE3486E090E09C
:104EA0000C94EA34682F86E090E00C94FE34AB0159
:104EB000BC018FE090E00C941035AB01BC0183E1A4
:104EC00090E00C94103560E070E0CB010C945D270D
:104ED00060E070E0CB010E9457270C9463276CEED2
:104EE0007EEF90E080E00E941C3560E082E090E080
:104EF0000E94FE3460E083E090E00E94FE34109255
:104F0000090310920A0310920B0310920C0360E045
:104F100084E090E00E94FE3460E081E290E00E9434
:104F2000FE3460E085E090E00E94FE3460E086E0C0
:104F300090E00E94FE346FEF87E090E00E94FE3424
:104F400040E050E0BA0188E090E00E94103560E057
:104F50008DE090E00E94FE3440E050E0BA0188E12C
:104F600090E00E94103560E087E190E00E94FE34FE
:104F700040E050E0BA018CE190E00E94103560E022
:104F800080E290E00E94FE340C9468270C946F2716
:104F9000682F8EE090E00C94FE34FC0132968091F4
:104FA0002A01882321F08091DF039EE187FF96E0AC
:104FB00080E0915008F4089521912223D1F38F5F6E
:104FC000F8CF662301F120912A012223F1F02091EC
:104FD000DF0327FF1AC0462F4695469546954E316A
:104FE00090F4677021E030E002C0220F331F6A9511
:104FF000E2F7840F911DFC01828190E02823392380
:1050000081E0232B69F480E00895FC013296089634
:105010002191261721F0E817F907D1F7F4CF81E0A5
:1050200008959C01FC0132969FEF80E04191461764
:1050300051F09F3F19F4411101C0982F8F5F8630C6
:10504000A9F79F3F09F40895290F311D97FD3A955F
:10505000F90162830895FC01329608962191261386
:1050600003C0DF0111971C92E817F907B9F70895FB
:10507000E62FE695E695E695EE3168F4E80FF92F10
:10508000F11D677021E030E001C0220F6A95EAF758
:105090008281822B82830895E62FE695E695E69538
:1050A000EE3170F4E80FF92FF11D677021E030E068
:1050B00001C0220F6A95EAF7209582812823228376
:1050C000089520912A01222329F02091DF0327FD52
:1050D0000C9438280C94112820912A01222329F0BD
:1050E0002091DF0327FD0C944C280C942B28FC0105
:1050F000329680912A01882351F08091DF0387FF47
:1051000006C08EE1DF011D928A95E9F7089586E0D9
:10511000F9CF089508950C948A280E948B288091D5
:10512000E503843061F11092330388E190E020E4DC
:105130000FB6F894A895809360000FBE209360008E
:1051400080E00E94ED1580E00E94260A0E948B28D4
:1051500083B7817F846083BF83B7816083BF789486
:10516000889583B78E7F83BF0FB6F894A8958091FA
:105170006000886180936000109260000FBE089507
:105180000895CF930E9489280E94DE0C0E94C028B7
:10519000C0E08C2F0E94880C892B31F4CF5FC73080
:1051A000C1F780E0CF91089581E0FCCF08950C9481
:1051B000D6280E94EC200E94EF140E940A1C0E9434
:1051C000260A0C94D7281F921FB61F9211248F9382
:1051D0009F93AF93BF9380913303811113C080914C
:1051E000DB039091DC03A091DD03B091DE034196D7
:1051F000A11DB11D8093DB039093DC03A093DD031D
:10520000B093DE03BF91AF919F918F911F901FBE0E
:105210001F90189582E084BD93E095BD9AEF97BDED
:1052200080936E0008952FB7F8948091DB039091DE
:10523000DC03A091DD03B091DE032FBF08952FB7EB
:10524000F8946091DB037091DC038091DD03909111
:10525000DE032FBF08959C014FB7F8948091DB03C4
:105260009091DC03A091DD03B091DE034FBF821B60
:10527000930B089578941F921FB61F9211248F9359
:105280009F93AF93BF938091DB039091DC03A09138
:10529000DD03B091DE030196A11DB11D8093DB03F8
:1052A0009093DC03A093DD03B093DE03BF91AF9135
:1052B0009F918F911F901FBE1F90189581E0809342
:1052C000E00080E28093D8001092C9008FE19EE454
:1052D0000197F1F700C0000087E090EBDC018093BC
:1052E000EE039093EF03A093F003B093F10388E1F2
:1052F0009CE00FB6F894A895809360000FBE909341
:105300006000FFCF0C94B9160E94DE0C2FEF86E7E9
:1053100091E0215080409040E1F700C000000E94E1
:10532000DE0C80E00E94880C80FF04C00E9482296D
:105330000C945E2908950E942027811102C00E94CA
:10534000C6270E942B27809332030E943327909315
:10535000E0038093DF030E942F27682F70E090E026
:1053600080E00C94842480913B0380FF12C0609104
:105370001D0185E0689FB0011124759567957595AD
:10538000679560387105A8F561157105A1F1862F43
:10539000089581FF09C060911D0185E0689FB001FB
:1053A000112475956795EDCF60911D0182FD0AC0AE
:1053B00080913A038823D1F090911C0160911D01E6
:1053C000891728F085E0689FB0011124DACF869F05
:1053D000B001112485E0869F9001879F300D112434
:1053E000692F70E0C9010E942434CBCF65E070E0E2
:1053F000CECF8FE7089581E0089580913B0380FF31
:105400000CC06091190170E0759567957595679569
:105410006115710549F1862F089581FF06C06091DD
:10542000190170E075956795F3CF6091190182FDC0
:105430000BC090913A039923A1F0609118018091DB
:105440001901961738F0682F70E06038710500F385
:105450008FE70895899FC001112470E00E942434D1
:10546000F4CF61E070E0D7CF81E00895803F31F460
:105470000E94B329819580933F030895813F19F4D9
:105480000E94B329F8CF823F31F40E94B32981955D
:1054900080933E030895833F19F40E94B329F8CF07
:1054A000893F29F40E94FD298093400308958A3F93
:1054B00021F40E94FD298195F7CF8B3F31F40E94A2
:1054C000FD2981958093410308958C3F19F40E9432
:1054D000FD29F8CF843F31F480913D0381608093B2
:1054E0003D030895853F21F480913D038260F7CF0D
:1054F000863F21F480913D038460F1CF873F21F402
:1055000080913D038860EBCF883F21F480913D037B
:105510008061E5CF8D3F31F480913B0381608093C2
:105520003B0308958E3F21F480913B038260F7CFC7
:105530008F3FB9F780913B038460F1CF90913E0398
:10554000803F41F480913F0387FD10923F039923F0
:1055500071F00895813F29F480913F031816ACF350
:10556000F6CF823F81F497FFF2CF10923E038091F5
:105570003F0390914003892B90914103892B49F778
:1055800010923A030895833F19F4191674F3DFCF8C
:10559000893F39F4809140031816CCF610924003ED
:1055A000D6CF8A3F29F48091400387FFD0CFF6CF32
:1055B0008B3F39F48091410387FFC9CF109241039B
:1055C000C6CF8C3F29F4809141031816BCF3BFCF9E
:1055D000843F31F480913D038E7F80933D03B7CFAC
:1055E000853F21F480913D038D7FF7CF863F21F4E5
:1055F00080913D038B7FF1CF873F21F480913D0364
:10560000877FEBCF883F21F480913D038F7EE5CFEC
:105610008D3F31F480913B038E7F80933B0397CF86
:105620008E3F21F480913B038D7FF7CF8F3F09F0B0
:105630008ECF80913B038B7FF0CF8CE393E00E9471
:10564000301C0E94132990933903809338030895E6
:10565000CF93DF9300D000D000D0CDB7DEB786E087
:10566000ECE3F3E0DE01119601900D928A95E1F7EB
:1056700080913E0390913F03892B81F08091360306
:10568000909137030E942B29AC0190913A03992302
:1056900031F180911E018417150670F1809140034D
:1056A00090914103892B91F08091340390913503BF
:1056B0000E942B29AC0190913A03992309F478C0F8
:1056C00080911A018417150608F480C026960FB63B
:1056D000F894DEBF0FBECDBFDF91CF91089520912A
:1056E0001F018AE0289F9001112424173507B0F686
:1056F0009F5F90933A0302C09F3FD1F710924003FF
:105700001092410380913E03181624F40E94B3299D
:1057100080933E0380913E0387FF05C00E94B3291A
:10572000819580933E0380913F03181624F40E94D4
:10573000B32980933F0380913F0387FF05C00E94F8
:10574000B329819580933F0330913E033323A1F029
:1057500020913F03222381F045EB3403C001112443
:105760009923F1F090933E0345EB2403900111241B
:105770003323D1F030933F030E941D2B80913803D7
:1057800090913903909337038093360386E0FE01AE
:105790003196ACE3B3E001900D928A95E1F77ECFAC
:1057A00081E080933E03E0CF81E080933F03E4CF2C
:1057B00020911B018AE0289F9001112424173507AE
:1057C00008F084CF9F5F90933A0302C09F3FD1F7C8
:1057D00010923E0310923F0380914003181624F468
:1057E0000E94FD29809340038091400387FF05C0FC
:1057F0000E94FD29819580934003809141031816F2
:1058000024F40E94FD29809341038091410387FF86
:1058100005C00E94FD29819580934103309140038A
:105820003323A1F020914103222381F045EB34037F
:10583000C00111249923F1F09093400345EB240318
:10584000900111243323D1F0309341030E941D2B8A
:1058500080913803909139039093350380933403FA
:1058600086E0FE013196ACE3B3E001900D928A959B
:10587000E1F72CCF81E080934003E0CF81E080937B
:105880004103E4CF86E0ECE3F3E0DF011D928A956B
:10589000E9F710923A0310923B0308958091620356
:1058A0000895CF93DF9300D00F92CDB7DEB79091DC
:1058B000E503943011F589837B836A839093E90033
:1058C0008FEF9091E800815095FD06C095ED9A9577
:1058D000F1F700008111F5CF8091E80085FF0DC040
:1058E00050E040E063E070E0CE0101960E94062F98
:1058F0008091E8008E778093E8000F900F900F90D2
:10590000DF91CF910895CF93DF93EC010E94E92EB0
:10591000823011F0843031F4BE0184E0DF91CF9108
:105920000C94512CDF91CF910895BC0183E00C942D
:10593000512CCF93DF93EC010E94E92E823011F0BD
:105940008430F9F484E08093E9008FEF9091E800CF
:10595000815095FD06C095ED9A95F1F700008111F3
:10596000F5CF8091E80085FF0CC050E040E066E094
:1059700070E0CE010E94062F8091E8008E77809320
:10598000E800DF91CF910895CF93DF93EC010E945F
:10599000E92E823011F08430B9F580912A018823F4
:1059A000B1F18091DF0387FF32C060E284E0809331
:1059B000E9008FEF9091E800815095FD06C095EDCC
:1059C0009A95F1F700008111F5CF8091E80085FFED
:1059D0001BC080912A0170E050E040E0811104C0BA
:1059E00050E040E068E070E0CE010E94062F809118
:1059F000E8008E778093E80080E2FE01A2E4B3E045
:105A000001900D928A95E1F7DF91CF91089568E0BA
:105A100081E0CDCFCF93FC01603221F58091E50389
:105A2000843001F5C091E900CF702091EC00922FF5
:105A3000917020FD90E8C92B82E08093E90080916D
:105A4000E80080FF0CC050E040E060E270E0CF0171
:105A50000E94062F8091E8008E778093E800CF7037
:105A6000C093E900CF9108958091E403811109C0AA
:105A70000E94E5300E9442318091E2008460809370
:105A8000E20008951092E4030895089508950C9497
:105A9000D92842E061EC81E00E94613042E261EC91
:105AA00084E00E94613042E261EC82E00E94613059
:105AB00042E260EC83E00C9461308091E703833034
:105AC00009F461C030F48130D1F1823009F49DC015
:105AD00008958A3009F489C08B3009F46FC0893089
