:100000000C94A7030C94EE030C94EE030C94EE03F3
:100010000C94EE030C94EE030C94EE030C94EE039C
:100020000C94EE030C94EE030C947B210C9437217A
:100030000C9475280C94EE030C94EE030C94EE03D0
:100040000C94EE030C94AF280C94EE030C94EE0386
:100050000C949C280C9451280C94EE030C94EE0301
:100060000C94EE030C94EE030C94EE030C94EE034C
:100070000C94EE030C94EE030C94EE030C94EE033C
:100080000C94EE030C94EE030C94EE030C94EE032C
:100090000C94EE030C94EE030C94EE030C94EE031C
:1000A0000C94EE030C94EE030C94EE03050109028C
:1000B000A10185020901A100050919012905150001
:1000C00025019505750181029501750381010501E1
:1000D000093009311581257F950275088106093897
:1000E0001581257F950175088106050C0A380215D2
:1000F00081257F950175088106C0C005010980A191
:1001000001850319012AB700150126B7009501756D
:10011000108100C0050C0901A101850419012AA064
:1001200002150126A002950175108100C005010984
:1001300006A1018505050719E029E71500250195A8
:1001400008750181020507190029EF1500250195A1
:10015000F0750181020508190129059505750191C0
:1001600002950175039101C00660FF0961A10109B3
:1001700062150026FF0095207508810209631500AD
:1001800026FF00952075089102C005010906A1010E
:10019000050719E029E71500250195087501810279
:1001A0009501750881010507190029FF150026FF33
:1001B0000095067508810005081901290595057542
:1001C000019102950175039101C000010101010136
:1001D0000101010102020202020202020203030300
:1001E00003030303030404040404040405050505D0
:1001F0000506060606060707070707080808080990
:100200000909090A0A0A0B0B0B0C0C0C0D0D0D0E3B
:100210000E0E0F0F0F1010111111121213131414D0
:10022000151516161717181819191A1A1B1B1C1D45
:100230001D1E1E1F2020212222232424252626279E
:100240002829292A2B2C2D2D2E2F303132323334D0
:1002500035363738393A3B3C3D3E3F4041424344D6
:1002600045464748494A4C4D4E4F505153545556B8
:1002700058595A5B5D5E5F616264656668696B6C64
:100280006D6F7072737577787A7B7D7E80828385DF
:1002900087888A8C8E8F91939596989A9C9EA0A21F
:1002A000A3A5A7A9ABADAFB1B3B5B7BABCBEC0C229
:1002B000C4C6C9CBCDCFD1D4D6D8DBDDDFE2E4E7ED
:1002C000E9EBEEF0F3F5F8FAFDFFFFAA7F554022C7
:1002D00023252628292A2C2D2F3032333536383A3B
:1002E0003B3D3E4042434547494A4C4E5051535591
:1002F00057595A5C5E6062646668696B6D6F7173B2
:100300007577797B7D7F81838587898A8C8E9092B2
:100310009496989A9C9E9FA1A3A5A7A8AAACAEAFBD
:10032000B1B3B4B6B8B9BBBCBEBFC1C2C3C5C6C702
:10033000C9CACBCCCDCED0D1D2D2D3D4D5D6D7D7B3
:10034000D8D9D9DADADBDBDBDCDCDCDCDCDDDDDDFB
:10035000DDDCDCDCDCDCDBDBDBDADAD9D9D8D7D7F7
:10036000D6D5D4D3D2D2D1D0CECDCCCBCAC9C7C6A4
:10037000C5C3C2C1BFBEBCBBB9B8B6B4B3B1AFAEE2
:10038000ACAAA8A7A5A3A19F9E9C9A989694929088
:100390008E8C8A89878583817F7D7B797775737160
:1003A0006F6D6B6968666462605E5C5A595755533D
:1003B00051504E4C4A4947454342403E3D3B3A38F6
:1003C00036353332302F2D2C2A2928262523222971
:1003D000001E001F00200021002200230024002511
:1003E00000260027002D002E002A002B0014001AE2
:1003F000000800150017001C0018000C0012001364
:10040000002F0030003100390004001600070009F9
:10041000000A000B000D000E000F00330034000036
:10042000002800E10000001D001B00060019000567
:1004300000110010003600370038004C005200E078
:1004400000E300E200000000002C000000E5005086
:10045000003500E700015151004F00005C3A003BBD
:10046000003C003D003E003F004000410042004390
:10047000004400450068000000F9005200FA002A1C
:10048000004A00B200000049000000460047004852
:10049000004C000000500051004F004C004D004E39
:1004A000000000000000004A004B0000002800E1AE
:1004B00000000000006500C05C00000000AA00A968
:1004C00000A8004D004E0049004B00E000E300E2B0
:1004D00000000000002C000000E5004A006900E771
:1004E0000001004E004D000100010001000100016B
:1004F00000010001000100010001000100010001F4
:1005000000010001000100010001000100010001E3
:1005100000010001000100010001000100010001D3
:1005200000010001000100010001000100010001C3
:1005300000010001000100010001000100010001B3
:1005400000010001000100010001000100010001A3
:100550000001000100010001000100010000000095
:100560000001000000010001000100010001000184
:100570000001000100010001000100010001000173
:100580000001000100010001000100010001000163
:100590000001000100010001000100010001000153
:1005A0000001000100010001000100010001000143
:1005B0000001000100010001000100010001000133
:1005C0000001000100010001000100010001000123
:1005D0000001000100010001000100010001000113
:1005E0000001000100010001000000000001000006
:1005F00000010001000100010001000100010000F4
:1006000000000000000000000000000000000000EA
:100610000000007E0F00D4FFFFFFC700000078003D
:10062000000000000000002A2B280000000000004D
:100630000000000000000000000029000000002C65
:100640001E3420212224342627252E362D37382704
:100650001E1F202122232425263333362E37381F10
:100660000405060708090A0B0C0D0E0F10111213D2
:100670001415161718191A1B1C1D2F3130232D3570
:100680000405060708090A0B0C0D0E0F10111213B2
:100690001415161718191A1B1C1D2F3130354C3222
:1006A000190A00047F3F1F643214643214783C1E20
:1006B0001E140A0509025B00030100A0FA090400E8
:1006C000000103010100092111010001224000077E
:1006D00005810308000A0904010002030000000963
:1006E00021110100012222000705820320000107D9
:1006F00005030320000109040200010300000009B2
:10070000211101000122BC000705840320000A1208
:100710000110010000000844786363010001020336
:10072000010403300000001203580044003600307A
:1007300000720065007600330000000C0358004989
:10074000005500440049000000040309040011247E
:100750001FBECFEFDAE0DEBFCDBF04B603FE27C079
:1007600080910F0390911003A0911103B091120397
:100770008730904BA740B04BD1F410920F031092EA
:100780001003109211031092120314BE84B7877FD6
:1007900084BF0FB6F894A89580916000886180931B
:1007A0006000109260000FBEE0E0F8E3099523E0DE
:1007B000AAE9B1E001C01D92AF30B207E1F711E044
:1007C000A0E0B1E0E2EEF4E502C005900D92AA3996
:1007D000B107D9F70E945A220C94242A0C940000E5
:1007E000E8EDF0E080818E7F80831092E20010922D
:1007F000DA001092E100A0EEB0E08C9181608C9361
:1008000080818F77808319BCA7EDB0E08C918E7FBB
:100810008C9380818F7E80831092DC0208952091DA
:10082000E4003091E50095E6A9012091EC00822FCB
:10083000817020FF06C08091E80080FF06C080E044
:1008400008952091E80022FD1AC080910A038823B0
:1008500089F0853089F08091EB0085FD0FC02091F3
:10086000E4003091E50042175307F9F29150E1F6A8
:1008700084E0089582E0089583E0089581E008957A
:10088000EF92FF920F931F93CF937C018B010E94F5
:100890000F04C82F811117C08091E80085FD0BC09F
:1008A0008091E8008E778093E8000E940F048823EF
:1008B00099F3C82F08C0F70181917F018093F1005F
:1008C0000150110949F78C2FCF911F910F91FF9083
:1008D000EF900895CF93FC0180910A03843001F5D5
:1008E000C091E900CF702091EC00922F917020FD13
:1008F00090E8C92B82E08093E9008091E80080FFB6
:100900000CC050E040E060E270E0CF010E94400483
:100910008091E8008E778093E800CF70C093E90063
:10092000CF9108958091020387FF13C08091E80062
:1009300082FF06C08091E8008B778093E80004C0B6
:1009400080910A038111F2CF089580910A038823D0
:10095000D9F38091E80080FFF8CF8091E8008E778E
:10096000ECCF982F9093E900242F762F50E0891731
:1009700031F07091EC002091ED005091F00021FDDC
:1009800007C09F5F973071F78093E90081E0089579
:100990003091EB003E7F3093EB003091ED003D7FD6
:1009A0003093ED003091EB0031603093EB007093A9
:1009B000EC002093ED005093F0002091EE0027FD15
:1009C000E0CF80E00895CF92DF92EF92FF920F93F5
:1009D0001F93CF93DF93C8EDD0E088818F7E88830B
:1009E000E7EDF0E080818160808384E082BF81E078
:1009F0008093DC0288818E7F888302EE10E0F8010C
:100A000010821092DA0081EEC82ED12CF6011082ED
:100A100088818F77888388818068888388818F7DAB
:100A2000888319BC10920A031092010310920003EC
:100A30001092FF0290EEE92EF12CF70180818B7F5E
:100A4000808388818160888342E060E080E00E944A
:100A5000B104F60180818E7F8083F80180818160FE
:100A60008083808188608083F70180818E7F80838E
:100A7000888180618883DF91CF911F910F91FF90D2
:100A8000EF90DF90CF900895FC0180910803909142
:100A9000090386179707A0F06115710529F4909155
:100AA000E8009E779093E80090E06115710551F49D
:100AB000911108C08091E80082FF34C080E0089561
:100AC000BC01F2CF80910A038823C1F18530C1F1C6
:100AD0008091E80083FD30C08091E80082FDEACF7C
:100AE0008091E80080FFE1CF8091F3002091F20037
:100AF000382F6115710519F02830310558F091E053
:100B00002830310509F090E02091E8002E772093FD
:100B1000E800CBCF81918093F100615071092F5F84
:100B20003F4FE7CF80910A03882341F0853041F0A1
:100B30008091E80083FFBECF81E0089582E00895B0
:100B400083E0089580910A03843011F482E00895CF
:100B500081E0089508958091DE0208959091B60293
:100B6000803F41F48091B70287FD1092B70299232C
:100B700071F00895813F29F48091B7021816ACF303
:100B8000F6CF823F81F497FFF2CF1092B6028091A8
:100B9000B7029091B802892B9091B902892B49F73D
:100BA0001092B1020895833F19F4191674F3DFCF40
:100BB000893F39F48091B8021816CCF61092B80229
:100BC000D6CF8A3F29F48091B80287FFD0CFF6CFE5
:100BD0008B3F39F48091B90287FFC9CF1092B902D7
:100BE000C6CF8C3F29F48091B9021816BCF3BFCF51
:100BF000843F31F48091B5028E7F8093B502B7CFE8
:100C0000853F21F48091B5028D7FF7CF863F21F497
:100C10008091B5028B7FF1CF873F21F48091B5029F
:100C2000877FEBCF883F21F48091B5028F7EE5CF9F
:100C30008D3F31F4809196028E7F8093960297CFFC
:100C40008E3F21F4809196028D7FF7CF8F3F09F080
:100C50008ECF809196028B7FF0CF8091960280FD9F
:100C600016C081FD16C082FD16C08091B102882396
:100C7000A1F0883280F428E0829FC001112468E24C
:100C800070E00E94EF28862F672B39F0089582E0EC
:100C9000089584E0089588E0089581E008958091A2
:100CA000960280FD14C081FD14C082FD16C08091A3
:100CB000B102882381F0843180F422E3829FC00155
:100CC000112464E170E00E94EF28862F08958CE0E3
:100CD000089589E1089585E0089582E30895803FAD
:100CE00031F40E944F0681958093B7020895813FA9
:100CF00019F40E944F06F8CF823F31F40E944F064C
:100D000081958093B6020895833F19F40E944F069F
:100D1000F8CF893F29F40E942D068093B8020895E8
:100D20008A3F21F40E942D068195F7CF8B3F31F445
:100D30000E942D0681958093B90208958C3F19F485
:100D40000E942D06F8CF843F31F48091B502816076
:100D50008093B5020895853F21F48091B5028260A9
:100D6000F7CF863F21F48091B5028460F1CF873FB1
:100D700021F48091B5028860EBCF883F21F4809107
:100D8000B5028061E5CF8D3F31F48091960281609C
:100D90008093960208958E3F21F48091960282609E
:100DA000F7CF8F3FB9F7809196028460F1CF9C0115
:100DB0004FB7F8948091D8029091D902A091DA02AD
:100DC000B091DB024FBF821B930B08952FB7F894AD
:100DD0008091D8029091D902A091DA02B091DB0201
:100DE0002FBF0895E091A402F091A502309749F039
:100DF00082E08093B4020480F581E02D84EB92E0E0
:100E000009950E94E6069093B0028093AF02089580
:100E10008091910281111092910208958091900227
:100E200090918F02892B90918E02892B80939A0149
:100E3000909191029923A1F0892B80939A0180913E
:100E40001B01882341F18091A10287FF24C08EE11C
:100E5000ECE9F1E090E0815000F591110E94080763
:100E6000E091A402F091A5023097E1F080911B017E
:100E7000882359F08091A10287FF07C080919A01D1
:100E800080939B0185E080939A010280F381E02D9D
:100E90008AE991E0099486E0DBCF21912223D9F2FF
:100EA0009F5FD9CF089590911B019923D1F0909124
:100EB000A10297FF16C0E82FE695E695E695EE317C
:100EC000E0F4F0E0E656FE4F282F277081E090E036
:100ED00001C0880F2A95EAF7809592818923828341
:100EE0000895ECE9F1E09191891303C0DF011197B6
:100EF0001C9291E0E23AF907B1F7089590911B0135
:100F00009923C1F09091A10297FF14C0E82FE695B4
:100F1000E695E695EE31F8F4F0E0E656FE4F877080
:100F200021E030E001C0220F8A95EAF78281822B0E
:100F300082830895ACE9B1E0EFEF90E02D91821744
:100F400051F0EF3F19F4211101C0E92F9F5F963056
:100F5000A9F7EF3F09F408950E2E000CFF0BE6569B
:100F6000FE4FE6CF2EE0929F800D1124982F9770B0
:100F700086958695869525E0829FF0011124E05A9A
:100F8000FD4F50E040E080E0219130E0092E02C0AA
:100F9000369527950A94E2F721703327042E01C075
:100FA000220F0A94EAF7822B4F5F5F4F45305105BD
:100FB00059F708952EE0929F800D1124982F977075
:100FC00041E001C0440F9A95EAF78695869586958B
:100FD00095E0899FF0011124E05AFD4F90E080E0F8
:100FE00070E05191DF0111979B01082E02C03695E8
:100FF00027950A94E2F72170219525272423252798
:101000002C9301968530910561F7089580915F02D8
:1010100090912E02981301C008958F5F8770FACFC8
:10102000882341F0809590919002892380939002CB
:101030000C940E070895882339F090919002982B14
:10104000909390020C940E07089520912402309101
:1010500025022817390771F0909325028093240206
:10106000E091A402F091A502309721F00084F1856F
:10107000E02D09940895209122023091230228172F
:10108000390771F09093230280932202E091A40229
:10109000F091A502309721F00680F781E02D0994A8
:1010A000089510928F0210928E020E940E0786E021
:1010B000E4EBF2E0DF011D928A95E9F71092B102AC
:1010C000109296020E94F20690E080E00E943B0897
:1010D00090E080E00C94250860930B0370930C0360
:1010E00080930D0390930E030C9451080F931F935C
:1010F00060910B0370910C0380910D0390910E038E
:101100008B019C0106701127222733270630110519
:101110002105310529F468601F910F910C946C082A
:10112000677FFACF0F931F9341E050E060E070E0DB
:1011300004C0440F551F661F771F8A95D2F7CB0155
:10114000BA01609570958095909500910B03109170
:101150000C0320910D0330910E0360237123822331
:1011600093231F910F910C946C0890918D028095A0
:10117000892380938D02282F277071F4282F082E41
:10118000000C330B9217130639F0859585958595DC
:101190000E94920810928D0208950F931F9341E0D0
:1011A00050E060E070E004C0440F551F661F771FD9
:1011B0008A95D2F780910B0390910C03A0910D03B7
:1011C000B0910E038A019B01082B192B2A2B3B2B74
:1011D000C901B8011F910F910C946C0860939202A1
:1011E0007093930280939402909395020C9451080B
:1011F000E091A402F091A502309721F00190F081D6
:10120000E02D099480E00895882309F459C08238BC
:1012100071F40E94F80881FF53C089E30E947E07A1
:101220000E940E0789E30E9453070C940E0783382F
:1012300059F40E94F80880FF43C083E50E947E07AE
:101240000E940E0783E5EFCF843859F40E94F80816
:1012500082FF36C087E40E947E070E940E0787E463
:10126000E2CF9CEF980F913AF0F290E2980F98300D
:1012700088F4877021E030E0A90102C0440F551FB7
:101280008A95E2F7CA018095909190028923809314
:101290009002CBCF9BE5980F933020F490E080E054
:1012A0000C943B0898E5980F973120F490E080E08B
:1012B0000C942508803F20F00E94AE050C94F206A5
:1012C0000895CF92DF92EF92FF92873088F58111D7
:1012D00030C02091880030918900232B51F09091EB
:1012E0006F009D7F90936F0090916F009E7F909311
:1012F0006F008D9A282F30E0AFEFBFEF0E94152AC4
:1013000026E030E040E050E00E94F329C9012C378C
:1013100064E13607F8F469E070E00E94DB2870931E
:10132000890060938800FF90EF90DF90CF90089540
:1013300086E02091880030918900232BD9F6909186
:101340006F00926090936F0090916F009160909306
:101350006F00D0CF2A50374D4F4F5F4F942F832FC0
:10136000722F662725EF38E241E050E00E94F32912
:1013700069017A01CA01B9010E94B1289B01AC013F
:10138000C701B6010E94B128672F782F892F9927AE
:101390006115710521E08207910509F66FEF7FEF76
:1013A000BECF282F220F220F220F9091C6029770D6
:1013B000922B9093C602987F21E009F420E090914F
:1013C000C60220FB90F99093C6020C946109FA01C1
:1013D000811101C0FB0109948091C902982F9E7F61
:1013E00029F4817082608093C90208958635E8F3FC
:1013F00081708465F8CFAF92BF92DF92EF92FF9237
:101400000F931F93CF93DF93082F162FE901E42F3B
:10141000F0E0E653FE4F611110C0E4915E2F4E2FB5
:101420004983E8835A83DF91CF911F910F91FF90F9
:10143000EF90DF90BF90AF900895E62EF12C44918D
:10144000D42EE42FF0E026E0829FC00111242FEF7C
:1014500030E0B9010E94DB28802F90E0880F991FAF
:1014600055E5569FD001579FB00D11248A1B9B0B49
:10147000982F990F890F5901AE18BF08AE9ED00161
:10148000AF9EB00DBE9EB00D11245B2F189F800142
:101490001124012F11275901A01AB10AAE9E800113
:1014A000AF9E100DBE9E100D11245901A81AB1084F
:1014B000AE9CC001AF9C900DBE9C900D1124892F55
:1014C0009927281B390B2E9FC0012F9F900D3E9FFF
:1014D000900D1124E92F62307105A1F050F46115CF
:1014E000710509F49DCF6130710581F0EB2F512F0B
:1014F00097CF6430710569F080F06630710509F4AA
:101500008FCFF4CFE42F4B2F592F8ACFE42F412FC9
:1015100087CFEB2F542F492F83CF4B2F5D2DE12FFA
:101520007FCF9091A10292FF06C0282F287128300A
:10153000F9F4877F846093FF06C0282F2871283133
:10154000F1F4877E84612091A20220FF06C0382F2B
:1015500038713830D9F4877F816021FF06C0282F89
:1015600028712831D1F4877E816194FD877E0895AA
:10157000282F24712430F9F68B7F8860DCCF282F48
:101580002471243101F78B7E8861DDCF382F3171D2
:10159000313019F78E7F8860E0CF282F21712131FB
:1015A00021F78E7E8861E1CF81FF03C0229A2A98BD
:1015B00008952298FCCFCF93DF9300D00F92CDB740
:1015C000DEB790910A03943011F589837B836A8397
:1015D0009093E9008FEF9091E800815095FD06C04F
:1015E00095ED9A95F1F700008111F5CF8091E80013
:1015F00085FF0DC050E040E063E070E0CE01019651
:101600000E9440048091E8008E778093E8000F905C
:101610000F900F90DF91CF910895CF93DF93EC015E
:101620000E94A205823011F0843031F4BE0184E0C2
:10163000DF91CF910C94DB0ADF91CF910895BC012B
:1016400083E00C94DB0ACF93DF93EC010E94A205A8
:10165000823011F08430F9F484E08093E9008FEF58
:101660009091E800815095FD06C095ED9A95F1F7AF
:1016700000008111F5CF8091E80085FF0CC050E09B
:1016800040E066E070E0CE010E9440048091E800F6
:101690008E778093E800DF91CF910895CF93DF9309
:1016A000EC010E94A205823011F08430B9F58091DE
:1016B0001B018823B1F18091A10287FF32C060E253
:1016C00084E08093E9008FEF9091E800815095FDD0
:1016D00006C095ED9A95F1F700008111F5CF809144
:1016E000E80085FF1BC080911B0170E050E040E0E6
:1016F000811104C050E040E068E070E0CE010E943B
:1017000040048091E8008E778093E80080E2FE013B
:10171000AFEDB2E001900D928A95E1F7DF91CF91A4
:10172000089568E081E0CDCF81E08093E00080E221
:101730008093D8001092C9008FE19EE40197F1F7E1
:1017400000C0000087E090EBDC0180930F039093D2
:101750001003A0931103B093120388E19CE00FB62D
:10176000F894A895809360000FBE90936000FFCF1F
:10177000CF93C82F882309F4AFC08238C1F40E94E8
:10178000F80881FDA9C089E30E947E070E940E0728
:101790002FEF81EE94E0215080409040E1F700C0AF
:1017A000000089E30E945307CF910C940E07833801
:1017B000A1F40E94F80880FD8FC083E50E947E0797
:1017C0000E940E072FEF81EE94E021508040904060
:1017D000E1F700C0000083E5E5CF8438A1F40E9462
:1017E000F80882FD79C087E40E947E070E940E07F8
:1017F0002FEF81EE94E0215080409040E1F700C04F
:10180000000087E4CFCF8CEF8C0F813A90F5809168
:101810001B01882301F18091A10287FF1CC0EC2FDE
:10182000E695E695E695F0E0E656FE4F828190E07B
:101830004C2F477021E030E002C0220F331F4A9541
:10184000E2F782239323892B81F08C2F0E94530788
:101850000E940E070AC0ECE9F1E082EA91E02191D2
:10186000C21799F38E179F07D1F78C2F0E947E071E
:101870009BCF80E28C0F883068F4C77021E030E0A5
:1018800001C0220FCA95EAF780919002822B8093C3
:1018900090028ACFEBE5EC0FE33040F4F0E0E95B37
:1018A000FE4F808190E0CF910C943B08E8E5EC0F6F
:1018B000E73150F4F0E0EE0FFF1FE65BFE4F808152
:1018C0009181CF910C942508C03F30F08C2F0E945D
:1018D0006F06CF910C94F206CF910895CF93C82F45
:1018E0000E94B80BC93349F42FEF87EE93E02150E3
:1018F00080409040E1F700C000008C2FCF910C9405
:1019000004090F931F93CF93DF93C62FD42F022F79
:10191000FC0182818823A1F0609326020E94E606E2
:101920009093210280932002C77081E001C0880F4C
:10193000CA95EAF7DF91CF911F910F910C941B0884
:1019400010912602161335C0809120029091210239
:101950000E94D706883C910560F5C0E2CD0F1D17A7
:10196000B9F080E2810F883040F4177081E001C047
:10197000880F1A95EAF70E941008C83048F481E0F1
:101980009D2F977001C0880F9A95EAF70E941B0857
:10199000802F0E946E0CC83098F4D77081E001C08F
:1019A000880FDA95EAF7DF91CF911F910F910C9490
:1019B0001008C77081E001C0880FCA95EAF7F3CF1D
:1019C000DF91CF911F910F9108958091C90280FD01
:1019D0000AC0E0ECF1E0118210821282339651E0ED
:1019E000E43EF507C1F7869A31B33F7B21B320640B
:1019F0004FB7F89480EC91E0FC015191CF0168E081
:101A000021BB000000C057FF31BB550F000000C0D4
:101A100000C000C031BB00C06A9591F7F1E0843E80
:101A20009F0751F74FBF8FE594E00197F1F700C092
:101A300000000895EF92FF921F93CF93DF93EC0184
:101A400080ECE82E81E0F82E10E08C819701409127
:101A5000CC026091CB02810F0E94FB091B5E83E0E8
:101A6000E80EF11C1C3F89F70E94E50C9A818C81DD
:101A700090FF08C08F5F8C83DF91CF911F91FF9003
:101A8000EF9008958150F7CFBF92CF92DF92EF92FF
:101A9000FF920F931F93CF93DF93FC018281DD248C
:101AA000DA9480FD02C0DD24D39400EC11E0D0E094
:101AB000C0E02CE0B22EF80111821082128294E074
:101AC000E92EF12CC12C8091BD018C0D8D300CF4D0
:101AD0003DC06B2D0E94CD28892F082E000C990B3C
:101AE0008C179D0791F48091CC028E9DA0018F9D53
:101AF000500D11245595479555954795980160913E
:101B0000CB028091CA020E94FB09CD0CF1E0EF1AD2
:101B1000F108C9F621960D5F1F4FCC30D10559F65B
:101B20000E94E50C8091BD0191E0D91215C0811190
:101B300011C08BE08093BD01DF91CF911F910F9178
:101B4000FF90EF90DF90CF90BF90089587FFC5CFB3
:101B5000845FC3CF8150EECF90E00196BE010E941A
:101B6000EF28E8CF0F931F93CF93DF93C0ECD1E022
:101B7000FE01118210821282339681E0E43EF80762
:101B8000C1F710E000E08091BE01082E000C990B17
:101B9000081719078CF180911001082E000C990B81
:101BA000801791074CF19E014091CC026091CB02CD
:101BB0008091CA020E94FB090F5F1F4F23960C30D1
:101BC000110509F70E94E50C80910F019091BE016B
:101BD000980F9093BE0120911001280F20931001BF
:101BE000121614F49B301CF0819580930F01DF9145
:101BF000CF911F910F910895198218821A82DCCF1C
:101C0000EF92FF920F931F93CF93DF93EC018C81A0
:101C10009D810196817099279D838C8380ECE82EAD
:101C200081E0F82E10E005E5812F86952C813D811D
:101C3000820F932F911D817097014091CC0260918A
:101C4000CB02809F802D11240E94FB091F5F83E03F
:101C5000E80EF11C1C3041F7DF91CF911F910F91DD
:101C6000FF90EF900C94E50CEF92FF920F931F936F
:101C7000CF93DF938C01C0ECD1E0F12CE12CF80183
:101C800094816091CB028091CA02F6E0EF16F104D4
:101C9000FCF49923F9F09E014091CC020E94FB09CB
:101CA0002FEFE21AF20A23968CE0E816F10439F7D6
:101CB0000E94E50CF801848190E0019681709927DB
:101CC0008483DF91CF911F910F91FF90EF90089542
:101CD000992309F39E0140E0E1CF9091C90290FF62
:101CE0000CC0E0ECF1E0818360834283339691E0A5
:101CF000E43EF907C1F70C94E50C08950F931F9388
:101D0000CF93DF9300D00F92CDB7DEB78C018091D7
:101D1000BF0181110AC09E012F5F3F4F4FEF6FEF50
:101D20000E94FB098A818093BF01F80164816130C0
:101D300069F08091BF0140E0662361F040E06230CD
:101D400011F44091BF0180E060E004C06091BF01E8
:101D500040E080E00E946D0EF801848190E00196E1
:101D600063E070E00E94EF2884830F900F900F9043
:101D7000DF91CF911F910F910895CF93DF9300D002
:101D80000F92CDB7DEB79091C90290FF0AC09E01B5
:101D90002F5F3F4F0E94FB094B8169818A810E941E
:101DA0006D0E0F900F900F90DF91CF910895CF930C
:101DB000DF93EC01EC81F0E0E153FD4F4491E9EC5D
:101DC000F2E0628181810E94BD0E8C818F5F8C83E5
:101DD000DF91CF910895CF93DF93EC01E9ECF2E02E
:101DE000438162818C810E94BD0E8C818F5F8C83C8
:101DF000DF91CF9108957F928F929F92AF92BF9281
:101E0000CF92DF92EF92FF920F931F93CF93DF93C6
:101E100008E711E0A7E9B2E0712CCC24C394D12CDF
:101E2000E80189918E01E82FE295EF70F0E091A131
:101E30008F70760101C0EE0C8A95EAF7892F8E2902
:101E400081A392A17E2D7095972392A3D0EADA9573
:101E5000F1F79DE7A92E91E0B92E50E040E030E087
:101E600020E0E50169915E01862E82948FE0882250
:101E7000912CE40188A190E06F7002C09595879540
:101E80006A95E2F780FD65C0C601042E02C0880F86
:101E9000991F0A94E2F7282B392B4F5F5F4F4E3082
:101EA0005105F9F681A1872381A382A1E82AE2A244
:101EB0008D919C9111972817390709F44DC01196FF
:101EC0003C932E9381E0782A1296D1E00D371D07BE
:101ED00009F0A6CF772009F441C081E08093BC01CE
:101EE0000E94E6069093BB018093BA018091BA01EB
:101EF0009091BB010E94D7060697A0F180919702AE
:101F0000909198029093CF028093CE028091990293
:101F100090919A029093D1028093D00280919B027B
:101F200090919C029093D3028093D20280919D0263
:101F300090919E029093D5028093D40280919F024B
:101F40009091A0029093D7028093D6021092BC0188
:101F500009C090E080E09FCF80E0B5CF8091BC01C8
:101F60008111C4CF872DDF91CF911F910F91FF90E9
:101F7000EF90DF90CF90BF90AF909F908F907F9029
:101F80000895CF9384E090E00E947929C82F81E2E0
:101F900090E00E947929982F8C2FCF9108950F936C
:101FA0001F93CF93DF93C42FD0E0CC0FDD1F2CE124
:101FB000629FC00DD11D11243CE8839FC00DD11D2F
:101FC0001124CE0186960E947929082F10E0102F47
:101FD0000027CE0187960E9479299801282BC901F4
:101FE000DF91CF911F910F910895462F843038F4DF
:101FF000753028F46E3018F4672F0C94CF0F90E0F2
:1020000080E00895CF93DF930E94F50FEC018238B2
:102010009105A9F1D8F58133910509F496C048F5E9
:102020008932910509F48AC08A9709F495C0C115CF
:1020300021E5D20708F0BCC0C11530E5D30708F090
:1020400014C1C83ED10508F09CC0C03ED10560F562
:10205000C83AD10508F087C0C53AD10508F0FDC0DF
:10206000C130D10509F12097F9F0C430D105E0F471
:1020700040C08533910509F45AC0C997C1F68091D3
:10208000A102837089F0C0EED0E00EC0833E9105BE
:1020900099F170F4803E910501F1823E910539F687
:1020A0008091A10282FD21C0CE01DF91CF910895E0
:1020B000863E910561F1873E910571F1843E91055F
:1020C00009F0B5CF8091A20281FFEECF8091A102ED
:1020D000C7EED0E084FD0DC0E7CF8091A10280FD66
:1020E00012C19091A20290FFDFCFC3EED0E084FF37
:1020F000DBCFD0E0C0E0D8CF8091A10282FD06C145
:102100009091A20290FDBFCF84FFCECFF2CF8091FD
:10211000A10283FDDDCFC8CF8091A10283FDF9C06C
:102120009091A20291FFF0CFC4EED0E0BDCF80919C
:10213000A10285FFB9CFC9E2D0E0B6CF8091A1025C
:1021400085FFB2CFC5E3D0E0AFCF8091A10286FF7B
:10215000ABCFCAE2D0E0A8CF8091A10286FFA4CF86
:10216000C1E3D0E0A1CFCF3BD10518F6C85AD0E0EB
:10217000CC0FDD1FC65BDE4F0990D881C02DD46423
:1021800093CFC11540E2D40758F4C11581E0D807B8
:1021900008F08ACFC03FD10508F4ABCFD06584CF1B
:1021A000C11590E4D90708F4A4CFDF70D06A7CCFC2
:1021B000C11525E5D20700F5C11534E5D30708F0B0
:1021C0008AC0C11543E5D40708F071C0C11582E586
:1021D000D80708F467C0CE018370992721E030E06A
:1021E00002C0220F331F8A95E2F7C695C69580E29A
:1021F000C89FE001112452C0C11599E5D907A8F480
:10220000C11528E5D20708F06BC0C11536E5D30724
:1022100008F06FCF8C2F0E94910AC82FD0E0DC2FDE
:10222000CC27CC27DF71D0623FCFC1154AE5D40758
:1022300008F45BC0CE0190568115904208F059CF4A
:102240008D2F8F710E94910A90E0982F8827882700
:102250009F719C012C2BE901E6CFC55AD0E0C95BE8
:10226000DE4FC881D0E0D0641FCFCE01E4E0969568
:102270008795EA95E1F783702C2F26952695237094
:1022800040E2249F90011124382B8C2F8370C1E0F1
:10229000D0E002C0CC0FDD1F8A95E2F7C22BD32B12
:1022A000DC6802CFDC2FCC27C16FD06AFDCECE0117
:1022B0008370992721E030E002C0220F331F8A95F6
:1022C000E2F7C695C69590E2C99FE0011124C22BA2
:1022D000D32BDA68E9CEDC2FCC27C46FD06AE4CEEA
:1022E000DC2FCC27C06FD06ADFCE8C2F8F700E947E
:1022F000910A34E0D695C7953A95E1F7CF709C2FB7
:10230000EC01D069D1CEC9E3D0E0CECEC2EED0E0B0
:10231000CBCEC6EED0E0C8CEBF92CF92DF92EF9286
:10232000FF920F931F93CF93DF938C01C0900B0309
:10233000D0900C03E0900D03F0900E038091920278
:1023400090919302A0919402B0919502C82AD92A43
:10235000EA2AFB2ACFE1D0E0BC2ED701C6010C2E21
:1023600004C0B695A795979587950A94D2F780FDF6
:102370000EC0219788F7B12C8B2DDF91CF911F9143
:102380000F91FF90EF90DF90CF90BF900895B8012C
:102390008C2F0E940210019761F3EECFCF93DF9351
:1023A000EC010E948C11BE01DF91CF910C940210C0
:1023B0000E94CE11292F2F7092959F7092509E30BF
:1023C00078F4E92FF0E0EA5DF54D0C940329803FA5
:1023D00019F020F4883E20F481E00895843FE1F371
:1023E00080E00895883EC0F3813FD1F7F5CF822F7A
:1023F00086958695869508956F927F928F929F928B
:10240000AF92BF92CF92DF92EF92FF920F931F9302
:10241000CF93DF938FECC82E83E0D82E9EECE92E6D
:10242000F12CE701CC58D10936011BC0F50185908C
:102430009490692DC8010E948D29682DC8010196CC
:102440000E948D2982E0A80EB11C0E5F1F4FC0179D
:10245000D10761F78CE1680E711C6C96CE15DF0513
:1024600029F08E010C5111095301E0CF7E018CE857
:10247000E80EF11C8CE8C80ED11C8EEFE81682E045
:10248000F80679F6DF91CF911F910F91FF90EF90B1
:10249000DF90CF90BF90AF909F908F907F906F9084
:1024A0000895682F86E090E00C948D29CF93DF93F8
:1024B000C6E5D2E060E0CE010E948D292196C115CB
:1024C00084E0D807B9F7DF91CF910895CF93C82F53
:1024D0006FEF811160E282E290E00E948D296FEF40
:1024E000C11167E083E290E00E948D296FEFC11176
:1024F00064E284E290E0CF910C948D298F929F92B8
:10250000AF92BF92CF92DF92EF92FF920F931F9301
:10251000CF93DF93FC01B280948081E08483C4EE8A
:10252000D1E000EC11E08BE4A82E88248394EE2403
:10253000EA94F12C2BE4C22ED12C91101DC01B82E9
:102540001A8298014A81698188810E94FB09259637
:102550000D5F1F4F82E0C032D80779F7DF91CF912E
:102560001F910F91FF90EF90DF90CF90BF90AF90B1
:102570009F908F900C94E50C2B81222309F1215020
:102580002B833C818A2D821B311101C0822F9091B7
:10259000CC02899FC0011124B6010E94DB286A8306
:1025A000211104C0332311F01C82AB8222E02B15D1
:1025B00040F28091CA0288838091CB028983C1CF87
:1025C0000E945C29823091400CF0BBCF82E08B15D9
:1025D000C0F40E945C29B7010E94EF28888322E0A2
:1025E0002B1590F40E945C292091CB022695622F36
:1025F00070E00E94EF28280F29831A82AB828C8218
:10260000A0CF8091CA02EACF2091CB02F5CF90E013
:1026100080E00E94872921E08C3E9E4F09F020E057
:10262000822F08956CEE7EEF90E080E00E94AB294F
:1026300060E082E090E00E948D2960E083E090E01D
:102640000E948D291092920210929302109294028D
:102650001092950260E084E090E00E948D2960E095
:1026600081E290E00E948D2960E085E090E00E9488
:102670008D2960E086E090E00E948D296FEF87E071
:1026800090E00E948D2940E050E0BA0188E090E09F
:102690000E949F2960E08DE090E00E948D2940E03B
:1026A00050E0BA0188E190E00E949F2960E087E154
:1026B00090E00E948D2940E050E0BA018CE190E06A
:1026C0000E949F2960E080E290E00E948D2940E016
:1026D00050E0BA018FE090E00E949F2940E050E076
:1026E000BA0183E190E00C949F290E9407138111A5
:1026F00002C00E94121386E090E00E947929809324
:10270000C602883320F0877080638093C602909160
:10271000C602892F817090FF04C0892F8695869507
:1027200086950C946109CF92DF92EF92FF926B0134
:102730007C010E94EC09B701A60188E090E0FF90BF
:10274000EF90DF90CF900C949F298091CD02833041
:1027500018F48F5F8093CD026091C9027091CA0214
:102760008091CB029091CC020C9493138091CD0276
:10277000882319F081508093CD026091C902709135
:10278000CA028091CB029091CC020C9493135F9279
:102790006F927F928F929F92AF92BF92CF92DF9271
:1027A000EF92FF920F931F93CF93DF9300D00F927E
:1027B000CDB7DEB7182F762E042F622E9091C90266
:1027C00090FF29C0E92FE695AE2FB0E0A45EBE4F82
:1027D0008C918093C7029E7F923081F59E012F5F7E
:1027E0003F4F812F0E94FB094B8169818A810E94A2
:1027F0006D0E1093CA027092CB020093CC02662039
:1028000051F06091C9027091CA028091CB029091FF
:10281000CC020E9493130F900F900F90DF91CF91F5
:102820001F910F91FF90EF90DF90CF90BF90AF90EE
:102830009F908F907F906F905F900895823019F4F1
:102840000091CC02D6CF863019F41091CA02D1CFB4
:102850008930D9F3893169F6E9518E2F8170582E6C
:10286000E695F0E0E653FD4FA590B490BB2480ECD4
:10287000E82E81E0F82ED12CC12C9CE0892E912CE1
:10288000C601B4010E94DB28812F511013C0860FAE
:102890009701402F672D0E94FB09CA0CDB1C83E0C7
:1028A000E80EF11C84EEE81681E0F80649F70E9474
:1028B000E50C9FCF861BECCFE9ECF2E0438121E1F0
:1028C000421B08F440E021E0628181810C94C7132F
:1028D000E9ECF2E0438121E1420F08F44FEF21E0FF
:1028E000628181810C94C713E9ECF2E0628121E1FD
:1028F000621B08F460E021E0438181810C94C713DE
:10290000E9ECF2E0628121E1620F08F46FEF21E06F
:10291000438181810C94C713E9ECF2E0818121E0CD
:10292000438162818A500C94C713E9ECF2E0818103
:1029300021E043816281865F0C94C713E9ECF2E0E9
:1029400083E0808311828FEF82838383148260818E
:102950007181828193810C949313109290028091E3
:102960001B01ECE9F1E0882359F08091A10287FF77
:1029700007C08EE1DF011D928A95E9F70C9451089A
:1029800086E0F8CF1F93CF93DF93CDB7DEB7AA973A
:102990000FB6F894DEBF0FBECDBF82E093E020916A
:1029A000F100DC012D93CD01B3E08A309B07B9F72C
:1029B00080910303833009F471C0B8F4813009F4C5
:1029C00048C0823009F4B2C08091E80083FF93C20E
:1029D00080910203909103039A3008F08CC2E92F92
:1029E000F0E0EC5CF54D0C9403298A3009F48DC0BD
:1029F0008B3009F470C0893039F78091020381323D
:102A000019F78091060390910703009711F0029740
:102A1000D9F68091E800877F8093E8008091E800F4
:102A200082FF37C09091F3008091F200029729F461
:102A30008091F1008B7F813021F48091F1008093AF
:102A4000DE028091E8008B778093E8000E94920478
:102A5000BBCF80910203813A09F0B6CF8091E800A4
:102A6000877F8093E8008091060390910703892B6C
:102A700061F460E28FED92E070E00E944405809185
:102A8000E8008B778093E8009FCF60E090E080E0E3
:102A9000F3CF80910A038111C1CF96CF80910203B9
:102AA000813A09F091CF8091060390910703892B19
:102AB00009F08ACF8091E800877F8093E8008091B9
:102AC000E80080FFFCCF80911B018093F100809192
:102AD000E8008E77B9CF80910203813209F074CF7C
:102AE0008091060390910703892B09F06DCF8091A7
:102AF000E800877F8093E8000E949204809104039D
:102B000080931B010E94AD145FCF8091020381323C
:102B100009F05ACF8091E800877F8093E8000E94F7
:102B20009204809105038093DD024ECF80910203D1
:102B3000813A09F049CF8091E800877F8093E800CF
:102B40008091E80080FFFCCF8091DD02BECF80380D
:102B500099F0823809F0CFC1809106038F708730D9
:102B600008F0C9C18093E9008091EB0085FB8827BC
:102B700080F91092E90006C08091FF029091000355
:102B8000911182609091E800977F9093E800809384
:102B9000F1001092F1008091E8008E77A8C188239F
:102BA00009F496C1823009F0A6C180910403811115
:102BB00099C1809106038F702FEF280F263008F0FF
:102BC0009AC18093E9002091EB0020FF8BC19330E4
:102BD00031F48091EB0080628093EB0083C190918F
:102BE000EB0090619093EB0021E030E001C0220FF8
:102BF0008A95EAF72093EA001092EA008091EB00B0
:102C00008860EACF811177C1109104031F7780910A
:102C1000E3008078812B8093E3008091E800877F38
:102C20008093E8000E9492048091E80080FFFCCF2E
:102C30008091E30080688093E30082E0111183E0DB
:102C400080930A0358C18058823008F054C1209103
:102C50000403309105032C3DE3E03E07A1F583E03A
:102C60008A838AE289834FB7F894DE01139620E0C5
:102C70003EE051E2E32FF0E050935700E49120FF53
:102C800003C0E295EF703F5FEF708E2F90E0EA3067
:102C9000C0F0C7968D939D932F5F243159F74FBF96
:102CA0008091E800877F8093E8006AE270E0CE01BF
:102CB00001960E9444058091E8008B778093E8009C
:102CC0001AC1C096E7CF8091060390910703432F66
:102CD00055274330510509F44AC078F54130510574
:102CE00009F485C08BE590E0E4EBF6E04230510555
:102CF00009F001C12091E800277F2093E80020918E
:102D00000803309109038217930708F49C0140E0FF
:102D10002115310509F070C041116EC08091E800A5
:102D200082FDC9CF80910A03882329F2853019F2E8
:102D30008091E80083FFF2CFBECF4132510509F404
:102D400047C04232510509F0D6C08330910508F0E2
:102D5000D2C0FC01EE0FFF1FE257FE4F0190F08141
:102D6000E02D85579E4FDC018C9190E01DC03327EC
:102D700021303105E9F02115310579F02230310596
:102D8000F9F02330310509F0B6C0E1E2F7E0E49153
:102D90008E2F90E0E1E2F7E007C0E9E4F7E0E4918C
:102DA0008E2F90E0E9E4F7E0009709F4A4C0A2CFE9
:102DB000EBE3F7E0E4918E2F90E0EBE3F7E0F4CF64
:102DC000E7E2F7E0E4918E2F90E0E7E2F7E0ECCF66
:102DD0008330910508F08FC0880F991FFC01EC56D5
:102DE000FE4F0190F081E02D89E090E083CF82E1F9
:102DF00090E0EFE0F7E07ECF80910A03882309F4AA
:102E00005ACF853009F457CF8091E80083FD53CF26
:102E10008091E80082FD82CF8091E80080FF78CF2A
:102E20009091F3008091F2002115310519F088305E
:102E3000910550F041E0089709F040E08091E800EA
:102E40008E778093E80064CF44914093F1003196EF
:102E5000215031090196E8CF803809F04CC08091AB
:102E6000E800877F8093E800809101038093F10060
:102E700092CE811140C0109104031230E0F5809190
:102E8000E800877F8093E800109301030E9492047A
:102E9000112311F084E005C08091E30087FDFACF93
:102EA00081E080930A0342E061EC81E00E94B1047A
:102EB00042E261EC84E00E94B10442E261EC82E013
:102EC0000E94B10442E260EC83E00E94B10413C0AE
:102ED00080910403813079F481E0933009F080E03F
:102EE000809300031092E9008091E800877F80932F
:102EF000E8000E9492048091E80083FF0AC080915C
:102F0000E800877F8093E8008091EB0080628093E7
:102F1000EB00AA960FB6F894DEBF0FBECDBFDF91CF
:102F2000CF911F9108959091C90290FF3DC091707B
:102F3000811129C092609093C902662351F060917B
:102F4000C9027091CA028091CB029091CC020E947A
:102F500093136091C902669570E04BE050E084E005
:102F600091E00E946C29892BA9F01092C80281E09F
:102F70008093AA0220E04091CC026091CB02809124
:102F8000CA020C94C7138B3210F09465D4CF880F0B
:102F9000982BD1CF81E08093C8020E94E6069093DF
:102FA000A8028093A702E3CF08958091C902869575
:102FB000815009F48AE261E00C9493178091C90270
:102FC00086958F5F8B3208F081E061E00C94931757
:102FD0009091C90290FF07C09695981720F0961718
:102FE00010F40C94DE1761E00C9493174F925F92EB
:102FF0006F927F928F929F92AF92BF92CF92DF9209
:10300000EF92FF920F931F93CF93DF9300D000D0E6
:103010000F92CDB7DEB77C01FC0183819481892BAF
:1030200031F08081918189238F3F09F032C60F9062
:103030000F900F900F900F90DF91CF911F910F91F4
:10304000FF90EF90DF90CF90BF90AF909F908F90C8
:103050007F906F905F904F9008950E948C11182F71
:10306000682F89819A810E94DA0769817A81812F8C
:103070000E94F50F8C01F7019281992309F4DEC5B6
:10308000980122513F452031310508F09EC58FEF50
:1030900093E00E947929025156E5852E52E0952E43
:1030A000882379F180918D02877009F4C0CFF701F0
:1030B0008281882309F4BBCF82E00F900F900F909C
:1030C0000F900F90DF91CF911F910F91FF90EF9094
:1030D000DF90CF90BF90AF909F908F907F906F9038
:1030E0005F904F900C94B5088114F4E09F06D1F2E4
:1030F000C4010E947929811101C001502FEF821A69
:10310000920A0111F1CF1C821B82662463944AE06B
:10311000542E84010F5F1F4FC4010E9479298983B7
:103120001A82882309F4BECF9FEF980F933008F5D9
:103130008A83698232E0830E911CC8010E9479293A
:103140008B83882309F4AECF8E010F5F1F4FF801E8
:1031500020812223F1F2213009F043C09181828144
:10316000913049F40E5F1F4F0E946E0C0F5F1F4F8E
:10317000EECF4801E9CF923029F40E5F1F4F0E9435
:10318000B80BF4CF933029F40E5F1F4F0E9404094F
:10319000EDCF943019F00F5F1F4FE8CF0E5F1F4F38
:1031A00030E020E0B8016F5F7F4FF801418180532C
:1031B000990B8A30910550F021503109B8F28FE90E
:1031C0009FE00197F1F700C00000F6CF529EF0019A
:1031D000539EF00D11249C012E0F3F1F842F8B0155
:1031E000E1CFE22FF0E0E15EF94F7490822F8695F7
:1031F0008695869590E0FC01E15FF94FA4902770D9
:10320000B12C022E02C0B594A7940A94E2F7E1E033
:10321000AE22BB24FC01E150FA4FC490D12C02C075
:10322000D594C7942A95E2F7F1E0CF22DD24A114CA
:10323000B10419F081EE0E94B80BC114D10419F049
:1032400086EE0E94B80B872D0E946E0CCD2819F0D7
:1032500086EE0E940409AB2809F488CF81EE96CF50
:1032600081E00E94CD080E9476081CCF81E00E9478
:103270009208F9CF82E0F5CF82E0F9CF0F3BFCE571
:103280001F0709F454C008F43EC0003C3CE5130796
:1032900009F0B7C49091C602892F869586958695C8
:1032A0008F5F8F719770873008F059C0880F880F33
:1032B000880F892B8093C6028091C60210C086E0D9
:1032C0000E94D1098091C6020E945112EBCE8091DA
:1032D000C602982F987F79F088508093C602887F25
:1032E00091E009F490E08091C60290FB80F9809310
:1032F000C6020E9451128091C602869586958695D7
:103300000E946109CFCE8091C602982F969596951E
:103310009695963040F49F5F990F990F990F87709B
:10332000892B8093C6028091C6028160E0CF809194
:10333000C60280FF07C08E7F8093C6020E94511292
:1033400080E0DECF80FDAECE81608093C60281300A
:1033500019F489E08093C6028091C602CACF909387
:10336000C602AACF27E245EE65EE64C426E241EE2E
:1033700060EE60C427E245EE64EE5CC426E241EEF6
:1033800062EE58C428E241E0EFCF8091A102806153
:1033900006303CE5130709F47FC008F484C080912F
:1033A000A102806279C08091A1028D7F0C309CE5E2
:1033B000190709F471C070F48091A1028C600A3081
:1033C000FCE51F0709F468C008F479C08091A102E8
:1033D0008E7F62C08091A102877F0E303CE513078B
:1033E00009F45AC008F471C08091A1028F7E54C0C4
:1033F0000B3F9CE5190709F45AC030F50331FCE591
:103400001F0709F472C078F401313CE5130709F491
:1034100068C002311C4509F09EC40E94AD14809121
:10342000A1028F7739C005319CE5190709F465C001
:1034300008F479C08091A20281600A3F1C4509F01E
:103440008AC48093A20287C40F3F2CE5120709F4B7
:1034500050C070F40D3F8CE51807D9F18091A2029D
:103460008E7F0E3F1C4568F38091A2028360E9CFF6
:103470000130EDE51E0709F45FC008F44AC060E0C2
:1034800002301D4509F067C48EE090E00E948D294E
:1034900062C48091A10281608093A1025CC480918A
:1034A000A1028460F9CF8091A1028860F5CF80915C
:1034B000A2028260C6CF8091A1028064EDCF0E94FB
:1034C000AD148091A1028068E7CF8091A1028B7F2B
:1034D000E3CF8091A2028D7FB4CF8091A1028F7D36
:1034E000DBCF8091A1028F7BD7CF8091A102837F18
:1034F000D3CF8091A2028C7FA4CF8091A10282FBC6
:10350000992790F921E0922790FB82F990FB83F9AB
:10351000C3CF8091A202982F909591708E7F892BB6
:1035200090FB81F98ECF0E94AD149091A102892F5A
:1035300097FB87F98058B0CF61E0A6CF80919002C9
:1035400006313CE5130709F0B5C38A7A91E009F426
:1035500090E090932702811106C089E20E947E07C5
:103560000E940E079FCD85E3F9CF85E38FC380913D
:10357000C90280FF1BC08E7F8093C9026091C9027F
:103580007091CA028091CB029091CC020E94931359
:103590001092C8028FEF90E7E2E081509040E04047
:1035A000E1F700C000000E94E50C7CCD81608093B3
:1035B000C90261E086950E94931774CD45ED57E1ED
:1035C0006EED77E10E94E7096DCD4EED57E165EDB7
:1035D00077E1F8CF4CE854E165E974E1F3CF45E9D0
:1035E00054E16CE874E1EECF44E754E160E874E143
:1035F000E9CF40E854E164E774E1E4CF4CE554E1FD
:1036000068E674E1DFCF48E654E16CE574E1DACFB7
:1036100046EB53E165EA73E1D5CF45EA53E166EB4A
:1036200073E1D0CF61E081E0C6CF65E082E00E9427
:10363000E81738CD68E086E0FACF6EE089E0F7CF92
:1036400064E18FE0F4CF67E185E1F1CF61E088E1EB
:10365000B2CF62E289E1EBCF61E083E2ACCF01154A
:10366000FCE51F0709F447C00E3D1C4509F450C096
:10367000F70100811181992309F44DC0C8010E940E
:103680008C11D82E682FC8010E94DA07B8018D2D41
:103690000E9402108C01882EF701A580A2943FE0C1
:1036A000A322D280D11010928F0280918D02877058
:1036B00099F0DD2089F0812F807F803421F080E235
:1036C000800F883048F082E00E94B50880918D021A
:1036D0008770CC24C3948111C12CB12EB2942FE0F9
:1036E000B222FBE0FB1508F450C0EB2DF0E0E25CE9
:1036F000F54D0C9403290E94AD143FEF84E39CE048
:10370000315080409040E1F700C000000E94940BCF
:103710000E941213C7CCC8010E94B207D82EB6CFA0
:10372000212F2F70A22E107F19F0A29490EFA922C2
:10373000DD20C9F0AA2069F080E2800F883010F007
:1037400081100BC080919002A82AA09290020E9442
:103750000E07802F0E94B80B18C080918F02A82AF4
:10376000A0928F02F4CF802F0E940409AA2069F052
:10377000A094005E083010F081103DC0809190024E
:10378000A822A09290020E940E07EB2DE850FF0B9A
:10379000349720F40E94F8080E94D40ACC2009F43F
:1037A00046CC80918D0280FD42CCF7011282859536
:1037B000859585950E94CD08C7010E94F6178091D6
:1037C0008D028595859585950F900F900F900F90A0
:1037D0000F90DF91CF911F910F91FF90EF90DF90AD
:1037E000CF90BF90AF909F908F907F906F905F90A1
:1037F0004F900C94920880918F02A822A0928F0281
:10380000C2CF312F3F70932E107F103219F0929457
:1038100080EF9822882071F081E0881661F1DD2028
:10382000B9F1AA2071F1F701858180FF92CF8F70E5
:10383000858327C0DD2091F090919102892F8929FD
:10384000A11003C00E941B08A0CFE1E0AE12FACF86
:10385000981709F49ACF8093910297CFA11006C0D0
:103860000E940807892D0E9410088FCFF1E0AF1643
:1038700009F48BCFF5CFDD2031F025E02A1508F4CF
:1038800084CF892DDFCF34E03A1508F47ECFEACF1C
:10389000AA2041F3F9E38F1291C12FEF37EE83E0B5
:1038A000215030408040E1F700C0000087C1812FE7
:1038B00086958695837061F0813009F066CFC801E6
:1038C0009370D11002C090E080E00E9425085DCF87
:1038D000C8019370D11002C090E080E00E943B08C4
:1038E00054CF802FDD2029F00E946F060E94F2063F
:1038F0004CCF0E94AE05FACF812F837009F066C0CD
:10390000D11043CF802F829586958770880F880FBE
:10391000602F6F70462E512C712C612C082E04C024
:10392000440C551C661C771C0A94D2F740E050E00A
:10393000BA0104FF0FC04FE050E060E070E004C047
:10394000440F551F661F771F8A95D2F740955095F3
:1039500060957095812F869586958370823019F1D8
:10396000D8F4009192021091930220919402309128
:103970009502813069F04429552966297729CB01C0
:10398000BA0160237123822393230E94EE08FDCEA7
:10399000402A512A622A732ACB01BA016429752967
:1039A00086299729F2CF442955296629772900913C
:1039B0009202109193022091940230919502CB01D2
:1039C000BA016027712782279327DFCF8695DD20F4
:1039D00011F0812F8170882309F4D7CE802F829532
:1039E00086958770880F880F602F6F70462E512C38
:1039F000712C612C082E04C0440C551C661C771CCD
:103A00000A94D2F740E050E0BA0104FF0FC04FE043
:103A100050E060E070E004C0440F551F661F771F40
:103A20008A95D2F74095509560957095812F86952F
:103A300086958370823019F1D8F400910B031091B0
:103A40000C0320910D0330910E03813069F044295D
:103A5000552966297729CB01BA0160237123822376
:103A600093230E946C0891CE402A512A622A732A1D
:103A7000CB01BA016429752986299729F2CF4429F7
:103A800055296629772900910B0310910C03209189
:103A90000D0330910E03CB01BA01602771278227F5
:103AA0009327DFCF1F70DD2029F0812F0E94CD08E2
:103AB000802FC8CE802F0E941008812F0E9492086C
:103AC00064CE802F92EF891609F450C0981578F0D3
:103AD000E0EF8E1619F1F1EF8F1609F43FC0DD20EB
:103AE00009F467C0A11035CE812F8F713CC023EF40
:103AF000821609F440C034EF8312F1CFDD2009F4BF
:103B00004DC01F71812F0E94CD08E8E01E9FC001AB
:103B10001124836080938D02812F25C0DD20C9F0A0
:103B200084E08A1508F431CE1F7161E070E080E016
:103B300090E004C0660F771F881F991F1A95D2F76F
:103B400000910B0310910C0320910D0330910E0393
:103B5000A4CF95E09A1508F418CEE6CF812F8F7187
:103B6000DD2009F4ABCF0E94CD080FCE812F8F71DD
:103B7000DD20C9F3A3CF60E070E0CB01DD2009F4C4
:103B800070CF1F7161E070E080E090E004C0660FCC
:103B9000771F881F991F1A95D2F763CF81E00E9483
:103BA000B508F1E0FA1508F0F0CD82E00E94B50802
:103BB000ECCDAA2039F0893309F46FCE802F0E9412
:103BC0000409E3CD812F8F7179CF0031FFE51F0705
:103BD00009F446CB01312FE5120709F44BCB0D3B1D
:103BE0002CE5120709F473CB08F048CB0B3B8CE5AE
:103BF000180709F464CB80E00C3BECE51E0709F4E0
:103C00005FCB033F2CE5120709F4B0CB08F05EC090
:103C1000083D8CE5180709F4A5CB093DECE51E0726
:103C200009F4B0CB073DFCE51F0709F05BC026E2B5
:103C300041EE61EEC7010E94810C34CA00313FE5BC
:103C4000130709F413CB01318FE5180709F414CBDE
:103C5000033FECE51E0709F489CB08F08CC0083D52
:103C60002CE5120709F47ECB093D3CE5130709F466
:103C700089CB073D8CE51807D1F206311C4509F0C8
:103C8000F7CC80912702811170CC89E20E94530702
:103C900067CC85E0DE01119601900D928A95E1F7DF
:103CA000F701228189819A812111D7C90E94B20727
:103CB000182FDBC98272F801E25CFC45E431F105A2
:103CC00008F0CDCCE65BF54D0C940329053F2CE5BF
:103CD000120709F453CB08F44DCB063F8CE51807C7
:103CE00009F455C01092260202308CE5180708F43A
:103CF00025CC0631ECE51E0738F098012A5F3C45DB
:103D00002930310508F01ACC0E94C10F9093A2020D
:103D10008093A1020031FCE51F0709F4DECB08F017
:103D200067CB08303CE5130709F4C5CB08F03BCB63
:103D300004309CE5190709F4B2CB08F026CB023019
:103D4000FCE51F0709F4A5CB8091A1028260033036
:103D50001C4509F4A1CB6091A1021091A20284E05C
:103D600090E00E948D29612F81E290E00E948D29D0
:103D70000E94AD1497C9053FECE51E0709F4FECA81
:103D800008F4F8CA063F2CE5120709F076CF27E2BF
:103D900045EE66EE4FCF1F93CF93DF9380912D02B8
:103DA000807FA9F480912A02882389F080915F02A4
:103DB000D0912E026091280270912902A0912B02CD
:103DC000B0912C02C62FC72316E0D81304C0DF9190
:103DD000CF911F91089590E0109711F0CF3F19F403
:103DE00001968770F2CF189F9001199F300D112412
:103DF000F901E15DFD4F41814713F2CF4081461348
:103E0000EFCF42814111ECCF438154814A1B5B0BC0
:103E1000483C510528F780912D028F708061809376
:103E20002D02F901EC5CFD4F80818F7080618083F1
:103E300088E292E00E94F617DF91CF911F910C94D7
:103E40000608AF92BF92CF92DF92EF92FF920F934C
:103E50001F93CF93DF93CDB7DEB761970FB6F8947A
:103E6000DEBF0FBECDBF8C0185E0F801DE011D96DF
:103E700001900D928A95E1F7F80180819181E280AD
:103E800028E2A22E22E0B22E60912B0270912C0229
:103E90006115710509F43EC1309128024091290253
:103EA000232F24232F3F09F435C1C380D480F09001
:103EB0002A02F601E61BF70BFF2009F4FBC0209154
:103EC0002D02522F507FE83CF10508F0BBC0511184
:103ED00078C0FE2C491321C038131FC0E1101DC04B
:103EE0002F70206120932D02C5010E94F61780914A
:103EF0002D02F80185838F2D61960FB6F894DEBFF1
:103F00000FBECDBFDF91CF911F910F91FF90EF902A
:103F1000DF90CF90BF90AF900895CD2829F0282F43
:103F200029232F3F09F014C120E0F22FF170DF2E7A
:103F300020FF3DC020915F0240912E0256E02413E5
:103F400015C08D879E878D859E850E94CE11292F55
:103F500022952F702230F8F0243020F59F70F9F070
:103F6000F8019581907FD9F4D12C1FC030E0529F89
:103F7000F001539FF00D1124E15DFD4F6181961317
:103F800006C06081861303C06281E61210C02F5FF5
:103F90003F4F2770D4CF9F7011F0882329F3805EA4
:103FA000883010F3C8010E94F617FD2CA4CFEE2034
:103FB00009F4A1CF80912D02816080932D02F12C14
:103FC0009ACF491312C0381310C0E1100EC0F80187
:103FD0002583C8010E94F61786E0F801A8E2B2E046
:103FE00001900D928A95E1F786CF8D879E878D850A
:103FF0009E850E94D811882309F1EE20F9F0809166
:104000002D02803270F020912802309129023887E9
:104010002F831986DB86CA868C87CE0107960E947D
:10402000F61786E0F801A8E2B2E001900D928A95B9
:10403000E1F70E94CB1EFF24F3945DCFC8010E94DC
:10404000F617F9CF51110AC088E292E00E94F617E4
:1040500086E0F50111928A95E9F7B1CF49130FC0B7
:1040600038130DC0E1100BC0F8012583C8010E9470
:10407000F61786E0F50111928A95E9F73CCF8D8716
:104080009E878D859E850E94D8118823B9F2EE20E7
:10409000A9F280912D02803220F2209128023091E5
:1040A00029023A8329831B82DD82CC828E83CE0152
:1040B0000196B5CFE83CF105E0F6FE2CEE2009F4C0
:1040C000BDCF491316C0381314C080912D0280FD56
:1040D00083CF982F907F09F47FCFF8018583903F9D
:1040E00009F477CF982F907F905F8F70892B85830D
:1040F00070CF8D879E878D859E850E94D8118111F6
:1041000090CF80912D02816080932D02C8010E9482
:10411000F617F1CEEE2009F491CF8D879E878D851D
:104120009E850E94D811F82E882309F487CF86E057
:10413000F801A8E2B2E001900D928A95E1F7809132
:104140002802909129020E94CE110E94CB1ED3CE4C
:1041500021E02E25EACE1F93CF93DF93CDB7DEB7B4
:1041600067970FB6F894DEBF0FBECDBF4B8B5C8B4D
:104170006D8B7E8B8F8B1A8A198A85E0FE01739670
:10418000DE011D9601900D928A95E1F786E0FE0111
:104190003D96DE01179601900D928A95E1F7CE01CA
:1041A00007960E94211F811112C086E0FE013796FA
:1041B000DE01119601900D928A95E1F78A859B8523
:1041C000892B29F08F81988589238F3FB1F516E0DF
:1041D00080915F0290912E0289131DC067960FB6E1
:1041E000F894DEBF0FBECDBFDF91CF911F91089530
:1041F00096E0929FD001939FB00D1124A15DBD4F19
:10420000FE01319601900D929A95E1F780932E026E
:104210000E940608DCCF819FC0011124815D9D4F63
:104220000E94211F8823D1F280915F0290E00196C5
:104230008770992780935F02CBCF20912E0230E0C8
:10424000C90101968770992740915F0248171906A6
:1042500079F60E94AD1410922E0210925F0286E051
:10426000E8E2F2E0DF011D928A95E9F7B0CF1F92F4
:104270000F920FB60F9211242F933F934F935F939A
:104280006F937F938F939F93AF93BF93CF93DF935E
:10429000EF93FF93D091E900DF708091EC00C82F7D
:1042A000C17080FDC0E81092E9008091F000877F26
:1042B0008093F00078940E94C2141092E9008091DB
:1042C000F00088608093F000CD2BCF70C093E900A0
:1042D000FF91EF91DF91CF91BF91AF919F918F911E
:1042E0007F916F915F914F913F912F910F900FBEF2
:1042F0000F901F9018951F920F920FB60F921124D6
:104300002F933F934F935F936F937F938F939F93DD
:10431000AF93BF93EF93FF938091E10082FF09C0B9
:104320008091E20082FF05C08091E1008B7F809345
:10433000E1008091DA0080FF24C08091D80080FFE6
:1043400020C08091DA008E7F8093DA008091D900BE
:1043500080FFA3C080E189BD82E189BD09B400FE70
:10436000FDCF81E080930A038091DC02811109C0B6
:104370000E94F0030E94E3048091E2008460809335
:10438000E2008091E10080FF17C08091E20080FF91
:1043900013C08091E2008E7F8093E2008091E20062
:1043A00080618093E2008091D80080628093D80081
:1043B00019BC85E080930A038091E10084FF31C03D
:1043C0008091E20084FF2DC080E189BD82E189BD3A
:1043D00089B5982F917080FFFBCF8091D8008F7D99
:1043E0008093D8008091E1008F7E8093E1008091DE
:1043F000E2008F7E8093E2008091E20081608093F2
:10440000E20080910103882309F44DC084E0809389
:104410000A030E94AD140E9475130E94F8080E94BE
:10442000D40A8091E10083FF27C08091E20083FFDE
:1044300023C08091E100877F8093E10082E0809338
:104440000A03109201038091E1008E7F8093E100C6
:104450008091E2008E7F8093E2008091E200806193
:104460008093E20042E060E080E00E94B10480912D
:10447000F00088608093F000FF91EF91BF91AF91C1
:104480009F918F917F916F915F914F913F912F916C
:104490000F900FBE0F901F90189519BC10920A0331
:1044A0001092DC026ECF8091E30087FD93E0909341
:1044B0000A03AFCFCDB7DEB7AA970FB6F894DEBF29
:1044C0000FBECDBF84B7877F84BF0FB6F894A89581
:1044D00080916000886180936000109260000FBE40
:1044E00080E890E00FB6F8948093610090936100AB
:1044F0000FBE85B7806885BF85B7806885BF0E947D
:10450000F0030E94E3048091E20084608093E20063
:10451000789480910A038823A1F01091E9001F701C
:104520009091EC00892F817090FD80E8182B1092FB
:10453000E9008091E80083FD0E94C2141F7010936F
:10454000E90082E084BD93E095BD9AEF97BD80932A
:104550006E00A8E7B1E061E070E08D91E82FE29590
:10456000EF70F0E041A18F709B0101C0220F8A958E
:10457000EAF7922F9095942391A382A1822B82A394
:1045800021E0AD37B20749F7ADE7B1E04BE851E0C4
:1045900061E070E08D91E82FE295EF70F0E011A1FD
:1045A0008F709B0101C0220F8A95EAF7922F909598
:1045B000912391A382A1822B82A34A175B0751F713
:1045C00010929802109297021092CF021092CE028F
:1045D00010929A02109299021092D1021092D00277
:1045E00010929C0210929B021092D3021092D2025F
:1045F00010929E0210929D021092D5021092D40247
:104600001092A00210929F021092D7021092D6022E
:104610000E94FB0E8FE39CE90197F1F700C00000B8
:104620000E94FB0E8091CE0280FF0BC080E00E94B2
:1046300066126FEF7FEF90E080E00E94AB290E944E
:10464000940B0E940713811102C00E941213859AD5
:104650008D9A82E08093800089E1809381008FEFC2
:104660009FEF90938700809386000E94751382E2EB
:1046700090E00E947929803209F0F3C483E290E04F
:104680000E947929873009F0ECC484E290E00E940E
:104690007929843209F0E5C40E940713811102C010
:1046A0000E94121382E090E00E9479298093BB025D
:1046B0000E94C10F9093A2028093A10283E090E038
:1046C0000E947929682F70E090E080E00E94EE0857
:1046D0000E9475138091A302811133C00E940713B9
:1046E000811104C00E9412130E949E1488E090E081
:1046F0000E9481296093C9027093CA028093CB0201
:104700009093CC026E7F71F40E949E1488E090E03A
:104710000E9481296093C9027093CA028093CB02E0
:104720009093CC020E94EC091092C8028091C902B9
:1047300080FF04C060E086950E94931781E080931B
:10474000A30281E191E09093A5028093A40256E038
:10475000652E712CEE24EA94F12C72EAC72E76E0D5
:10476000D72E80910A03853009F4A0C10E94FB0E68
:10477000AEECB2E0ECEBF2E010E000E0702F8D91D7
:104780009D91219131912817390709F4D6C160E034
:10479000AA24A394B12C28273927A9014A215B21F7
:1047A000452B09F4C4C169A37AA39C012A213B21AA
:1047B00091E0232B09F490E09BA30E94E606816020
:1047C000782F9DA38CA349A15AA16BA18DA10E9412
:1047D000AB20000F111FF801E454FD4F808191813F
:1047E000A826B926B182A0828091C802882309F444
:1047F00041C08091C702E091C902E695E81BE093B1
:10480000A902823009F0B0C1F0E0E055F94FE4911F
:104810000E2F10E087EDA82E8EE0B82E8091AA0210
:10482000882389F01092AA020E94E606980120953A
:104830003095820F931F9093A8028093A702109245
:10484000AC021092AB028091A7029091A8020E9444
:10485000D7068017910770F0E091A702F091A802A7
:104860000E0F1F1F1093A8020093A70287EA92E081
:10487000F501099586E0E4EBF2E0DE011196019086
:104880000D928A95E1F78091B6029091B702892B3B
:1048900009F468C08091B2029091B3020E94D706D9
:1048A0009C019091B102992309F4F6C32333310599
:1048B00008F458C09F3F19F09F5F9093B102109287
:1048C000B8021092B9028091B602181624F40E9420
:1048D0004F068093B6028091B60287FF05C00E9402
:1048E0004F0681958093B6028091B702181624F482
:1048F0000E944F068093B7028091B70287FF05C0E0
:104900000E944F0681958093B7023091B6023323FF
:10491000B1F02091B702222391F045EB3403C0019E
:104920001124992309F48BC19093B60245EB24031B
:1049300090011124332309F486C13093B7020E94F9
:10494000F2068091AF029091B0029093B3028093EF
:10495000B20286E0FE013196A4EBB2E001900D9226
:104960008A95E1F78091B8029091B902892B09F4F8
:1049700068C08091AD029091AE020E94D7069C0162
:104980009091B102992309F482C32536310508F4C8
:1049900058C09F3F19F09F5F9093B1021092B602EA
:1049A0001092B7028091B802181624F40E942D06C6
:1049B0008093B8028091B80287FF05C00E942D063F
:1049C00081958093B8028091B902181624F40E9450
:1049D0002D068093B9028091B90287FF05C00E941D
:1049E0002D0681958093B9023091B8023323B1F03E
:1049F0002091B902222391F045EB3403C001112428
:104A0000992309F424C19093B80245EB2403900143
:104A10001124332309F41FC13093B9020E94F20616
:104A20008091AF029091B0029093AE028093AD025C
:104A300086E0FE013196A4EBB2E001900D928A95DA
:104A4000E1F70E94F8089091BA02891731F00E94AC
:104A5000F8088093BA020E94D40A80910A03843035
:104A600009F07FCE83E08093E9008091E80082FF27
:104A700078CE8091E80090E085FF06C00E940F0488
:104A8000882309F4ECC091E08091E8008B77809353
:104A9000E800992309F465CEE981E150E33108F09B
:104AA00059C1F0E0E25AF54D0C94032980910A03B4
:104AB000843051F11092A60288E190E020E40FB614
:104AC000F894A895809360000FBE2093600080E06A
:104AD0000E94610980E00E94D40A83B7817F8460CC
:104AE00083BF83B7816083BF7894889583B78E7FB7
:104AF00083BF0FB6F894A895809160008861809379
:104B00006000109260000FBE80910003882309F4BA
:104B100028CE0E94FB0EEEECF2E081919191892B60
:104B200009F089C292E0E83DF907B9F71ACE6F5F44
:104B3000AA0CBB1C6E3009F030CE0F5F1F4F053042
:104B4000110509F01BCE8FEF8EA38FA318A60E942C
:104B5000E6068160782F9AA789A74EA15FA168A574
:104B60008AA50E94AB2040CE863059F4F0E0E35590
:104B7000F94FE4910E2F10E0BBEEAB2EBEE0BB2E42
:104B80004DCE893061F4E695F0E0E655F94FE491B9
:104B90000E2F10E0AAE1AA2EADE0BA2E3FCE8F3044
:104BA00061F4E695F0E0E955F94FE4910E2F10E03D
:104BB000F4E4AF2EFDE0BF2E31CE853159F4F0E0A4
:104BC000EC55F94FE4910E2F10E0E2EBAE2EEDE044
:104BD000BE2E24CE08EE13E050E0A52E5EE0B52EEA
:104BE000883109F41BCE833241F4F601059114910A
:104BF0007EE7A72E7EE0B72E11CE04EF11E044E34E
:104C0000A42E4EE0B42E843209F408CE00ED17E055
:104C10003AEAA32E35E0B32E853209F0FFCD8E2F70
:104C200063E00E94C128E92FF0E0E156F94FE491DA
:104C30000E2F10E06EE7A62E62E1B62EEFCD81E0DA
:104C40008093B60273CE81E08093B70278CE81E084
:104C50008093B802DACE81E08093B902DFCE00E221
:104C600010E0CE0101965C018091E80085FD0AC04C
:104C70008091E8008B778093E8000E940F048823DE
:104C800099F301CF8091F100F50181935F0101500B
:104C9000110951F7F8CE1A8289E08B831AC08A81F4
:104CA000823009F4EBC18330C9F0813009F052C081
:104CB0002FB7F8946091D8027091D9028091DA02EE
:104CC0009091DB022FBF0E9409296B837C838D8327
:104CD0009E83CE0101960E946A0443CD8091CE024C
:104CE0009091CF029827892798279C838B83809166
:104CF000D0029091D1029827892798279E838D838F
:104D00008091D2029091D30298278927982798877B
:104D10008F838091D4029091D50298278927982774
:104D20009A8789878091D6029091D7029827892700
:104D300098279C878B87CDCF8A81823059F46B81ED
:104D40007C818D819E810E94092985E290E00E94EC
:104D50008D29BFCF8FEF8983BCCF4C816B818A8136
:104D60000E94CF0F9827892798279E838D83B1CFE4
:104D7000AD80BE80BA24AB24BA248A810B81FCE1C9
:104D80000F9F800111242CE8829F000D111D11241A
:104D90008C8190E0880F991F080F191F6B2DC80197
:104DA00086960E948D296A2DC8018796D0CF0E94D1
:104DB000FC118FCF8A81893059F48B8146E0849F22
:104DC000C0011124B7010E94DB28862F0E94D1095F
:104DD0008A818138C1F060F4803809F07ACF20E010
:104DE0004B816091CB028091CA020E94C71371CFA0
:104DF000823859F1833809F06CCF20E04091CC0221
:104E00006C818B81F2CF60E08B810E9493179B8134
:104E10008091C902911111C08E7F8093C9021092B6
:104E2000C8028FEF90E7E2E081509040E040E1F768
:104E300000C000000E94E50C4CCF81608093C90245
:104E400060E086950E94931744CF8B818093CD02BA
:104E500040CF8A81893059F08A30B9F0813819F110
:104E6000B0F4803809F035CF8091CC0216CF809114
:104E7000C602869586958695FFEF8F9FC001112407
:104E8000B3010E94DB286B8324CF1B8222CF8238A0
:104E900091F0833809F01DCF8091CA028B838091F5
:104EA000CB028C8316CF8091C90280FF02C0869509
:104EB000F4CE80E0F2CE8091CD02EFCE8091C6029A
:104EC0000E9451126091C9027091CA028091CB0276
:104ED0009091CC020E949313FCCE80E18A83F9CE9C
:104EE00081E08A838AEAD9CE0A811B8110270127B3
:104EF0001027CE0101965C018C80FC01E80DF11DAC
:104F00004F01C8018A5A9D4FA814B90409F4E1CE93
:104F10000A3AF1E01F0750F40E947929F5018483D1
:104F20000F5F1F4FFFEFAF1ABF0AEBCFF5011482DF
:104F3000F7CF0A811B81102701271027CE01019688
:104F40004C01AC80A00EB12EB11CC8018A5A9D4FF5
:104F5000A016B10609F4BDCE0A3AE1E01E0720F41E
:104F6000F40164810E948D29FFEF8F1A9F0A0F5F61
:104F70001F4FEBCF0E945612ACCE84E0AFCF0A8118
:104F80001B81102701271027CE0101965C018C8020
:104F9000FC01E80DF11D4F01C8018696A814B90463
:104FA00009F497CE0033F2E01F0750F40E947929EC
:104FB000F50184830F5F1F4FFFEFAF1ABF0AECCFDD
:104FC000F5011482F7CF0A811B81102701271027D2
:104FD000CE0101964C01AC80A00EB12EB11CC801CF
:104FE00086960A151B0509F474CE0033E2E01E070D
:104FF00020F4F40164810E948D29FFEF8F1A9F0A2B
:105000000F5F1F4FECCF80E00E9466126FEF7FEFC3
:1050100090E080E00E94AB295CCECE0101960E9418
:105020006A042FEF41EE84E0215040408040E1F7D8
:1050300000C0000004CB80E189BD82E189BD09B4D4
:1050400000FEFDCF8091D8008F7D8093D8008091A5
:10505000E00082608093E0008091E00081FDFCCF61
:1050600080CB60E085E290E00E948D290E94FC11D7
:105070000E94561281E00E9466120ECB85E290E0FB
:105080000E9479291B821C821D828E8322CE2D32A2
:10509000314008F080CCD5CC2D32314008F00CCC1A
:1050A00061CC78941F921FB61F9211248F939F9307
:1050B000AF93BF938091D8029091D902A091DA0268
:1050C000B091DB020196A11DB11D8093D80290938F
:1050D000D902A093DA02B093DB02BF91AF919F9106
:1050E0008F911F901FBE1F9018951F921FB61F9281
:1050F00011248F939F93AF93BF938091A602811148
:1051000013C08091D8029091D902A091DA02B09197
:10511000DB024196A11DB11D8093D8029093D90264
:10512000A093DA02B093DB02BF91AF919F918F9170
:105130001F901FBE1F9018952F932FB72F938F93FB
:105140009F9380918800909189008130914008F070
:105150008D989F918F912F912FBF2F9118958D9A98
:105160001895DB018F939F930E94E029BF91AF9127
:10517000A29F800D911DA39F900DB29F900D1124B1
:105180000895991B79E004C0991F961708F0961BA3
:10519000881F7A95C9F78095089587FB082E062603
:1051A00087FD819567FD61950E94C1280EF4919558
:1051B00007FC81950895AA1BBB1B51E107C0AA1FDC
:1051C000BB1FA617B70710F0A61BB70B881F991FA8
:1051D0005A95A9F780959095BC01CD01089597FB4C
:1051E000072E16F4009407D077FD09D00E94DB2823
:1051F00007FC05D03EF4909581959F4F08957095DA
:1052000061957F4F0895EE0FFF1F0590F491E02DFB
:10521000099469279627692778278727782708958B
:105220008F929F92AF92BF92CF92DF92EF92FF92B6
:10523000CF93DF93EC01688179818A819B8161152D
:1052400071058105910521F464E279ED8BE597E024
:105250002DE133EF41E050E00E94C12949015A019C
:105260009B01AC01A7EAB1E40E94E0296B017C013B
:10527000ACEEB4EFA50194010E94EE29DC01CB0154
:105280008C0D9D1DAE1DBF1DB7FF03C00197A10969
:10529000B04888839983AA83BB839F77DF91CF919E
:1052A000FF90EF90DF90CF90BF90AF909F908F9046
:1052B00008950E941029089580E091E00E9410292D
:1052C0000895B0E0A0E08093000190930101A093C5
:1052D0000201B09303010895FC014150504030F0A9
:1052E00001900616D1F73197CF01089588279927A5
:1052F0000895F999FECF92BD81BDF89A992780B59E
:105300000895A6E1B0E044E050E00C94B329A8E190
:10531000B0E042E050E00C94B329262FF999FECF7B
:1053200092BD81BDF89A019700B4021639F01FBAF8
:1053300020BD0FB6F894FA9AF99A0FBE0895039615
:10534000272F0E948E290E948D29252F0E948E29A9
:10535000242F0C948E290196272F0E948E290C94BD
:105360008D29DC01CB01FC01F999FECF06C0F2BD0D
:10537000E1BDF89A319600B40D9241505040B8F713
:105380000895052E97FB1EF400940E94D82957FD1E
:1053900007D00E94F32907FC03D04EF40C94D829BF
:1053A00050954095309521953F4F4F4F5F4F089551
:1053B00090958095709561957F4F8F4F9F4F089581
:1053C0000E94152AA59F900DB49F900DA49F800D5B
:1053D000911D11240895B7FF0C94E0290E94E02943
:1053E000821B930B0895A1E21A2EAA1BBB1BFD0181
:1053F0000DC0AA1FBB1FEE1FFF1FA217B307E407B4
:10540000F50720F0A21BB30BE40BF50B661F771F0B
:10541000881F991F1A9469F76095709580959095EB
:105420009B01AC01BD01CF010895A29FB001B39FC4
:10543000C001A39F700D811D1124911DB29F700D9D
:10544000811D1124911D0895F894FFCFE711E711F4
:10545000F011F011F211F011F011F011E711E71154
:10546000F711F011F011F711A715CF157B17CF1514
:105470007B17021623167B172C173917901B901BCE
:10548000011C011C571C711CC51BC51B7C1C521D1B
:10549000611D611DB71ADE1AE51AEA1AEF1AF41A2D
:1054A000F91AFE1A031B081B0D1B121B151B1A1BD6
:1054B0001D1B201B231B261B291B2C1B4B264F2689
:1054C0009C26AD26B826D726DA2629275E2703286C
:1054D0000D286D27702774279927BA27BD27BF2766
:0254E000E327C0
:1054E2000100000001191A1B1C1D1E1F2021220190
:1054F20002AB054E0B230B1F0B0D0B010001020229
:1055020002020606060909090909090F0F0F0F0F02
:105512000F15151518191919191919191919192306
:1055220024252525252525818283E200E900EA003C
:10553200B500B600B700CD008301CC008A0192010C
:1055420094012102230224022502260227022A02B2
:10555200B300B4006F0070009091929395F0F1C681
:1055620067663694313735349796334022BC8A01C8
:0A5572006801AC00C606DF06FF0664
:00000001FF
